:1060000000800020D59F0000D19F0000D19F00009C
:10601000D57D0000D19F0000D19F0000D19F0000DE
:10602000D19F0000D19F0000D19F0000D19F0000B0
:10603000D19F0000D19F0000D19F0000D19F0000A0
:10604000D19F0000D19F0000D19F0000D19F000090
:10605000D19F0000D19F0000D19F0000D19F000080
:10606000D19F0000D19F0000D19F0000D19F000070
:10607000D19F0000D19F0000D19F0000D19F000060
:10608000D19F0000D19F0000D19F0000D19F000050
:10609000D19F0000D19F0000D19F0000D19F000040
:1060A000D19F0000D19F0000D19F0000D19F000030
:1060B000D19F000059E90000D19F0000F1F20000DB
:1060C000B9F20000B5F200000DEB0000EDF20000A7
:1060D000BDF20000C5F20000C1F2000051F3000063
:1060E00049D60000ADD6000031F30000D19F00007A
:1060F000D19F0000D19F0000D19F0000D19F0000E0
:10610000D19F0000D19F0000D19F0000D19F0000CF
:10611000D19F0000D19F0000D19F0000D19F0000BF
:10612000D19F0000D19F0000D19F0000D19F0000AF
:10613000D19F0000D19F0000D19F0000D19F00009F
:1061400010B5054C237833B9044B13B1044800E073
:1061500000BF0123237010BD1801002000000000C3
:10616000FC42010008B5034B1BB10349034800E0A2
:1061700000BF08BD000000001C010020FC4201001F
:10618000A3F5803A704700BF174B002B08BF134B95
:106190009D46FFF7F5FF00218B460F461348144A32
:1061A000121A09F04AFF0E4B002B00D098470D4BF6
:1061B000002B00D098470020002104000D000D485E
:1061C000002802D00C4800E000BF09F005FF2000C5
:1061D000290002F0C5FA09F0EBFE00BF000008003C
:1061E00000000000000000000080002018010020D6
:1061F0003C1A00200000000000000000BFF34F8F99
:106200000549064BCA6802F4E0621343CB60BFF352
:106210004F8F00BFFDE700BF00ED00E00400FA056E
:10622000024610B500B3114B1968888890421BD301
:1062300098880024904281BF012009689880996065
:106240009868998828B904B198604FF6FF729A80CF
:1062500009E08A4204D001310124006889B2F1E7E3
:106260000CB19A80986010BD0020FCE74007002028
:1062700000239B6AB3F5C04F03D21968064A9142C6
:1062800003D00023037083607047012202709A6874
:106290009B694260F7E700BF07B0CD5E10B50C46C2
:1062A00030B90448FFF7E4FF042304302060A380E2
:1062B000002010BDF401002000239B6AB3F5C04FFD
:1062C00005D21B6BB3F5C04F01D29B6B184740F250
:1062D0000110704700239B6AB3F5C04F05D21B6BBA
:1062E000B3F5C04F01D2DB6B184740F20110704785
:1062F000024BD86880B28002704700BF0080E00F78
:106300007FB503466D460E4A02F110062C46106812
:106310005168083203C4B2422546F7D15A1E0DF126
:106320000F010F3311F8010912F8014F844204D113
:106330009A42F7D1012004B070BD0020FBE700BFF6
:10634000E801010070B5154E306810BB144B154CB8
:10635000E41A154B1C4424F4FF5424F01F04FFF7E7
:10636000C7FF844214D2656BA5B1FFF7C1FF854218
:1063700010D2FFF7BDFF05F1400383420AD828463B
:10638000FFF7BEFF30B1EB6933F0080302D0346091
:10639000306870BD04F50054E1E700BF98010020AB
:1063A000100000201801002047630100034B044A3D
:1063B0009979117500221A60704700BFDC0D00202A
:1063C000D80600200022134630B58BB0D910415CAE
:1063D00003F007042141CC0742BF0AA9891801F83C
:1063E000283C03F1010348BF0132252BEED10023E5
:1063F0000C4CD910415C03F007052941C9075FBF68
:10640000B3FBF2F102FB11310AAD49194CBFD9B20D
:1064100011F8281C0133252B04F8011BE9D10BB01E
:1064200030BD00BF0207002010B5034CA01DFFF7D0
:10643000C9FF0023236010BDDC0D002010B540F221
:10644000E244074A6043136800F5807004FB0131A1
:10645000536801EB500118441160506010BD00BF3B
:10646000D80600200A20D0B50B4CE38C584309F025
:1064700003FB0646A08C0F4609F0FEFA0022074BEC
:1064800009F064FB02460B463046394609F088FCA9
:1064900009F06EFD2083D0BDD80600200000F43F37
:1064A00010B5094CB4F80710A079FFF7C7FFA3682F
:1064B000B4F80D10054AC3F30F239384D184FFF77A
:1064C000D1FF0023236010BDDC0D0020D806002082
:1064D000837DDB0701D5808A7047D0E901239B1AB1
:1064E00044BF828A9B1898B270474369416CDA1D99
:1064F0001439B2FBF1F28069013203EBC2020430BD
:1065000000EB4200DA1CB2FBF1F203EBC2030333EF
:10651000B3FBF1F3023301FB03007047F7B5074605
:106520000E4600257C6CA819644280EA06031C40D4
:1065300003D02C46204603B0F0BDFB6B01225B6903
:1065400001A99847019B0133F4D10435EAE7000023
:1065500003460846EFF3108172B6DB6B014ADB6835
:1065600011601847D40D002000234FF0FF3230B5E2
:1065700044689C4202D10023037230BD016801EBE4
:10658000C30541F833206A600133F2E72DE9F04397
:106590004668002E45D0056898464FF0000CA94685
:1065A000AE4655F83C400CF1010CC4F3130701341E
:1065B00001D0B94217D0B4450EF1080EF1D12F46E3
:1065C000002403E0B44207F1080712D055F8343034
:1065D00001340133F6D1C1F3130141EA0851C7E98F
:1065E0000012BDE8F08341EA0851CEE90012BDE88F
:1065F000F083B8F1030F14D0002303E0B34209F194
:1066000008090ED055F833400133C4F30754032C66
:10661000F4D1C1F3130343EA0853C9E90032BDE8DA
:10662000F08301230372BDE8F08300BF4FF4003212
:10663000064B00209A6641F6713203F51C33DA638B
:10664000012203F50053DA60704700BF009000405C
:1066500041F671320121064BDA6303F50052D16035
:106660000022DA634FF40032A3F518339A667047BC
:10667000000003407047036813F07E0F03D14068A9
:1066800020F07C40704713F078001CBF03F07F03BC
:10669000D81F704737B5054601F10C04436901A9BD
:1066A000012220469847BDF8043001220093694634
:1066B0002046AB69984703B030BD202A0B681EBF47
:1066C0004FF0FF3191408B43590801F055315B1A6F
:1066D00003F033319B0803F033330B44017803EBB1
:1066E00013130A444FF0013103F00F334B43A2EB75
:1066F00013630370704737B5044600251B22011D44
:106700000DF107008DF80750FFF7D7FF63689DF87C
:106710000720B2EBD36F03D123F0784003B030BD34
:106720001B2204F108018DF80750FFF7C6FFA0688F
:106730009DF80730B3EBD06F0ABFC0434FF0FF3076
:1067400020F07840EAE74BF29A22036810B5B2EBEA
:10675000134F044613D19BB2012B13D1FFF7CBFF8C
:1067600001300CD04FF6FF72E068B2EB104F4FEAE9
:10677000104309D180B2C01A18BF012010BD236890
:10678000013303D00420F9E70220F7E70320F5E7FF
:106790000C4B10B50C4CE41A0C4B1C4424F4FF5465
:1067A00024F01F04FFF7A4FDA04202D800242046D5
:1067B00010BD2046FFF7C7FF0128F8D904F50054A3
:1067C000F0E700BF1000002018010020476301001F
:1067D000F0B50546002687B0EC69013CB44203D809
:1067E0000C46204607B0F0BD01B14C1E6F6C286806
:1067F000EB6B05225B6901A907FB0400984701A820
:10680000FFF7A1FF0128ECD921460136E4E7F0B5F6
:1068100004680646091B446C0025B1FBF4F487B0FC
:10682000F36930685A1E9542776C06D3716C3068F4
:1068300001FB0400143007B0F0BD0134B4FBF3F1E8
:1068400003FB1144F36B05225B6901A907FB0400FC
:10685000984701A8FFF777FF0128E7D90135DFE75F
:106860002DE9F04F144607460D469946C36B89B093
:1068700001225B6905A960689847FB6B01225B698F
:10688000284604A99847059B5A1C06D10020A360FE
:10689000A075607509B0BDE8F08F01224FF0000CC3
:1068A000A275227E049904EBC202D561A2F820C031
:1068B0006668C1F3D310AE4201F07F020BD14FF0F6
:1068C000FF3320602275A360237D043B022B25D873
:1068D0000020A075DEE726688642207D18BF84F878
:1068E00016C090421CBF0020A07503F07F00012855
:1068F0008CBF00200120012A8CBF0022012290427F
:106900001CBF0022A27511F07E0F03F07E0300F081
:10691000E980002BD8D10023A375D5E711F07E0FB5
:106920000FD1FB6B022228465B6906A9984706A88F
:10693000FFF7A1FE237D032B3BD8DFE803F03535BD
:10694000040904A8F4E7CC21227E04EBC2021184DE
:10695000664AD35C049E129A16F07E0B18BF00267E
:106960001370237E08BFC6F3C16604EBC3035FFA4E
:1069700086FAB3F8208083F822A0BBF1000F00F064
:106980008C8000231B2204A906A88DF81830FFF77D
:1069900094FE9DF81830049AB3EBD26F0CBF01231C
:1069A00000230422637594E0227E04EBC20210846B
:1069B000CEE7227E062B04EBC2021084C8D9012345
:1069C000C8E794F816B0BBF1000F00F08880B8F16A
:1069D000000F09D1DEB10123617EE37500293CD1AE
:1069E0009E4218D1667614E07B6CA818594285EA5D
:1069F000000C1CEA010F1CBF0021A175591E0140AB
:106A00005B1A984569D8A37D002BE3D167E0E37D4D
:106A1000A3B94FF0000B28F003002844104418F0ED
:106A2000030F7B6C18BF04305B4285EA00021342FF
:106A300003D029463846FFF7EAFEA060A27D12B1D6
:106A4000236943442361237E012B0DD80133237630
:106A5000B9F1000F0BD1A07D1CE7012EEED0BAF1E9
:106A6000030F08BFA376D4E70023A375F3E7002A3A
:106A7000F1D0E37D002BEED0BBF1000FEBD1032E64
:106A8000E9D0A1684B1CE6D0129B22460093384601
:106A90000123FFF7E5FEA075DDE7FB6B02225B69D2
:106AA00006A928469847202206A90DF10F008DF867
:106AB0000FB0FFF702FE1A2207A9FFF7FEFD9DF8AF
:106AC0000F30079AB3EB926F0CBF0123002308220B
:106AD0006375637D002B7FF474AF0023A3754FF0C3
:106AE000000BABE7002B3FF4EFAE14E7B002010060
:106AF00013B50C46002100932176134661682246A7
:106B0000FFF7AEFE18B1E37D03B1A07EA075A07DB6
:106B100002B010BD70B50025044686B00562E36979
:106B2000AB4202D8206A06B070BD666C2068E36B89
:106B300005225B6906FB050001A9984701A8FFF73C
:106B400002FE012898BF236A05F101059CBF0133AD
:106B50002362E4E7F0B5002504462E4687B0E369DA
:106B6000B34202D8284607B0F0BD636C27680522FF
:106B700003FB0677E36B01A95B693846984701A8D8
:106B8000FFF7E1FD012809D8204607F11401FFF7BE
:106B9000C5FC636C143B834208BF01350136DEE758
:106BA000F0B504460D46466CE36B006887B00522DD
:106BB0005B6901A906FB0500984701A8FFF7C3FD23
:106BC000012804D801A8FFF796FD07B0F0BD2946BB
:106BD0002046FFF7FDFD0646676C2068E36B052243
:106BE0005B6901A907FB0600984701A8FFF783FD31
:106BF000431CEAD0B54238BF0130E6E7074B9A6C38
:106C0000DB6C110A0270120C82701A0AC2701A0C24
:106C10001B0E417002714371704700BF0080E00F8E
:106C2000114BD3F8243103F00703013B052B18D88F
:106C3000DFE803F0030C11140A0F05230B4A00B11F
:106C4000026001B10B7070470623F7E70323084A7F
:106C5000F5E70423FBE70223064AF0E707230022B7
:106C6000EDE700231A46EAE700800040C0EA210170
:106C700000F04902002D31010D4BD3F8203103F013
:106C80000303022B0AD0032B0BD0012B0CD10523BD
:106C9000084A00B1026001B10B7070470323064A35
:106CA000F7E70223054AF4E700231A46F1E700BF9D
:106CB00000800040C0EA210100F04902002D3101AE
:106CC0000D4BD3F8403103F00303022B0BD0032B01
:106CD0000BD0012B0DD109234FF4004200B102600B
:106CE00001B10B7070470823F6E70B234FF47A725B
:106CF000F4E700231A46F1E70080004010B40D4C81
:106D00000B46D4F8204204F00304012C0AD0022CD4
:106D10000CD008B1002101600BB100221A705DF89F
:106D2000044B70475DF8044BFFF7A6BF5DF8044BBA
:106D3000FFF7C6BF008000404FF40032104B30B563
:106D40009A6641F67132A3F580531D6F03F5203327
:106D5000C5F3033505FB0000DC690A4DDA639A6868
:106D6000A84204F4803422F4401203D9012918BF48
:106D700042F480129A600CB10022DA6330BD00BF89
:106D800000900040005A62024FF400321C4B70B574
:106D90009A6641F6713301221A4D0446EE69EB639F
:106DA000194B0021DA600223686121202B6106F46F
:106DB000803609F011FA10B9212009F00DFA0122EC
:106DC000124BDA600EB10023EB63431C14D0A8B958
:106DD0000F4B9B680A3303F01F020123934023F0FB
:106DE000030323449C4201D1002070BD54F8042BBE
:106DF0000132F7D00748F8E70748F6E70748F4E715
:106E000000900040000003400010034000200340B9
:106E10000080E00F0EE000F021E000F024E000F040
:106E2000002070B5836AADF50C7DB3F5C04F05D376
:106E30004FF4017420460DF50C7D70BD1B6B002BCB
:106E4000F6D04FF40B725B6A01A9984704460028FC
:106E5000F0D1064640F20125B36AB3F5C04FE7D240
:106E60001B6BB3F5C04FE3D200219B6A01A8984782
:106E7000A842F1D040F20323984218BF0446D9E754
:106E800037B50446684680E80600251D03C885E836
:106E900005002373069B0B4A2361BDF81C30A382B7
:106EA00000232360136853B119461B68002BFBD1E4
:106EB0000C609088013080B2908003B030BD1460C7
:106EC000F7E700BF3807002037B50D461446FFF737
:106ED000A7F970B1036973B14FF6FE72818A9142CE
:106EE00009D1694601200095ADF80440984703B0E8
:106EF00030BD0120FBE70E20F9E7036937B51446E2
:106F00000D46828A63B14FF6FE718A4208D1002095
:106F100069460090ADF80400984728B103B030BD31
:106F20002B6000202280F9E7009B2B60BDF8043025
:106F30002380F3E738B50D461446FFF771F940B1E9
:106F400022462946FFF7D9FF10B92B6803B92080E4
:106F500038BD0120FCE7000007B50379054A01931D
:106F6000036806CA009308300223FFF789FF03B0C5
:106F70005DF804FB500301002DE9F04105469846F9
:106F800088B0036908460E4617469847002869D11D
:106F9000D8F804305B0A012B02464FEA530300F194
:106FA0000100F8D898F8034098F802302403DB0277
:106FB00003F4006304F480541C43B8F800304FF02D
:106FC0000008C3F30A032344540304F460441C443C
:106FD000294B6FEA0444039327F07843FF430DF1F4
:106FE00007001B2202A902938DF80780FFF765FBBB
:106FF0009DF80720029B02A943EAC26327F0784765
:107000001B22049302978DF80780FFF756FB9DF82B
:107010000720029B6FEA144443EAC26305934FF0D2
:10702000FF33012206930794AB6907A906F110000C
:10703000984701220446AB6905A906F10800984764
:107040000122404518BF0446AB6904A9301D98478A
:107050000122404518BF0446AB69304603A9984752
:1070600000B934B13146284608B0BDE8F041FFF719
:1070700011BB08B0BDE8F08101009AB2034B5A6D14
:1070800012B95865A3F85810704700BFD806002001
:1070900070B50C4690B9FFF755F958B1436B084DE0
:1070A00003F140062A4618685968083303C2B34200
:1070B0001546F7D1034B23600423A380002070BD45
:1070C0009C010020BC0100202DE9F0411646054638
:1070D000FFF7FEF9B04228BF304686B20F46B046F1
:1070E000B8F1000F09D12EB1AB7DDA0744BF23F010
:1070F0000103AB753046BDE8F0812B68AC8A696846
:107100001C44641AA4B2444528BF4446384622466B
:1071100008F086FF6A682B68A98A224419448A42CB
:1071200038BF13462744A8EB04041FFA84F86B60A9
:10713000D6E7F8B51F46038A04461646EBB9C57D67
:10714000DDB10123013D0B700222C57500F1100174
:10715000FFF7BAFFE37D9BB1228A3146BA4228BFCE
:107160003A462046FFF7B0FF238A1B1A2382E37DAD
:1071700013B9638A1B1A6382F8BD00230B70EBE717
:10718000638A2382E8E72DE9F04104460F46114661
:10719000FFF79EF9A38A181A86B28E4228BF0E46C0
:1071A000B046B8F1000F0BD13EB1D4E901329A429A
:1071B00002BFA37D43F00103A3753046BDE8F08113
:1071C0002368A58AA0681D442D1AADB2454528BF85
:1071D000454639462A4608F023FFA2682368A18A5B
:1071E0002A4419448A4238BF13462F44A8EB0505A8
:1071F0001FFA85F8A360D4E7F8B5044616461F4683
:1072000011B3FFF765F9A58A281A80B2012829D998
:10721000E37D63B1E068658A05702D0A07D02268B6
:10722000A38A01301344984228BF1046F4E7002394
:107230006382A3680222E360204604F11201FFF793
:10724000A2FFE37D0133E3753A4631462046FFF75E
:107250009AFF638A03446382E37D13B9238A03445C
:107260002382F8BD0020FCE710B5044644EA010380
:1072700013F00303084609D1934201D1002010BD49
:1072800054F8231040F823100133F5E7214692000B
:1072900008F0C6FEF2E7000013B504460379124A6F
:1072A0000333019300F14403009306CA0223143010
:1072B000FFF7E6FD94E80600238A04F12C00019311
:1072C000E3680093237AFFF7DBFD237A22792168B4
:1072D000A4F8450004F1470084F8443002B0BDE84A
:1072E000104008F09DBE00BF4803010070B50C4B74
:1072F0000C4C06460D46D4E9010183E8030018460C
:10730000FFF72AFED4E904010222074B1A7283E830
:107310000300DE601D821846BDE87040FFF7BCBF69
:10732000941300208C0201002005002038B5202293
:1073300004460D460C30002108F07FFE4FF0FF336D
:10734000C4E90035A36038BD2DE9F04F0F462DED9F
:10735000028B002589B004464FF0FF311046C7F379
:10736000130B904699468DF80B50FFF7DFFF5F45F2
:107370006AD12B46E1688B420DD0A26802EBC300B4
:1073800052F83320561C0FD0C2F3130293450BD191
:1073900041684D1C0AD1237C002B57D1464809B0C7
:1073A000BDEC028BBDE8F08F0133E4E74046FFF708
:1073B000BDFF0122414620460DF10B03FFF798FB6C
:1073C0000028E8D09DF80B3089F800300020E6E76F
:1073D0002068361A606CB6FBF0F63FE05046FFF7C7
:1073E000A5FF18EE102A514620460DF10B03FFF7BA
:1073F0007FFB8446B8B1B91C03D0DAF80030BB4239
:1074000011D145469DF80B30DFF8B0E089F8003027
:10741000BEE80F000FC5BEE80F000FC59EE80700CD
:1074200085E807006546DAF8081032E0002DB5D08F
:107430005F45CBD1394699F80030D8F8042004F1E3
:107440000800FFF7A3F8C1E7BB1CA4D1E66A701CD3
:10745000BED12046616AFFF7BBF90646BB1C18BFC8
:10746000012308EE103ADFF854A0636A25680193FF
:10747000636C03A903FB0655E36B05225B69284691
:10748000984703A8FFF75FF905F114031946002593
:1074900000934A1C05D0636C009A5B424A40134239
:1074A0009CD031462046FFF793F9019BB342BDD0F3
:1074B000002DBDD10646D8E70BE000F0F00E00200D
:1074C0002DE9F04F4FF0FF3300258B464FF6FF714B
:1074D000044600F10806C0E9091387B0C3620562DB
:1074E00005633046FFF740F82046FFF713FB0028FE
:1074F0005BD14FF6FF79D4F824800027C84514BF2C
:1075000045460025E3699F4252D32046FFF702FB20
:10751000002833D1B34D2046FFF71CFB06E123685A
:10752000E26B606C576900FB0530052201A9B84782
:1075300001A8FFF708F90128074603D0C31EDBB2F4
:10754000012B12D829462046FFF72AFB0246012FBD
:107550002168676CE06B434607FB051108BF0132E9
:10756000FFF70AFD2046FFF7D5FA0135E3699D4292
:10757000D5D32046FFF7CEFA0028BAD000254FF029
:10758000FF384FF6FF73C1462F46C4E90853E3693D
:107590009F423FD3A5EB0805012D5ED84FF6FF7241
:1075A000636A93426ED1904DB5E704F14008DDE780
:1075B000636CE26B2068D2F814C003FB050005225F
:1075C00001A9E04701A8FFF7BEF802280FD0C8457F
:1075D00015D10BF10102606C216804F1400300FB3E
:1075E0000511E06BFFF7C8FC2046FFF793FAE3694B
:1075F0000135B5FBF3F2013703FB125582E729464B
:107600002046FFF7CDFAB0F1FF3F14BF02465A46BD
:107610000132E0E7636CE26B2068D2F814C003FB30
:107620000700052201A9E04701A8FFF78CF8824670
:1076300001A8FFF760F8BAF1010F0CD8484538BF30
:107640006762804528BF8046854238BF054681462F
:10765000236A01332362013799E74FF6FF73002550
:107660006362E3699D4299D2676C2068E36B0522EF
:1076700007FB05005B6901A9984701A8FFF73BF8E4
:107680000135EEE7E26B676C2068556907FB030084
:10769000052201A9A84701A8FFF72DF8626A616CCD
:1076A0002368524D01FB02331433A3624FF0FF33C2
:1076B0002A46E3626FF0010120460DF10303FFF754
:1076C00043FE002836D1AD6829462046E562FEF724
:1076D00025FF206320B92046E16AFFF798F8E062B1
:1076E00029462046FFF793F80546A36A9D4223D119
:1076F0006369656C2046A5F11402DD1CB5FBF2F54B
:1077000003EBC5050335B5FBF2F5FFF723FA0235A8
:10771000A84280463ED22046616AFFF759F800270A
:10772000064604F1400AAF4218D3314D284607B04F
:10773000BDE8F08FA56AC7E729462046FEF7EEFEB2
:10774000236B29460344074623632046FFF75FF86F
:107750000546002FC9D1C4E90B07C6E7474512D338
:10776000626C236801A902FB0639E36B05225B69A1
:107770004846984701A8FEF7BEFF534602464946D1
:10778000E06BFFF7F9FB31462046FFF721F80137A0
:107790000646C8E73046FEF7E7FE164DA16AE36AE3
:1077A000994201D04B1C01D10025B4E62846FFF7D1
:1077B000BDFD0122294620460DF10303FFF798F98C
:1077C00030B1D5E9001230469DF80330FEF7DEFEF9
:1077D000A9684A1CE3D169682046FFF718F80146FA
:1077E000DDE700BF03E000F016E000F0C40E00206B
:1077F00013E000F01C0F00202DE9F74F89464FF4ED
:1078000000314FEA820A324A324D9166EA6901211B
:1078100002F4803341F671320093EA632E4A8046C7
:10782000D16083464A4657460FB938462EE00BF5DD
:10783000005424F4FF5424F01F04C5F814B0A4EB42
:107840000B04E969BC4228BF3C46490739D41646B7
:1078500056F8041B2244A96196420ED1042200214D
:1078600021202A6108F0B8FC80B9212008F0B4FC7E
:1078700060B93246A3443F1BD6E70821084601926F
:1078800008F0AAFC019AC0B104232B610122134B1A
:10789000DA60009B13B100220E4BDA63431C13D055
:1078A000A0B952464946404608F0D8FB00280C488B
:1078B00008BF002003B0BDE8F08F56F8041BA96193
:1078C000CAE74FF0FF30E1E70648F3E70648F1E783
:1078D00000900040000003400010034000200340DF
:1078E00010E000F021E000F024E000F02DE9D34F9B
:1078F000DDF8289004460F4690461E46BDF82CA0A1
:10790000FEF78EFC8346BBF1000F01D0BC4205D9C7
:107910004FF6FF74204602B0BDE8D08F9BF80830C8
:107920009E421CD132464146DBF8040008F096FB2B
:10793000A8B9B9F1000FEDD058460DF1020201A926
:10794000FFF7DBFA58B9019949B1BDF80230534548
:1079500005D15246484608F081FB0028DAD00134B0
:10796000DBF800B0A4B2CEE738B50C461146256866
:107970000144AD1A2A4608F081FB256038BD00009D
:107980002DE9F84F07EE901A4B4B4C49DFF84C911C
:107990005B1A4B49D9F800600B4423F4FF53A0EB6A
:1079A0000608DFF83CA123F01F039845054614465E
:1079B000CAF800807DD38718FEF7EAFE08B9FEF703
:1079C00097FC874272D8D9F800000719B7F5806F85
:1079D00003D982223B4B1A7066E0DFF8FCB02246E6
:1079E00017EE901A584408F01BFB374BC9F800708B
:1079F0001A6822B9332F57D9DBF834201A60186877
:107A000008EB070480451ED884421CD900F11003FE
:107A10009C4249D30644751B5D442B462B4A05F115
:107A2000100153F8040B8B4242F8040BF9D127489C
:107A3000FEF766FC10B98422224BCCE71022FF210E
:107A4000284608F0FAFA224D224B07F0030728686F
:107A5000E41B1C4058B908EA0300C0F5005121445A
:107A6000FEF738FC2C6040B18522164BB3E7A042EC
:107A700003D2211A00F50050F2E7D9F80020164988
:107A8000D21BDAF80000FEF717FC0446D9F80020F4
:107A9000DAF80030D21B134410490F48CAF80030FE
:107AA000FFF762FF002CDFD1BDE8F88F8322054B82
:107AB00091E78722034B8EE7180100201000002079
:107AC000476301007D0B00200C0E0020FC0D002000
:107AD0004C13002000E0FFFF480F00204813002057
:107AE000800B0020002337B5114C0093437A60606F
:107AF000D0E90021206802F002FF238CDB050CD5C1
:107B000063680C4D1B7A2A789A4206D0012B06D066
:107B1000022B08D063681B7A2B7003B030BD20683D
:107B200002F0C2FEF6E7206802F0C4FEF2E700BFF2
:107B3000501300203507002013B50D4B01281B8B77
:107B40000C4CADF80430ADF8003002BF02238DF8C4
:107B50000430042301A9206808BF8DF8003002F02A
:107B6000D3FD6946206802F0E5FD02B010BD00BFFC
:107B70008C020100501300200022034B03211A61E4
:107B80001868012202F0E4BA501300201FB5022346
:107B90008DF80630064B5A8B59690332ADF8042034
:107BA00018686A4602F03EFE009805B05DF804FBD6
:107BB0005013002010B51E4C1946236986B023B31C
:107BC000A2F10800084322D1032101AA206802F093
:107BD00025FE636860615B7A022023769DF804309D
:107BE00004F11801DA1F53425341627E63F300022D
:107BF000039B6276E361BDF806306383236998478F
:107C000001220021206802F00FFE06B010BD02F133
:107C10007F40014305D10021012006B0BDE810409E
:107C2000184712F4A0411ABF00210320FF20F4E7F7
:107C300050130020F0B5194C194D87B0637A2046D7
:107C40000133DBB2272B88BF25236372FFF74AFF7E
:107C5000627D4FF40073134902322868E768667C3E
:107C600002F0BDFD6B68104A5B7A06F00106D15C3C
:107C700030460391FFF760FF01230022059303992B
:107C80002868009204AB049702F066FA10B1FFF77F
:107C900073FFD3E7054B2B6107B0F0BD3401002023
:107CA00050130020480100201D0301009999000095
:107CB000EFF3108072B67047044B054A9A60D3F810
:107CC000882042F47002C3F88820704700ED00E07D
:107CD0000060000000487047C0EA2101084B1B6F9C
:107CE00003F00703022B04D0032B04D0012B04D094
:107CF000FEE704487047044870470448704700BFD7
:107D000000800040C0EA210100F04902002D31014D
:107D100008B5FFF7E3FF044B1B6FC3F303330133D5
:107D2000B0FBF3F008BD00BF00800040114B10B560
:107D3000D3F80032044603F00703013B032B16D8A7
:107D4000DFE803F0020A0C1009224FF4004004B1EE
:107D5000206001B10A7010BD0822F6E70B224FF433
:107D60007A70F4E7FFF7D4FF0E22800AEFE70022D3
:107D70001046ECE700800040B0F5807F07B50ED0DC
:107D8000B0F5C07F06D080281DD103B05DF804EBAC
:107D9000FFF7A4BF03B05DF804EBFFF7B9BF002302
:107DA00001934FF0E0231B695B0706D5FFF7B0FF97
:107DB0000190019803B05DF804FB0DF1030101A8E7
:107DC000FEF77EFFF5E70020F4E70000004870476B
:107DD00000F0490208B5FEF711FA7047FEE700000F
:107DE000420910B510D0012A10D00B4B0B4C022ABF
:107DF00018BF234600F01F0051B103F58053012244
:107E000002FA00F0186010BD1346F3E7044BF1E7E7
:107E100003F50053F3E700BF688000406082004034
:107E200064800040002307B5B0F5807F8DF80230F4
:107E300000F096802AD8382800F0AE800CD824387C
:107E400083B2092B10D809280ED8DFE800F083830D
:107E500083830D0D700D399D52287BD009D83D28A4
:107E60003ED03E2800F09E809DF8020003B05DF8F1
:107E700004FB8028F8D14F4B1B6F03F00703013B35
:107E8000032BF1D8DFE803F0514B4F86B0F5D06FEC
:107E90007AD01BD8B0F5A06F7ED00BD8B0F5806F2C
:107EA00058D0B0F5906FDFD100200DF10201FEF740
:107EB000B7FED9E7B0F5B06F39D0B0F5C06FD3D108
:107EC00000200DF10201FEF7FBFECDE7B0F5006FDB
:107ED000EAD013D8B0F5E06F64D0B0F5F06FC3D13D
:107EE000344BD3F8603103F00303022B5ED0032B35
:107EF0005ED0012B14BF0023092311E0B0F5086FF9
:107F0000B2D12C4BD3F8003103F00303022B4DD038
:107F1000032B3FD0012B14BF0123032300E00523D3
:107F20008DF80230A0E70323FAE70223F8E70021E7
:107F3000204B0191D3F8803103F00303012B04D0CF
:107F4000022B14BF0B460223EAE701A8FEF794FEBA
:107F50000F23E5E700200DF10201FEF78DFE83E718
:107F600001934FF0E0231B695B0707D5FFF7D0FEB5
:107F70000C238DF803309DF80330D1E70DF1030198
:107F800001A8FEF79DFEF6E700200DF10201FFF7C4
:107F9000CDFE69E70723C3E700200DF10201FEF7DC
:107FA000ADFE61E7034BD3F840329CE70823B7E707
:107FB0000B23B5E70080004000B962B670470000AF
:107FC0002DE9F04106460D4614460C4F0CB9BDE8AC
:107FD000F081EFF3108872B623462A4631463846C0
:107FE000FFF70AF903464046FFF7E6FF002BEDD006
:107FF000E41A0026A4B21D44E8E700BFB80C002034
:10800000002313B501F1080421461A46ADF80430E7
:10801000ADF8060051F8080C083170B90BB1ADF895
:108020000420042201200DEB02010834FFF7C8FFF1
:1080300054F8101C39B902B010BD51F80C3C1A4468
:1080400092B20123E6E7002034F80C2CEDE70000A3
:108050007FB500230130CDE9043380B2054BCDE973
:1080600001016946042000930392FFF7C9FF07B09E
:108070005DF804FBE201002038B501464FF04023D3
:10808000D3F88420D206FBD4D3F88430C3F3811311
:10809000994228D0FFF722FE0129044601D1FEF7BC
:1080A0004BFEEFF3108072B64FF000750E4A4FF0A2
:1080B000402355664FF480624D1EAA401A675A6EDF
:1080C000950103D4D3F88420920609D5FFF774FFF5
:1080D000022908D12046BDE838400021FEF72CBE19
:1080E000D3F88420EBE738BD0060004008B5C368D2
:1080F00000209847024B1868BDE80840FFF75CBFB6
:10810000D40D00202DE9F04FDFF8E8A287B09AF8EF
:10811000003006468946009203F0FF089BBBFEF73D
:1081200037FB0746FEF7E4F877B1A94BA94CD3F823
:1081300000B0C3F8008094F83430A0F50055ED1B72
:1081400053B323689F4206D000264046009B1E7012
:1081500007B0BDE8F08F63689D42F5D1A2689E4BE1
:108160009A42F1D1E368062BEED140F26C7362695A
:108170009A42E9D1E26B994B9A42E5D1C4F8188052
:1081800001238AF80030934F97F83430002B40F0E9
:1081900083800026B046D8E7A36B4022414604F115
:1081A0001000019307F049FF019B04F10800A3634D
:1081B00040F26C736361884BC4E90075A3600623C9
:1081C000E360FEF7D1F9854B04F14000E36301F071
:1081D000E5FE00285ED1636C13B16268B2FBF3F375
:1081E00094F84320E361002AAED0656C002DABD03B
:1081F000002BA9D02368B3FBF5F205FB1233002B4B
:10820000A2D16768B7FBF5F305FB1373002B9BD175
:108210007048FEF76AF9874296D340F63472636974
:10822000CC3B934290D8B5F5007F8DD303216948AC
:10823000FEF78EF9D4E90001E36B1B689847054609
:10824000E36B0220DB689847C5B959466148FFF7E0
:1082500037F9634B0546984204D159465D48FFF70C
:108260002FF9054655B9636C276A143B59485F439B
:10827000FEF73BF95B4B874238BF1D46B5FA85F3E5
:10828000E06B5B0984F83430FFF730FF002D3FF4DA
:1082900077AF59E74346A3E7DFF84CA10121384601
:1082A00046F48025FEF754F952462946384604AB79
:1082B000FFF74AF8044600283AD19DF81030032B06
:1082C00036D0022B37D0DAF81060F86BFFF70EFFCC
:1082D000002C7FF45EAF009B1B78B342FFF459AFD4
:1082E00097F83480B8F1000F3FF453AF01213948BB
:1082F000FEF72EF929463C4A36480DF10B03FFF7ED
:1083000023F8054660B99DF80B30012B74D1DAF8DB
:108310001030B34276D13546DAF804A0FB6B65B96C
:10832000F86BFFF7E3FE002D7FF433AFF6B20CE7F6
:1083300000262E4CC9E70426C7E701225B6903A982
:10834000504698472849039B0968C3F3D3129142CA
:108350003BD113F07E0F2CD003A8FEF78CF94FF021
:10836000040BA84228BF284603280446D344A5EBA3
:1083700000050BD9FB6B49465B6982085846984754
:1083800024F003039B4404F0030499445CB1FB6BA9
:1083900001225B6904A9584698474846224604A929
:1083A00007F03EFEA14451460A48FEF730FA8246E5
:1083B000B4E7FB6B02225B69504604A9984704A806
:1083C000FEF759F94FF0080BCBE7094DA8E700BFBE
:1083D00014040020480E0020100E002000030100AD
:1083E00013E000F002E000F0980E00200BE000F037
:1083F00022E000F0400E0020034D0448022B18BF7D
:1084000005468DE7024D8BE70CE000F00BE000F035
:1084100011E000F000239A6A10B5B2F5C04F0DD2FA
:10842000EFF3108072B6064A11781370FFF7C4FD9F
:1084300021B1BDE810409B6A1B6A184710BD00BF00
:10844000D80D002001282DE9F34740F03D818B88AD
:10845000012B40F03B810B681C7814BB9D4B9E4D5B
:108460001C609E4B1C609E4B1C609E4B1C609E4B78
:108470001C609E4B1C709E4B1C609E4B1C602B789E
:10848000022B01D1FFF7C6FF01232B7000239A4A6C
:1084900013709A4A13709A4A1370204602B0BDE8CE
:1084A000F087032C40F0FE80954BDFF82C921C786F
:1084B000002C40F0888099F80030002B00F0E68016
:1084C0008A4B1B78082B40F08280DFF80882D8F8AE
:1084D000000068B900239B6AB3F5C04F5DD34FF429
:1084E000017041F20804A0420CBF862480246AE097
:1084F00010F003060EBF2646C6F10406F6B200EBE6
:10850000060ABAF5806F00F2C7807E4B3246FF2123
:108510001844774F07F091FD7B4A3B6812680AEBDD
:1085200003019142C8F800A000F2BA806B4A1568B6
:108530001D445544DFF8B0A125F4FF55DAF80000DA
:1085400025F01F05854207D9291A00F50050FDF7CF
:10855000C1FEE8B9CAF800500020836AB3F5C04FE5
:1085600018D21B6BB3F5C04F14D21D69654AD8F8F9
:1085700000303968A84705463B68D8F800205549BF
:1085800013449E1B5F483E60FFF7EEF9002DA1D01B
:10859000852418E04FF48175EEE7FEF741FC0028D2
:1085A0009FD1836A0190B3F5C04FF1D21B6BB3F535
:1085B000C04FEDD201219B6901A898470028E7D15F
:1085C00001224E4B1A70002389F8003065E7002B1A
:1085D0005ED0494B1B78002B5CD0464E336843B9C4
:1085E000404B102249491868FDF766FE0028EAD082
:1085F000CEE713F003021CBFC2F10402D2B203EBB8
:108600000208B8F5806F47D84148FF21184407F0A9
:1086100014FD404A404B324F9B1A404A3D68134478
:1086200023F4FF5323F01F03AB42C6F8008035D874
:10863000A844FEF7ADF808B9FDF75AFE80452FD8DB
:108640003368DFF8A4801D44D8F8000025F4FF55F6
:1086500025F01F05854208D9291A00F50050FDF7BD
:1086600039FE002894D1C8F800503268284938688B
:10867000FDF722FE05463B6832681E491344244834
:108680003B60FFF771F9002DAAD081E781249AE7BA
:10869000842498E7802496E7822494E7872492E74D
:1086A000832490E7042C13D1132302211C48437028
:1086B0000170FEF7E3FC1B4A1B4B128905329A80BE
:1086C0001A4A1A6042789A710024E6E60D24E4E61C
:1086D0000624E2E6780B00207E0B0020F413002035
:1086E000800B00200C0E00204C130020DC01002029
:1086F000840B0020481300207C0B0020E90100209F
:108700007D0B002078070020F8130020FC0D0020CE
:10871000480F0020100000201801002047630100CE
:10872000F00D0020D8060020DC0D00209D9E0000EA
:1087300000239B6A10B5B3F5C04F0ED2EFF3108043
:1087400072B60121054A13781170FFF735FC23B981
:10875000BDE810409B6ADB69184710BDD80D0020AA
:108760004FF040232DE98048D3F89430A5B05E0641
:108770001BD44FF0005300251CA81D60FDF778FDA9
:10878000FDF7E0FDC0B1446BFFF7D2FF1E9B13F075
:10879000040600F0BB81FDF7D5FDAB6AB3F5C04F11
:1087A000C0F0E181FFF736FE06E04FF000531A6893
:1087B000022ADED100221A60BFF34F8FBFF36F8F02
:1087C000B14BB2485A6AB24C22F480325A62D3F8A2
:1087D0009420844222F00102C3F8942008BF4FF095
:1087E0008042D3F8C0101CBF20F01F02203A21F0B5
:1087F000FF0141F0A001B2F1005FC3F8C0100CD33B
:10880000A44DA54E296842F00102C3F89810013129
:10881000C3F89C60C3F8A0202960844210D09D4812
:108820009E4B0268984923F01F0343F00303C1F8ED
:108830009820C1F89C309A4B0132C1F8A0300260F8
:10884000BFF34F8FBFF36F8F05228F4BC3F8942078
:108850005A6A42F480325A62BFF34F8FBFF36F8F70
:10886000904B1B68C3F30743012B0ED18E4B0420A2
:108870005A6E4FF480238D49550358BF8C4A4B667E
:1088800001F51041086258BF536601204FF00047C0
:108890004AF6CD344FF040224FF0070C834E854D01
:1088A000854B77666860596C1C64C2F83CC09A6856
:1088B000014022F0740242F044029A6040F2091230
:1088C0001A6140F203125A61776668605A6C1C6440
:1088D0009C680240E40700F14E810124774844601F
:1088E000002A40F04E8111B1734B754A1A64802002
:1088F000FFF798FA032842D04FF400226B4B022175
:108900005A6645F60E0203F54053C3F880206D4ABF
:108910009162012102F5805291629A6DD703FCD4D5
:10892000694A1A619969694A01F000410A439A61EA
:108930001A6A22F00D021A629A6A22F0330242F099
:1089400001029A62624B634A996D32EA0101FBD1DE
:1089500002225C498A621A659A6D5600FCD41A6933
:1089600022F4700242F400121A614FF00042554B9B
:108970009A61022203F580539A6201229A624FF4AF
:1089800000230122494E484D7366514B02209C6AD8
:1089900003F580539A62FFF76FFB4F480021FEF703
:1089A000CBF92B6F04F0020443F480632B674FF480
:1089B000803333672B6F23F0070343F003032B67E8
:1089C000FFF7A6F94FF04023D3F8841011F01001FF
:1089D000FAD1D3F88430C3F38113C3F10203002B1F
:1089E000C8BF0121FEF7A8F9FFF778F90220FFF7C9
:1089F00043FB4FF4C070FFF7BFF938492A4A884259
:108A000094BF00200120136F23F4806343EA802386
:108A100013678020FFF7B0F9314B98429EBF4FF4A7
:108A20008032234B1A6714B901222E4B9A6201211E
:108A30003020FFF7D5F910221B4B2B4D9A66C3F857
:108A40008012184B69601B6C04242B66002306AA55
:108A5000352008A908938DF81840FFF753FB06232B
:108A6000089A8DF8164012F4803F8DF8173009AC43
:108A700040F0FA8221462C200DF11702FFF742FB4D
:108A8000002800F09A8031E000ED00E0BC000020FA
:108A90001001002090130020030000202F0100206F
:108AA000E1FFFF3F0080E00F0080004000900040A9
:108AB00000A000400050094000400940006009400B
:108AC0003254FFFF00D000402008B00B3C8C8C03D8
:108AD00000C000400300014000B4C40480F0FA026A
:108AE000005A620200E0004000C001A83C200DF1E5
:108AF000160207A9FFF706FB18B19DF81C0000F04D
:108B000001009DF82A3060F3000352E0002C3FF48E
:108B100049AEFDF7EDFB8442BFF444AEFDF7E8FB40
:108B200004F1400383423FF63DAE2046FDF7E8FBEB
:108B300000283FF437AE63696BB9FFF76BFCFDF7B4
:108B400001FC0446FDF7FEFB0F4B986023689D4631
:108B50006368984730E69DF87030012BEDD1FDF742
:108B6000F1FBB36A1AE65B6A98470446FFF752FCCA
:108B7000002CE4D120E6054CA060D86AC007FCD5E3
:108B8000ABE6034A1A64AEE600ED00E0006009407F
:108B90003254FFFF296E02F8011B013BFAD29DF807
:108BA000293063F03F038DF829309DF82A3043F0D7
:108BB00001038DF82A30C24B5C6000244FF48071B1
:108BC000C04BC14A5961C3E900229A601C82BF4B65
:108BD000BF4A5961BF48C3E900229A601C8201F074
:108BE00011FABD48BD4B21460360BD4BBD4E4360ED
:108BF00001F088FAB0A3D3E900233060CDE9002367
:108C00004FF0FF334FF0FF3201F096FD02224FF09C
:108C1000FF31306801F095FD3C2394221E93CDE98D
:108C20001C329623B04D1CAF39463068CDE9204444
:108C300022941F9301F050FB294630682C7001F0FC
:108C4000A8FD28B10123294630682B7001F0A1FD51
:108C50009B4C306801F025FEB4F90020297830687B
:108C600001F0E0F90146306801F080FD6468DFF84A
:108C700004A3002C40F0FA815046FDF7BFFFB37B00
:108C800064F30003B3731022984B994C83F82123AB
:108C9000002183F8222304F1080083F8262383F8B7
:108CA000252383F8232383F8202383F824235C22BD
:108CB00007F0C3F942F210738E4DE3608E4B8F4A7A
:108CC000C4E9005342F2015323814FF4907333847B
:108CD000012313701B224FF00008894DDFF8989292
:108CE0002A803E2005AA0DF11501C9F800808DF8F3
:108CF0001430FFF707FA58B19DF81530CDF87080A1
:108D00003946C7F8048030688DF8723001F016FDDE
:108D100011230DF113020FA936208DF81330FFF740
:108D2000F1F92023394639200DF112028DF8123065
:108D3000FFF7E8F980BB734B9DF8132018681B7987
:108D40001C903B71002A00F09A811B2A28BF1B222D
:108D5000531D8DF812300FA9531C0DF175008DF8BD
:108D6000733007F05DF914A8FDF748FF664A9DF8D7
:108D70001230128824A9FA529A1C51FA82F2002168
:108D8000149802F8201CBDF85410093342F81F0C47
:108D900022F81B1C8DF8123020233A200DF111020D
:108DA00014A98DF81130FFF7ADF948B9574B5A8B1C
:108DB0001B7FADF850208DF8523003238DF8113011
:108DC00000224FF00208524B5248C3E90022524B96
:108DD00080F804800360FEF7BFF85048504B80F8DD
:108DE0000480036010230372FEF756FA4D484E4B81
:108DF00080F8048003604D4B80F80880C360A0F8C1
:108E00001080CDE90038434690E806001430FEF7A4
:108E100037F89DF81310002900F03C810FA84FF09F
:108E20001008FEF763FA4248424B80F80480036062
:108E3000FEF792F84048414B4FF6FE7B0360082353
:108E40003F4A0372C260A0F810B080F80480FEF7B9
:108E500023FA3C483C4AA0F810B002600C2202728F
:108E60003A4A4FF0020BC26080F80480FEF714FA11
:108E700008233748374A03820260374A80F8048063
:108E8000C26080F808B0FEF707FA3448344B80F827
:108E900004800360334B80F808B0C3600123038271
:108EA000FEF7FAF93048314B80F804800360304B0C
:108EB00080F808B062E000BF0855005100000000D3
:108EC000EC010020B80C0020D00C0020A00B0020EA
:108ED000B80B00205803010080130020B57B000070
:108EE00074130020501300201200002000E100E065
:108EF00034010020D6BE898E55555500D00D002076
:108F0000DE010020F9010100030201008C020100D2
:108F100038070020B4130020060201007805002065
:108F2000090201004C0700200C020100AA02010006
:108F3000D41300200F020100D00500202002010000
:108F40004584000028060020310201002994000019
:108F50007004002042020100B702010080060020D8
:108F6000530201001C030100C80400206402010038
:108F70009D6200005813002010040020C3604FF6CB
:108F8000FE730382FEF788F9A648A74B80F8048099
:108F90000360A64B80F808B0C3604FF6FE730382EF
:108FA000FEF77AF9A24BA34A1A604FF6FF729A8035
:108FB0009DF81220202A05D8931D39469E486375D6
:108FC00007F02EF89DF81120202A06D8931D9B4803
:108FD00084F83D3014A907F023F8FEF7CDFD227C7C
:108FE000617CB2FA82F35B0963F30001237D617453
:108FF00062F30303B27B02F0010262F3861323756E
:10900000637D0BB906236375BAF804108C4BB06806
:10901000C4F816009980042194F83C3061F30303EE
:1090200062F3861384F83C3094F83D3013B906237C
:1090300084F83D30B068BAF80420824BC4F83E0092
:109040009A80FEF7F7FD804E804B1B782BB1DFF83E
:109050000C824046FDF73CFAF8B97D4A136923F0CB
:109060000403136130BFEFE7224696E52068B06045
:10907000A288A379AAF804208AF8063003E6082318
:109080008DF81230734B1A889B78ADF875208DF8E7
:10909000773068E603216F48C1E6EFF3108472B6BB
:1090A000002340461A460DF11901FEF742F820460A
:1090B000FEF782FF9DF8193013B10023C9F8003084
:1090C000D9F80020EFF3108472B6C2F501739BB299
:1090D000404632440DF11901FEF72BF803462046B5
:1090E000FEF76AFFD9F8000018440328C9F8000009
:1090F000AFD93488231D9842ABD306D8708800239B
:10910000042806D0062800F07D810023C9F800302D
:109110009FE7327904F1FF3A122A6B801FFA8AFA2C
:1091200018D8012A19D9931E4B4F102B15D8DFE8F8
:1091300013F0160014002C00140045001400F60073
:1091400014009900140014001400140014002301EA
:109150001400C900522A00F0CF800622A9E0BAF11B
:10916000020F40F04D81B6F805400022B4F5007FB3
:1091700028BF4FF400740323114650463B70A7F8F4
:109180000140FEF765FF2C80BFE7BAF1040F40F005
:109190009080B6F80540A0B2FDF742F858B1027AC7
:1091A0000521022A0CBF01230223397041687B701C
:1091B0007C80032075E06C800A227AE0DFF8A0B0A2
:1091C000073CA4B20194CDF800B00223B6F8071012
:1091D000B6F80500ABF10202FEF788FB4FF6FF7A06
:1091E0005045044604D17368C3F30F236B80E3E753
:1091F00000230130CDE9003351460223ABF10202D6
:1092000080B2FEF773FB072350451CBF00F1FF300F
:1092100080B23B70A7F80140A7F8030000220420A9
:1092200011463EE018040020750201009170000014
:10923000400700203807002050010020780100205E
:109240004A010020720100200C0200203407002097
:1092500000ED00E0FF010100E2010020A00B002072
:1092600017020020BAF1020F40F0CA80B6F80500DC
:10927000FCF7D6FF00283BD0037B990714D52B8839
:109280000DF11A02013BADF81A30B6F805000BA932
:10929000FDF750FE024640B90B23BDF81A200B998A
:1092A0003B70FEF7D5FE30E752467368C3F30F23D9
:1092B0006B800124584B307969881C705870598034
:1092C0001A71ABE7B6F80500FCF7AAFF80B1037B83
:1092D0001A070FD5E21E92B25049B6F80500FDF705
:1092E000F3FD02460028E0D1132301463B70D8E786
:1092F0000122DAE70322D8E7B6F80500FCF790FF71
:1093000000283FF402AF037B5B077FF5FEAEE21E51
:109310004249B6F8050092B2FDF7D6FDF5E6631FA7
:109320009BB2022B01D0102B6AD10022CDE9002282
:10933000DBB23B4AB6F80710B6F80500FEF7D6FADE
:109340004FF6FF73984204463FF44DAF2B880DF162
:109350001A02043B0BA9ADF81A30FDF7EBFD0246EB
:1093600008B16C80A5E70923BDF81A203B70931C57
:109370000B997B707C801CE7631F9BB2022B01D092
:10938000102B3DD14FF0000ACDE900AADBB20393C8
:10939000234AB6F80710B6F80500FEF7A7FA4FF60D
:1093A000FF7B58450446039B3FF41DAF01305946EF
:1093B000CDE900AA1A4A80B2FEF798FA82462B88B5
:1093C000584518BF00F1FF3AA3F106030DF11A0248
:1093D00020460BA918BF1FFA8AFAADF81A30FDF71C
:1093E000A9FD02460028BCD11123BDF81A203B700C
:1093F000131D05200B997B707C80A7F804A050E713
:10940000042256E7CDE90D33064B0BA90B9302233B
:109410000C93FEF7F5FD78E6E20100201302002030
:1094200015020020100000202DE9F04F012891B016
:1094300004D00024204611B0BDE8F08F8A88002AAD
:1094400000F0C781A24F97F800A0BAF1000F00F01A
:10945000C281A04D2C78002CECD1DFF8A8B29BF88B
:109460000040002CE5D19C4E306802EB0009B9F5B4
:10947000806F02D982242C70DCE7DFF874820968DF
:10948000404406F0CDFDBAF1020FC6F8009032D08C
:10949000B9F1030FCDD99148FCF7EAFE0378D8F86B
:1094A0000020012B3DD14368190E012903D1C3F3DC
:1094B00007430A2B3DD98A4B9A4240F0D8808368F3
:1094C000DA0334D502233B70FFF732F90020836AB8
:1094D000B3F5C04F06D21B6BB3F5C04F02D29B68E9
:1094E00009A998477F4B099A1A607F4B0A9A1A601C
:1094F0003B78022B9DD1DFF81092336899F8002059
:10950000082A59D1DFF8F081774AD8F800001268AC
:1095100003F0030AC118A1EB0A0191420BD983247D
:10952000A9E76F4CA2420CBF86248424A3E78624BB
:10953000A1E788249FE76B4A17681F4407446B4BD9
:10954000A7EB0A07186827F4FF5727F01F07874281
:1095500009D9391A00F50050FCF7BCFE634B08B17D
:10956000852488E71F600020836AB3F5C04F20D2AE
:109570001A6BB2F5C04F1CD233681769D8F80010C7
:109580005B4AA3EB0A03B84707463268D8F80030B5
:10959000A2EB0A02134450495548C8F80030FEF7C0
:1095A000E3F9002FDCD199F80030002B7FF441AFB4
:1095B00004E04FF48177E8E7002A5AD133687F2B23
:1095C0007FF637AFDFF83481D8F80000E8B9836A56
:1095D000B3F5C04F13D20123CDE90A0009A88DF8D5
:1095E0002430FCF745FE0A9B1A0E6ED0012A67D183
:1095F000C3F307430A2B63D867D14FF403703D4B85
:10960000186006F023FDC8F8000000239B6AB3F53C
:10961000C04FA5D2374A9B6A1168D8F80000984716
:1096200000289DD1836AB3F5C04F20D20123326850
:10963000CDE9070006A88DF81830D8F800A00392ED
:10964000FCF716FE079B190E11D00129039A03D1CE
:10965000C3F307430A2B0AD9002305A99B6A00918B
:109660005F6B5046224909ABB84700284ED084248E
:1096700001E721490A681A440A600022926AB2F599
:10968000C04F13D21D48D76A1D49194A0068B84710
:109690000746326810491648FEF766F940F2032380
:1096A0009F4206D101238BF80030C3E640F2022727
:1096B000EFE740F201239F423FF475AF8024DAE6E2
:1096C00000239B6A9B6B984799E74FF4C07096E71D
:1096D0007E0B00207D0B0020780B00200002002074
:1096E000EB17A603F4130020F81300204C130020FE
:1096F000780700209C0B0020840B0020980B002092
:10970000880B00207C0B0020DC0100209DF8243019
:1097100089F800300393FCF715FE039B074648B316
:10972000D0F834A0002B3FF485AE00230693042329
:1097300035200DF1130206A98DF81330FEF7E2FC77
:10974000069BDB071AD599F80030082B14D0BAF124
:10975000000F42D0534610220CA903F128000393B6
:1097600006F07CFC20B9039B0A9A1B6A9A4205D832
:10977000892480E68246D5E7304BECE797B14FF479
:1097800000513846FCF7A6FD00287FF4E9AE2AF424
:10979000FF504FF4005120F01F00FCF79BFD002804
:1097A0007FF4DEAE99F80030082B18D1244B254AFF
:1097B00018684FF4005120F4FF5323F01F03136087
:1097C000FCF788FD00283FF435AEC9E640F20227D9
:1097D00024E00D242EE681242CE6002FCFD11A4B55
:1097E0001A4F7B6000239B6AB3F5C04FBFF4B8AE3D
:1097F000174A9B6A1168D8F80000984700287FF440
:10980000AFAE836AB3F5C04FE0D23946D3F82C909F
:10981000104A3368D8F80000C847074632680E4936
:109820000C48FEF7A1F840F203239F423FF43AAF01
:1098300040F201239F423FF4FDAD3FE7C00201002B
:10984000F41300204C13002081790000880B0020C5
:109850009C0B002078070020780B002008B5074BF0
:109860004FF000541B782BB1FEF762FF044B2360CE
:10987000FCF7C4FC2360FCF7C1FC00BFE901002039
:1098800002020FF010B5164CA37E5B0626D4FEF73D
:1098900073F940F2E243A18C226803FB0122A37A10
:1098A000226094F84F2013442522B3FBF2F002FB10
:1098B00010332289A372013222810A22636802FBDB
:1098C00001336360238B5A1E22833BB9A27E42F090
:1098D0004002A276034A1370FFF7C0FF10BD00BF1D
:1098E000D806002034070020F0B5254C87B0A37EB1
:1098F0005A0640D4234A23F0070343F00103A3761A
:10990000136821891BB192888A4200D19847A37AB3
:109910001D48234493F82A306375FEF7E3F8D4E931
:1099200000561A4C1A4A636801205B7A7708D15CAA
:10993000A5EB56060191FEF7FFF84FF480730296EF
:109940000026643501993D44ADF8143002AA33462F
:10995000206804958DF80C608DF8166000F022FCEC
:10996000054601223146206800F05EFF2DB1FFF769
:1099700089FFFFF7B9FF07B0F0BD064B2361FAE797
:10998000D8060020DC0D0020E40600205013002043
:109990001D030100019B000002282DE9F0411DD0AC
:1099A00002D8012807D0FEE7032800F09E80FF2898
:1099B00000F09B80F7E74E4C637C990707D5FEF7D4
:1099C000DBF8FEF737F9637C6FF341036374637C64
:1099D000DA0768D4BDE8F041FEF72CB94B78DB0715
:1099E00040F183804C68227802F00F08B8F1030F31
:1099F0005BD0B8F1050F78D13E498B7B03F00103B2
:109A0000B3EBD21F4FD10622083104F1080006F053
:109A100025FB0646002846D1FEF7AEF8FEF7B6F85D
:109A2000354D314607465C22284606F006FBAB7EE4
:109A3000A5F8188043F02003AB76627E237E0126D2
:109A400043EA0223AB84627F237F04F11E0043EAD2
:109A50000223EB8494F82330C3F3040385F84F30DA
:109A600094F82330C3F3421385F850301B232B8521
:109A7000FCF7A8FCD4F80E30E27CEB60A37C2F60EE
:109A800043EA0223227D2E7543EA02432B6195F8B7
:109A90004F30607DAB72E18A3144FCF7CFFCFFF7B9
:109AA00023FF164B1E70BDE8F081124DAB7B03F017
:109AB0000103B3EBD21FF6D1062205F1080104F130
:109AC000080006F0CBFA0028EDD1094C4FF40073E2
:109AD00094F83D202868023204F13C0100F07FFE3A
:109AE000637C43F002036374DDE7FEF745F871E73A
:109AF0003401002050130020D80600203407002035
:109B000002282DE9F34780460C460BD003D80128E4
:109B100000F0AE81FEE7032800F0B081FF2800F0DE
:109B2000AD81F7E74B78AB4D13F0010300F0BC803B
:109B30004A68AF7E117892F80090C1F3001161F38A
:109B40008207AF76C9F3C001C7F30017B94240F0EE
:109B5000A88009F00301022900F0A180032918D090
:109B6000012940F09E804FF0000A567896B19A483D
:109B7000818AFCF7ADFC0B1A9BB2BAF1000F04D03E
:109B8000022B92BF0023023B9BB29E428CBF00235C
:109B900001231E46A97EC9F38009C1F3C002914585
:109BA00008D082F00102D20042F0200221F0280108
:109BB0000A43AA762BB1AB7E87F0010767F3041343
:109BC000AB76AB7E854F13F0200F11D0696D6FF32C
:109BD0004513AB76002969D03B7895F8582043F0BF
:109BE00003033B707A70B81C06F01AFA00236B6509
:109BF0007B48FCF76DFC003818BF0120AB7E77492D
:109C000060F34103C3F3C002AB76C3F300139B00C0
:109C100043EAC20343EA00103B787A7823F01C033E
:109C2000184338706F4F02324FF400733868D2B265
:109C300000F0D5FDAB7E6468D90709D56FF300034A
:109C4000AB7600236B60FDF7A1FF2860FCF70AFCF0
:109C5000002E00F0A180237803F00303022B05D02F
:109C6000032B3DD0012B40F0978000265A486578A1
:109C7000818AFCF72DFC081A80B226B1022892BF17
:109C80000020023880B28542ABB200F285803146B6
:109C90005148A21C02B0BDE8F047FDF7ADBA9A46A4
:109CA00063E70026334675E71E468AE795F82830B5
:109CB0004B48BA1C0DF10701FDF73BFA10F0FF000D
:109CC0000BD09DF80730002B08BF4FF001083B7800
:109CD000787068F301033B708AE74FF00108F6E7FC
:109CE000A3780C2B0AD80C2B0AD8DFE803F03F2B03
:109CF000580909090909600909091800142B7FD0BE
:109D0000394A12782AB1162B00F09680182B00F0F1
:109D1000A280072235480221027043700DE00C2317
:109D200032484FF0FF3203700123827043700222E9
:109D3000037100230621C270437102B0BDE8F047F1
:109D4000FDF79CB9617A237A294A43EA012393807B
:109D50001346284943F8061BD4F80310C2F806102E
:109D6000B4F807209A80627A9A7115E0627B237BAF
:109D70001F4943EA02238B800B461F4A43F8062BF8
:109D8000D4F80320C1F80620D4F807205A60B4F8AC
:109D90000B201A81627B9A7202B0BDE8F0872A8993
:109DA000134B05329A80154A1A60E278DCE7D4F842
:109DB00003303A8C0D48134003F0FF0322F0FF02FA
:109DC000134309210246C0F80130002302F8011BA9
:109DD0005360B2E7D8060020A00B0020FC1300203F
:109DE000B80C002050130020D00D0020F00D0020F2
:109DF000DC0D002029640000A16400009D9E00008D
:109E0000B4F80530B4F80320DB08934228BF1346AA
:109E10002B8515231D4800216FF004046FF02702E5
:109E2000037007238170817144700921C27003712E
:109E30004471C271037280E72279E37813481340BA
:109E400003F00303022B18BF012317220321027022
:109E50004370837071E76279A1790D4B42EA012268
:109E60009A800C4A1A60D4F80320C3F8062093E7BE
:109E7000094B9B7E9A078FD45B078DD4FFF702FDB9
:109E800002B0BDE8F047FFF72FBD00BFF00D002086
:109E9000DC0D0020AD630000D8060020054A08B59F
:109EA000937E43F0400393760022034B1A70FFF732
:109EB000D5FC00BFD806002034070020EFF3108047
:109EC00072B67047FEF778B8F8B504464AB1012576
:109ED000302626488D4006FB040053B341F210069D
:109EE00085513020072904FB00F025D8204E4FEA89
:109EF000810E0644EFF3108072B60F27D6F800C02B
:109F000002FA0EF585EA0C0507FA0EF73D4085EAE0
:109F10000C053560FEF750F852B9012202FA01F142
:109F20003022124802FB0400E3B141F21003C15099
:109F3000F8BD42F21006D3E70E4EA1F10807064421
:109F4000BF00EFF3108072B64FF00F0CD6F800E0B0
:109F500002FA07F585EA0E050CFA07F73D4085EA97
:109F60000E05D6E742F21003E1E700BF00C0034050
:109F700004C003400CC003404FF48032064B5A66C5
:109F800003F5E6235B69C3F38512827003F03F0299
:109F90001B0B4270037070470090004007B50146EC
:109FA00001A8FFF7E9FF9DF8063001220B804FF46E
:109FB000807300204B80054B9B680A3303F01F031E
:109FC00002FA03F34B6003B05DF804FB0080E00F7E
:109FD000FEE7000008B5FDF76FFE074B0748DA1CE7
:109FE000121AC11E22F00302994288BF00220449BE
:109FF00006F016F8FCF7C8F8180100201000002041
:10A000000843010038B50446054D00F0D3FB0FCCE2
:10A010000FC594E8030085E80300002038BD00BFA9
:10A02000FC14002047F6FF739A42F0B563D0022972
:10A0300063D8334BCF0003EBC10013F831108478A1
:10A04000012913D10025C3781B1B9D4202D3E018C0
:10A05000C0B2F0BD591B4668A3EB510136F911603F
:10A060009642D4BF0D4601F1FF33EEE74068002869
:10A07000EFD0B0F90010914204DBB0F90210914228
:10A08000B8BF114682883B44FF2A19BFC822282640
:10A09000B0F90620B0F90860A2EB01020CBF01255F
:10A0A000002592FBF6F25F782A447B1E934228BF7C
:10A0B00013464FF47A7E00EBC305AE68EA88AC46DF
:10A0C00011FB02621E4622EAE272013302F5FA72C5
:10A0D0009F42B2FBFEF204D9BCF80CC0083594458F
:10A0E000EBD200EBC6008088904228BF1046A04209
:10A0F00038BF2046ACE7FF20ABE70020A9E700BF50
:10A10000FC140020F8B50D4610B900242046F8BD17
:10A110000E4F3E68002EF8D100F082F80446002869
:10A12000F3D0386000F0B0F8204600F0A2F838B163
:10A1300030463E6000F0A8F8204600F095F8E4E7CD
:10A14000002DE3D02046A847E0E700BF141500200B
:10A150000846114600F0AAB8F7B5114D04460F465F
:10A160006E6801210020CDE90032B047DDE9003200
:10A1700006463946204601F085FD044618B90120FF
:10A180002B68984704463EB100F0CCFB00B91CB1E7
:10A1900000216B6808469847204603B0F0BD00BF19
:10A1A00024000020F7B5104D04460F466B680121CE
:10A1B00000200192984739460646019A204600F051
:10A1C000C2FA044618B901202B68984704463EB1EC
:10A1D00000F0A8FB00B91CB100216B680846984745
:10A1E000204603B0F0BD00BF2400002070470000EF
:10A1F000431E033306D8044B984228BF18466428F0
:10A2000038BF6420704700BF40420F00431E012B3F
:10A2100003D9031F5842584170470120704700007E
:10A22000F8B50546FDF744FD07460E4B1E6826B9F6
:10A230003846FDF7C1FE344610E0B46884B1237C93
:10A240009C46DB070CD44CF0010C95E80F0084F819
:10A2500010C084E80F003846FDF7AEFE2046F8BD7A
:10A260003668E4E7180000204FF4CC72002105F0B6
:10A27000E4BE10B50446002100F076FA2046BDE8A1
:10A28000104001F05BBB000010B5044618B9054B47
:10A29000054A136010BD00F0D5FCD4F89C30002BAB
:10A2A000F6D1F4E7EDA100001C00002010B50C462B
:10A2B00000F0DEFC1CB100F02FFD0128FBD1BDE851
:10A2C0001040024B002103205B6818472400002047
:10A2D00000F036BE00F04ABE08B502460868FFF737
:10A2E00087FF08604868FFF783FF48608868FFF7CA
:10A2F0007FFF8860C868FFF77BFF0B69C860581C48
:10A3000003D00B48834228BF03460B614B69581C9E
:10A3100003D00748834228BF034688694B61FFF793
:10A3200067FFBDE808408861104601F04FBB00BFE1
:10A3300040420F002DE9F84FD0F8943080460E4689
:10A3400013B1038B8B4279D0D8F890B0BBF1000FDA
:10A3500044D0DBF80830002B40D0DBF80C20002A7A
:10A360003CD0D8F8A4A0BAF1000F3AD04FF00009C1
:10A370004D464F4601E0DBF80830C5EBC50403EB62
:10A380008404E3890135B34217D8238AB34214D336
:10A39000B4F91230B8F9241003EAE372994254DD9B
:10A3A000404698F8E010FFF73DFE98F815308146DA
:10A3B0008342274604D9DBF80C209542DBD347B310
:10A3C00000233A4640461946D0470020A8F81860B6
:10A3D000C8F8947088F8E990BDE8F88F0320BDE8CC
:10A3E000F88FD14647F6FF7554465146C4EBC40773
:10A3F00003EB8707FB89B3421AD83B8AB34217D3D2
:10A40000B7F91220AA4202EAE27204D14FF0FF0922
:10A41000DBE70120E0E7404698F8E010FFF702FE96
:10A4200098F8153081468342CFD93946DBF80C20A5
:10A430000134A24205D9DBF80830D7E70020BDE897
:10A44000F88F0029E5D00F46BFE72746B8E700BFE1
:10A450002DE9F04782B00446884617461E4601F0B3
:10A460001EFC01F025FC00286FD1DFF8A891D9F877
:10A4700000301BB1D4F8902093422CD000F04CFC5B
:10A48000012868D1D9F80030002B00F093801A68B9
:10A49000002A00F08F80D4F8901009688A427ED09C
:10A4A000D4F894301A68204601F0BEF9D4F8A4A07C
:10A4B000012705468DF80760BAF1000F62D000222F
:10A4C000204611460DF10703D047B5B137BB2846EA
:10A4D00002B0BDE8F0874B4B1B68002BCED0D4F800
:10A4E00094209342CAD1484B1B68984566D000F02F
:10A4F00013FC01283ED001252EE0D4F89030D4F88A
:10A500009420C9F800303F4B20461A603E4BC3F8F8
:10A51000008000F0ADFE0546002FD8D0B5FA85F0DA
:10A5200040F205323321400900F096F931462046C9
:10A5300001F086F90546354B20461B68D4F8941087
:10A540009847284602B0BDE8F08700222D4B1A60DC
:10A5500001F0A6FB89E70025012000F089FB00F04F
:10A56000DBFB0128FBD12A4B002103205B689847C5
:10A57000002D87D0D4F8A4A000258DF80760BAF18B
:10A58000000F9CD1617D94F8E9303246994228BF92
:10A590001946204600F0F0FD002D97D1ADE7194A8D
:10A5A00012680AB31168D4F894201268914219D045
:10A5B000596878E7D4F89030196871E706B127B97F
:10A5C0000025284602B0BDE8F0870122D4F8A45047
:10A5D0008DF8072065B10022204611460DF10703D2
:10A5E000A847EDE70127C5E7D4F894201268DFE714
:10A5F000617D94F8E9302046994228BF194600F061
:10A60000BBFDDDE720150020181500201C000020F0
:10A61000240000201C150020F8B50E460546FDF765
:10A6200047FB314607462846FFF784FE044620B123
:10A630003846FDF7C1FC2046F8BD034602463146C8
:10A640002846FFF705FF04463846FDF7B5FC2046CF
:10A65000F8BD00BFF8B506460C4659B30B6843B1C8
:10A660001B68013326D0CB681BB18B68003B18BF39
:10A6700001231846CB22412100F0EEF8204602F0DB
:10A680001FF800234FF6FF724FF01C0C86F8EC30D9
:10A69000C6E92443E768D8B287420DD8154600239F
:10A6A0000B4A294613600B4A30461360FFF7B4FF8C
:10A6B0002846F8BD0023DCE7A1680CFB0011CD891A
:10A6C000954202D2002DEAD02A460133E3E700BFCB
:10A6D0001C15002020150020008B70470A7838B523
:10A6E00005461046FFF792FD60B14C782046FFF713
:10A6F0008DFD38B12243530704D42846BDE83840C5
:10A7000000F06ABC012038BDFFF7E8BF10B5044671
:10A710000878FFF77BFD58B14A781046FFF776FDC1
:10A7200030B1042A04D02046BDE8104000F08ABCB5
:10A73000012010BDFFF7EABF00F044BA084601F05F
:10A7400075BC00F08BBB37B504460D460192FFF790
:10A7500063FF38B929462046019A03B0BDE830406E
:10A7600000F062BB03B030BD01F0AABA13B50446D5
:10A770000020019101F0A2FFD4F8A43033B92046A3
:10A78000019902B0BDE8104000F02CBD022002B0DB
:10A7900010BD38B5044648880D4601F08FFFD4F847
:10A7A000A4302BB929462046BDE8384000F094BCBF
:10A7B000022038BD01F083BF38B505460C46FDF7D1
:10A7C00077FA296BEB6A0C402343EB62FDF7F4FB4D
:10A7D00000200CB9002138BD4FF40071FBE700F0F8
:10A7E000BBBF00F0DABF00004FF4007307B50A49A1
:10A7F0000DF10602ADF80630FFF7F3FFBDF80630A5
:10A80000B3F5007F05D1022808BF002003B05DF832
:10A8100004FB0120FAE700BFC016002008461146DD
:10A8200001F090BE00F084BF38B50446154609B16A
:10A8300000F0D1FF25B12046BDE8384000F0CEBF82
:10A8400038BD0000024B1960024B1860FEE700BFE4
:10A8500020000020C418002008B550B90548064B58
:10A8600001601A60054B1A68054B1A601868FFF7FB
:10A87000E9FF08BD20000020C018002014150020AA
:10A88000C4180020437C03B108470220704710B56C
:10A89000044601F0DFFA2046BDE81040032100F035
:10A8A00051BAFFF7F4BF00000149FFF7EBBF00BF4B
:10A8B0002DBE00000149FFF7E5BF00BF05BE000047
:10A8C00037B5437C05460C46BBB101F057FB6168C8
:10A8D00002460190284601F0EDFA206890FAA0F0B7
:10A8E000000A00F0F7FBA17A2089019A81F00101AA
:10A8F00001F010FB002003B030BD0220FBE71FB5C4
:10A90000ADF80C309DF81830CDE9011201A98DF891
:10A910000E30FFF7D5FF05B05DF804FB002070474F
:10A9200000207047014B1878704700BFC8180020FE
:10A93000024BD868C0F30360704700BF000002A854
:10A9400070470000431C07D06FF0FF02034B10401C
:10A950005A62A3F580535862704700BF00E000A818
:10A96000426B0E4B02F06002402A12D0602A03D0E4
:10A97000202A11D1012206E071B10A68012A0BD9FF
:10A980004A6942F00102C3F888208022044B1A6110
:10A99000704740F20112F6E70022F4E7003F00B0F2
:10A9A000000002A808B5094AFFF7C2FF0B2806D02D
:10A9B0000C2809D0092814BF0020022008BD106C03
:10A9C00010F48030F0D1F9E70220F7E7000002A888
:10A9D0004FF02A430121D3F81821596352074FF44D
:10A9E000005148BF042203F50053196344BFA3F587
:10A9F0008053C3F81821704737B50C46194D41B93B
:10AA00000A46072104F0DAFC174B6C665C6003B061
:10AA100030BD0722114604F0D1FC0722134B01215F
:10AA2000DA60237901A885F864306379019304F032
:10AA30002BFD019BC2B2D34000F00F0040EA03108F
:10AA400085F86500A3790A4A85F86630E37985F8C8
:10AA500067302368AB6623790133136204F0CEFCC0
:10AA6000D5E700BF003F00B0643F00B0006000A821
:10AA7000004000A800F01803182B074B03D1002258
:10AA8000C3F88C207047010701D50122F8E7C20600
:10AA9000F5D540F20112F3E7003F00B03D4B2DE940
:10AAA000F3411E6840F2022317460B4000F00102FA
:10AAB000134305460C4641D0880709D5364BD3F8D9
:10AAC000083F03F0C003402B02BF0221334B9960C3
:10AAD0004FF0000842B30023002200210120CDE9FD
:10AAE000008803F007FB4FF0FF3002F041FD4146C4
:10AAF00070830120FFF7DAFB294B1B6C590208D445
:10AB0000736B13F0800F4FF4001314BF254A264ACD
:10AB1000136226490868FFF715FF4FF0FF330B60FB
:10AB2000337C43F008033374A20507D50121304676
:10AB3000FFF742FE24F4007405430C43D6E9422398
:10AB40002A40234052EA030103D0194930460968DC
:10AB50008847FB070FD51749174A08680021136873
:10AB600011600121154A117003B19847144B00215F
:10AB700002205B68984717F00E0F08D04FF4B672AA
:10AB80003B21002002B0BDE8F041FFF765BE02B0F6
:10AB9000BDE8F08114150020003000B0001002A8BC
:10ABA000000002A8005001A8006001A830000020A9
:10ABB0002C000020E8180020E4180020E0180020F5
:10ABC00024000020F7B5D0E942C71946DDE9086343
:10ABD00004468CEA060587EA03001540084085EA2A
:10ABE0000C057840C4E9425000250B4022F00100DA
:10ABF00043F4007306EA000243F00203CDE9005576
:10AC000003F078FA237C9A0717D5D4F80C319B050A
:10AC100013D54FF480312046FFF7CEFD237C65F33A
:10AC200041032374D4E9422302400B4052EA03015A
:10AC300003D00349204609688847002003B0F0BDCF
:10AC40002C00002038B10368044A002B08BF1346CB
:10AC5000034A13607047014BFAE700BF41A90000A7
:10AC60002C000020014B0020D9677047003F00B046
:10AC700003282DE9F3413CD81F4B1E5C1F4B1F5C82
:10AC80001F4B13F80080FDF713F8054603F00EFC88
:10AC9000044640B100230022CDE900330120002307
:10ACA000002103F027FA3946304603F01FFE4246E2
:10ACB0003946304603F08AFEACB1124B1B6C5B0286
:10ACC0000AD4114B1B685B6B13F0800F4FF4001319
:10ACD00014BF0E4A0E4A13620E490868FFF732FE8F
:10ACE0004FF0FF330B60284602B0BDE8F041FDF79E
:10ACF00063B902B0BDE8F081F8030100FC03010074
:10AD000000040100000002A814150020005001A852
:10AD1000006001A83000002008B5FFF709FE0138E7
:10AD2000C0B20B2802D8054B185C08BD044B5B6908
:10AD300013F0060F0CBF01200420F6E70404010005
:10AD400000C001A831F00F0210B50BD1FFF7E4FFEE
:10AD5000012809D1054CA36F23F00F0001431046D1
:10AD6000A16710BD0120FCE70220FAE7003F00B018
:10AD700008B50D4B1A6C12F0A00F13D15B6C5B077A
:10AD800001D5012008BD094BD3F8083F23F07F43CC
:10AD900023F0FF03002BF4D0FFF7CAFD092801D0F0
:10ADA0000C28EED10020EDE7000002A8003000B032
:10ADB000024638B588B9194B1B684BBB0125C1F158
:10ADC0002704C4F11C03002BB8BF5B42232B23DCF8
:10ADD0007DB1134B1970002038BDFFF79DFF01288E
:10ADE00018D10F4B002593F90040C4F12704641AD1
:10ADF000E7E79174FCF75CFF0A4AE402136A04F483
:10AE0000FF2423F4FF231C431462FDF7D5F8E2E787
:10AE10000320E1E70220DFE70120DDE71415002031
:10AE2000D818002000C000A8114603F09DBB000008
:10AE3000094B08465A6A91020BD4D3F80021D20775
:10AE400008D4D3F8803013F4706F14BF01200020B1
:10AE500070470120704700BF004001A870B515463B
:10AE60000C46426B064682EA05030B40534043639F
:10AE70002D4A01F00B0323EA0501D1642B40A2F512
:10AE80008052D364630710D50121FFF7D1FF60B171
:10AE900003F0CCFC4FF4007315F0040F14BF234AE9
:10AEA000234A53620422234B1A64E00606D515F0A8
:10AEB000100F14BF00221B221F4B5A65210618D504
:10AEC0002A0620D54FF40012184B1A62012203F50E
:10AED0008053C3F80021FCF7EBFE0E21054603204A
:10AEE00002F0E6FA40F20122134B2846DA62FDF73F
:10AEF00063F814F0600F04D03046D6F89810FFF7CE
:10AF00002FFD002070BD0D4B1B6C5B02F1D44FF484
:10AF1000001196F8D230064A1162002BE9D00122C6
:10AF2000024BC3F80021E4E7006000A8005001A82C
:10AF3000006001A8002002A8004000A8000002A8AC
:10AF4000014B186A02F0C6BA004001A8D0F8983048
:10AF50004BB11A68022A06D993F8250028B11B6A5A
:10AF6000B3FBF0F07047FFF7B3B97047014B186AB5
:10AF700002F0D8BA004001A8D0F8982072B1136846
:10AF8000022B0BD9536A13F47F4FC3F3072007D06A
:10AF9000126ADBB25343B3FBF0F07047FFF79AB984
:10AFA00070470000437C5A1F012A01D9082B05D1A4
:10AFB0004B7B2BB1012B05D0022B05D0FFF7DCBF5B
:10AFC00002487047024870470248704720A10700B6
:10AFD00048E8010040420F0070B50E46FCF768FEDD
:10AFE0000546FFF7DFFC044620B12846FCF7E4FFE6
:10AFF000204670BD03F01AFC104B3278D3F8083F9E
:10B00000022A23F0F00315D0042A0CBF02220022EA
:10B0100043EA02137278022A0ED0042A0CBF0222DD
:10B02000002243EA8213054AC2F8083F0422044B77
:10B030001A64DAE70122EBE70122F2E7003000B000
:10B04000002002A838B50D46FCF732FE04461E4A21
:10B05000FFF76EFC062826D804282BD8032829D011
:10B0600003F0E4FB194B2A78D3F8083F022A23F0B7
:10B070000F0324D0042A0CBF0222002213436A7853
:10B08000022A1ED0042A0CBF0222002243EA8203B5
:10B090000E4A2046C2F8083F04220D4B1A64FCF702
:10B0A0008BFF00200AE00728DAD1D2F84431002BC8
:10B0B000CED1D5E72046FCF77FFF022038BD012224
:10B0C000DCE70122E2E700BF000002A8003000B088
:10B0D000002002A802F0A4BAF8B50E780446022EA9
:10B0E0000D4690F8E0700AD1002001F02DFB0028F9
:10B0F0003BD1012001F028FB002818BF0126304673
:10B1000001F022FB98B384F8E060AB8804F1E0061C
:10B11000A4F8E4306B883046A4F8E230AB88A3642E
:10B12000FF23A37501F0D2FA054608BB304601F0B3
:10B1300001FB0546E0B9D4F8943053B194F8E0101F
:10B14000B94206D02046B3F91220FEF76BFF84F80F
:10B15000E900204601F04AFB0121A4F8E40004F1D3
:10B16000A80002F09FFD2846F8BD0026C7E701258C
:10B17000032384F8E030F6E770B5054690F8E00068
:10B180000C4603282AD0FF292AD001F021FB0646CD
:10B1900095F8E00001F00EFBA04210D323469E423A
:10B1A00095F8E00011DB01F013FB04462046AC7576
:10B1B00001F014FCA0F1FF035842584170BD95F80E
:10B1C000E00001F0F7FA0346E9E701F0F3FAA042E4
:10B1D000ECD295F8E00001F0EDFAE6E70220EDE7A9
:10B1E0000120EBE738B590F8E0300446032B3BD064
:10B1F000D0F894504175A5B3D0F8A430BBB990F8FD
:10B20000E9308B4219D300222046FFF7B5FF0546EF
:10B2100058B9164B1B78012B07D8204601F0E6FAE7
:10B22000012104F1A80002F03DFD284638BDB0F927
:10B230002420B5F912309A42E5DD0022204694F828
:10B24000E910FFF799FF05460028EED1C4F89400F5
:10B250002046FFF741FA01462046BDE83840FFF797
:10B26000DBB9FF238375E0E70225DEE73E0000201F
:10B2700070B5C36B8AB0012B03D1002528460AB0F4
:10B2800070BD0446604901F0EBFED4F89460258B54
:10B29000C4F8980026B1336813B15B68002B70D1F5
:10B2A000FCF706FDFCF788FE01231A46D4F8980047
:10B2B0008DF80E30B389EB1A9BB2D6E90115ADF8C3
:10B2C0000C3005FB0311514B02911B68834213D0D4
:10B2D00010B10368002B5BD19FED497B002384ED07
:10B2E0002A7B0146C4F8B0302046FFF739FBD4F87A
:10B2F000980002999DF80E20099004AB204602F0B8
:10B300001FFA002839D1424A4249FFF711FB431E78
:10B31000DBB20B2B2CD8D35C012BF6D13E4A3F4934
:10B32000136CD801FCD40B6CDB07F9D404A901A879
:10B3300002F0D4FB054600BB237C60F34103237479
:10B3400000F0B0FED4F894305B691A68431EDBB29B
:10B35000FD2B009225D9D61C23D9314B01321B6815
:10B3600027D0DA1C8AD802466946204600931BE0A3
:10B370004B6913F0060FD1D0C7E7022528460AB063
:10B3800070BD1A68032A8BD99B6A5A0E13468FE741
:10B390000369002BA0D0D3E900129B68C4E92A12EC
:10B3A0009FE702466946204600F002FE28460AB0A2
:10B3B00070BDD91C05D8024669462046009300F0AE
:10B3C000F7FDD4F80C319B0504D4237C43F0020331
:10B3D000237453E74FF480312046FFF7EDF9D4F89A
:10B3E0000821D4F80C3102400B4052EA03013FF42B
:10B3F00045AF0C492046096888473FE7AFF3008016
:10B400000000000000000000FC4F00B0D418002035
:10B410000404010000C001A8000002A800C002A8A6
:10B420004C0000202C0000204FF4807103F0DABFA4
:10B4300038B590F8EC400546ACB1FCF739FC1F225A
:10B44000094B013C5A621440A3F580535C62D5F865
:10B45000F020A3F580539A66D5F8F420DA66BDE8AB
:10B460003840FCF7A9BD38BD006001A810B58B7845
:10B470000246012B0C4600F28B80CB78012B00F2A8
:10B4800087800878012800F28380497804297FD8D2
:10B4900009B1012B7CD1012843D02068C2F8F80003
:10B4A0006378002B3ED13B49C1F88C304FF060519E
:10B4B000394B1962394B1B7813B10621384B996708
:10B4C0004FF08051374BD964A3F500531B6C5B02DE
:10B4D00008D4536B13F0800F4FF4001314BF324A9B
:10B4E0002D4A13624FF48072304BC3F81821C3F811
:10B4F0001421A378002B42D14FF02A4340F6FF726B
:10B500001A63E378002B3DD14FF02A4340F6FF72D7
:10B510001A676022264BDA6403F5E83340220020E4
:10B520001A6410BD013BDBB2032BE2D84FF060512F
:10B53000204A52F82330184A43F400131162A2F54E
:10B54000805213620423A2F58832C2F88C30936FC4
:10B5500023F0060343F0040393674FF08052164B29
:10B56000DA6402F0ABFF0028C3D04FF480730F4AB7
:10B57000C2F81431A2F58052C2F81831B9E7FFF7CA
:10B5800027FABEE76022064BDA6403F5D833C5E735
:10B590000120C6E7004000A8006001A8D0180020E4
:10B5A000006000A8002002A8005001A8002000AA06
:10B5B000005000A8E8030100001002A82DE9F74F91
:10B5C00007461546084619B9012003B0BDE8F08FBB
:10B5D000002AF9D0032904D8002100F0B3FF002885
:10B5E000F2D0B0F90010837800290488067990F829
:10B5F0000590B0F806B003F00702C0F29580D01FA6
:10B6000041424141052A297294BF0021C3F3001130
:10B61000C3F3801069729909287301F00201C3F322
:10B62000C0000143C3F340136973AB73EE737B6BCC
:10B63000DB0673D4063A012A70D83C4B01265B6DB9
:10B640004FF02A431A6DDB6C063C03F00703063308
:10B650009E40013E344042F0005818F804A07B7C24
:10B66000AAF1320A01344FFA8AFA34403BB300207F
:10B67000D7F8A0300BB151469847631CE87285F8A3
:10B680000AA0334018F803100133334018F80320A0
:10B690000133334041EA022118F8032001333340DB
:10B6A00018F8033041EA024141EA036138466A7BF7
:10B6B00002F0D8FB06232860AB71002085E7D7F89D
:10B6C000983018F8042053B11968022907D993F863
:10B6D00024301BF4805F11D15000C0B2C8E7294666
:10B6E00038460192FFF75EFC00903846FFF72EFCCB
:10B6F000009B019AB3FBF0F0C3B2EAE7CBF30B0077
:10B70000C0000BB1B0FBF3F08145B0D80028AED03B
:10B71000C9EB0929B9FBF0F0C043DEE70020802324
:10B7200028606B81A87150E702204EE7004000A816
:10B73000F8B5064614469779FFF740FF054648B925
:10B74000A3793BB121463046A771FFF72BFC214678
:10B7500002F058FB2846F8BD084610B510F0030467
:10B76000114618D1B3FA83F3192B12D0C3F1190380
:10B77000DBB2062B28BF06239C1DE2B201249440B5
:10B78000A4B2A1421A4628BF214600F0EDFC204693
:10B7900010BD2346F0E70024F9E711F00303084643
:10B7A00010B516D114883F2C13D9B4FA84F4192C8F
:10B7B00005D0C4F11903DBB2062B28BF06231946B6
:10B7C0000633DCB20123A340138000F0EBFC002021
:10B7D00010BD0120FCE7FFF7FBB8000070B54FF08B
:10B7E0002A434FF48064084DD3F818610020C5F84F
:10B7F000184103F0C7F84FF400532B67730544BF9B
:10B80000024BC3F8184170BD002000AA001000AA26
:10B81000082310B1024A13647047024AFBE700BFD5
:10B82000001002A8002002A810B514460846012105
:10B8300001F0B6FD2046012101F0B2FD002010BD4F
:10B84000F8B504460D4619B990F91030002B31DBDC
:10B850004FF6FF73A18BD4F89860994204D0284B1F
:10B860001B680BB120469847264F3B68B3423BD03C
:10B87000254B1B683BB11EB13268002A36D0B66832
:10B880003146204698470726204600F0AFFF2DB3EB
:10B8900003F0B4FD94F912102046FFF789FA062050
:10B8A0000122D4F8983019493B60194B8867002071
:10B8B0001A70F8BD4FF6FF72037C124F61F3C71385
:10B8C000D0F8986003743B6882839E4213D00E4B7D
:10B8D0001B68002BCFD100F089FF0726314604F109
:10B8E000A80002F0DFF9D3E70126CDE7164620468F
:10B8F00031469847C7E700F079FF0126EEE700BF21
:10B90000DC180020D4180020CC180020006000A80B
:10B91000D018002008B558220021064804F08DFBFD
:10B920001022FF21044804F088FBBDE8084003F022
:10B9300065BD00BF0C3F00B0503F00B0032373B59E
:10B9400080F8E0300023837469234FF0FF35C0F89E
:10B95000BC3064230446C0E93033C0E93233A0F878
:10B96000D030C0E9075585644575C58202F0B0FD49
:10B970002046FFF7CFFF94F912102046FFF718FA80
:10B980006022114B04F1F801DA642046FFF76EFDE6
:10B9900029460646626B2046FFF760FA0E23002216
:10B9A000CDE9003340F202231046194602F0A2FB13
:10B9B00000F0DAFE2EB9204602B0BDE87040FEF776
:10B9C00013BF304602B070BD004000A8034670B5FA
:10B9D0000C68B0F8E420013408BFD3F8BC408D688F
:10B9E00008BF0C604C686932013408BFD3F8C84006
:10B9F00092B208BF4C606C1C00F1A80033D1D3F8A0
:10BA0000C450CC688D60661C31D1D3F8C0400E693B
:10BA1000CC60013604BFD3F8B4600E614E690136C4
:10BA200004BFD3F8B8604E618E69013604BFD3F805
:10BA3000CC608E618E69F6B1B24238BF32460E6874
:10BA40008A61C3E92F644C68C3F8C450C3E9324229
:10BA50000A69C3F8B4204A690721C3F8B82002F084
:10BA600021F9002070BD954238BF1546C9E79442C0
:10BA700038BF1446CBE76422E1E7000038B5FCF795
:10BA800017F94FF6FF710A4A13888B4203D1FCF76E
:10BA900093FA032038BD074C074D1B046566A4F5D7
:10BAA000805463661180FCF787FA0020F2E700BF3C
:10BAB00034000020006001A80000FFFF2DE9F341E1
:10BAC00005460E461446FFF753F9002800F0C080E3
:10BAD000604B4FF400612846D3F8088FD3F8E47E1A
:10BAE00003F080FC38B14FF4007201215A4B084634
:10BAF0001A64FEF7DBFB31462846FEF78DFD554BF9
:10BB00000646C3F8088FC3F8E47E002840F083801F
:10BB10002B7C9F0601D4002C55D0C4F3400002F0CA
:10BB200051FE022314F4807F1FBF4C4A002113648E
:10BB30004FF02A420BBF484A91611364536302F0ED
:10BB400075FE4FF4806314F0040F14BF444A454A55
:10BB500014F0400F53624FF004023F4B20461A642A
:10BB60004FF0400314BF404A404AC2F88830FEF705
:10BB700081FF2846FFF758FC38B14FF4807314F06A
:10BB8000010F14BF354A344A1364A00647D54FF657
:10BB9000FF726B8C93420FD0354A3649526E100CAF
:10BBA000C2F301120132B3FBF2F308802C4A2D4993
:10BBB00031481B0448665366003C18BF01242B7CA7
:10BBC00064F345132B74284600F082F800B328462E
:10BBD000FFF72AFCE0B14FF40031284603F002FCE5
:10BBE000002814BF02230123032201A9234800F0E7
:10BBF0001FFB9DF80410224A01F00703052B9DF856
:10BC000005301BD109070DD443F48073C2F8EC3022
:10BC1000002000F053FD304602B0BDE8F081FFF790
:10BC20002DFFC9E713F0040F0CBF9DF806304FF449
:10BC30008073134A08BF43F48073E7E703F03001D1
:10BC4000202902D113F0010FEEE79DF80630DDE761
:10BC50000226E0E7003000B0002002A8001002A891
:10BC6000005001A8006001A800D000A800E000A8D2
:10BC7000004001A8340000200000FFFF0C0000AAD3
:10BC8000003E00B038B504461D46FFF717FF28B93F
:10BC900029462046BDE8384002F044BD38BD704713
:10BCA0004FF40022014B1A64704700BF002002A825
:10BCB000024B186CC0F3C040704700BF000002A8E0
:10BCC000014B024A1A607047CC180020F9A9000005
:10BCD000802103F087BB0000F0B5CF072BD5002AE9
:10BCE0000CBF5524AA240E461E25164F01F003034F
:10BCF00083F001033B449B7806F0070C17F80CC057
:10BD0000013D63444FEA5606F6D10F4E73436FF47C
:10BD100081769B0C334443647AB991FAA1F194FA89
:10BD2000A4F44B08240F490043EAC47401F0020153
:10BD30000464C174F0BDAA24D5E7044BC574036440
:10BD4000F8E700BF4404010036FC1000B756351276
:10BD500030B547F6FE74154BC3F83042456C04EA23
:10BD60004504134DC5F830420F245C66CC071BD543
:10BD7000D2B901246C664FF0FF34C3F80441056C5E
:10BD80000B4CC4F804514FF0F045C3F81051C37C7C
:10BD9000DB062B40C4F810312AB14FF02A430222AF
:10BDA0000165C3F8F42030BD0224E3E7006001A878
:10BDB000005001A810B5437C0446033BDBB2032BC3
:10BDC00096BF0E4A0021D15CFEF74CFF012000F027
:10BDD000B3FE4FF4F0620A4B2046DA644FF400726F
:10BDE000A3F58053DA6403F570439B6E012240F89B
:10BDF000503F0421BDE8104000F024BA10040100B7
:10BE0000006000A8012310B580F8D2302823C0F8C4
:10BE1000B8300423044604494374FEF71BFC204653
:10BE2000FFF7C8FF002010BDBC400100012310B582
:10BE300080F8D2302823C0F8B830022304460449E1
:10BE40004374FEF707FC2046FFF7B4FF002010BD47
:10BE5000B43B010038B5134D0446286801F068FA78
:10BE6000AB68186801F064FA0F4BDA681AB19B6886
:10BE7000186801F05DFA0D4BDA681AB19B68186812
:10BE800001F056FA0A4BDA681AB19B68186801F09B
:10BE90004FFA2046FFF7CAFF2046BDE83840FFF7BB
:10BEA00089BF00BFB43B0100BC4001008C380100D9
:10BEB000203A0100D0F8F03073B58B4204460D46AD
:10BEC00003D190F8EC30202B0FD029462046019268
:10BED000FFF702FF202384F8EC300023C4F8F05071
:10BEE000C4F8F430FFF7A4FA019A4FF00076074B3C
:10BEF00029461E642046FFF72BFF8022044B1A615F
:10BF000003F500531E6402B070BD00BF001002A80C
:10BF1000000002A830B50724164BDC63164CA3F5CD
:10BF20000053C1B1442540F040005D639863012394
:10BF3000E3634FF4804302B989B90F4AC2F8043170
:10BF400089B14FF480420B4BC3F80821C3F80C2190
:10BF5000C3F810210DE059639963E163E9E7054AED
:10BF6000C2F80431EDE7C2F80831C2F80C31C2F86A
:10BF7000103130BD006000A8005000A8407C05389A
:10BF800001288CBF00200120704700000B6813F0CF
:10BF9000802F18BF42F20102044B18BFC3F82822B9
:10BFA0000A68C3F88822C3F88C227047004001A8B1
:10BFB00038B505461046FFF7E9FF65B1D5F894306E
:10BFC0004BB15B693BB10A68013204BF6FF00102FB
:10BFD0000A600A681A60002038BD000013B5074BDC
:10BFE000D3F84842019421B1531EDBB2FD2B88BF28
:10BFF0000C6001A9FFF7DCFF02B010BD0080E00F6C
:10C0000007B50822074B01A9C3F8FC234FF0FF3303
:10C010000193054B00221868FFF7E0FF03B05DF8BD
:10C0200004FB00BF001002A81415002038B5044618
:10C0300001F0A0F801213A20FBF7D2FEE078217947
:10C04000154A40EA0143C2F8DC34E579A37943EAB2
:10C050000543C2F8E03423781BB100230422FDF726
:10C0600033FF63782BB100230422E179A079FDF737
:10C070002BFF2278012352B1084AC2F8D8346278E3
:10C08000022332B1054A0020C2F8D83438BD044A30
:10C09000F3E7034AF7E700BF00C0034000D00340C6
:10C0A00000E00340002070472DE9F74F06681C466A
:10C0B0009DF8303006F007060193B31D01269E401F
:10C0C000054617460B4606F1FF38A1B1416804EA60
:10C0D000080BA6EB0B0A41F00059524509EB0B0186
:10C0E00018D95246184603F09BFF4946BA1B5A44DA
:10C0F000504403F095FF019B4BB13C4448EA0606CF
:10C100003440EC60AB68A3421CBF0223AB6203B0B7
:10C11000BDE8F08F1846ECE74FF02A43D3F814211E
:10C12000D2031ED54FF480320E49C1F81421A1F577
:10C130008051C1F818215A6DD1B2C2F30722C3F859
:10C14000A410C3F8A4200422C3F8A4200022C3F83A
:10C15000A420C3F8A420C3F8A420C3F8A420C3F8E3
:10C16000A4207047002000AA38B54FF02A44E260AE
:10C1700020610D46FBF79CFD0122D4F81431626367
:10C180005B075CBF0422064B656158BFC3F81421EE
:10C19000FBF712FF1DB14FF02A4302225A6338BD4C
:10C1A000002000AA044B40F6FF7218604FF02A43AB
:10C1B000D96418651A677047EC180020032A2AD939
:10C1C000436830B4846823445B4203F00303D21A0B
:10C1D00053B30C7884615C1E05D04D78012C8561C9
:10C1E0001CBF8C7884610B44032A1FD9111F21F0D6
:10C1F00003010431194453F8044B8B424463FAD1D0
:10C2000002F003022AB10A4411F8013B9142836112
:10C21000FAD130BC704732B10A4411F8013B914267
:10C220008361FAD1704770470B46DDE71946EAE7AC
:10C2300037B5002514460095FFF736FF204603B0BA
:10C2400030BD0000402938B514464FF001020ED829
:10C250004FF02A45C5F8F4200A4601460648FFF784
:10C26000ADFF34B104230020C5F8F43038BD1046CA
:10C27000FCE72046FAE700BFCC0000AA10B5FBF7A8
:10C2800017FD4FF02A4301221A495A67C3F8B42018
:10C29000C3F88C20C3F890100721C3F8B010164BD8
:10C2A000164C1980002316490B804FF4A021C4F8C6
:10C2B0001411A4F58054C4F8181112490B60124BE4
:10C2C0001B6C5C0212D54FF48004104B10491B68A4
:10C2D0000C64596B090609D44FF4001493F8D2305A
:10C2E0000C490C6213B10C4BC3F80021BDE810409F
:10C2F000FBF762BEF018002072190020002000AA8F
:10C300007019002074190020000002A814150020E4
:10C31000002002A8006001A8005001A807220D4BD0
:10C32000F0211A8000220C4B1A804FF02A43C3F8E8
:10C33000CC204FF40052C3F8D000C3F8F020074AD5
:10C340009164A021A2F5805291640122C3F8F420E7
:10C35000FFF794BF7219002070190020006000A838
:10C360002DE9F0410446A0B1FBF7A2FC414E424B3F
:10C370003188032C01F078020546404F01F07F0E12
:10C380001A4465D1D7F800C0BCF1000F03D1FBF708
:10C3900013FE03205AE02CF00104386820F001005D
:10C3A000A0425AD100233B60238894426FEA434362
:10C3B0006FEA5343238045D1314FDFF8E0C03B881B
:10C3C000ACF18008CC18083B9BB202F10801614532
:10C3D00028BF4146E01A082B80B204D9B1F900E029
:10C3E000BEF1000F44DB4FF02A41947812883B8065
:10C3F000C2F30C028A654FF48022C0B23080C1F8CB
:10C400009800C1F8B0301F4B04F00704C3F81421A2
:10C41000FFF782FE042C15D14FF480011A4B1B4A02
:10C420001B6C1B4B1B6811645A6B12060AD44FF429
:10C43000001193F8D230174A11621BB10122164B3A
:10C44000C3F800212846FBF7B7FD0020BDE8F081C6
:10C45000601E012898BF14469FE70948734400886E
:10C46000E31A48BF8033083898429DDC28468EE79F
:10C470000A46A8E770190020F0180020741900205F
:10C4800072190020002000AA000002A8002002A8C3
:10C4900014150020006001A8005001A870190020A8
:10C4A0001048114A0388128810491A44073A02F0CA
:10C4B00078020A444FF02A4108339BB20380C1F846
:10C4C000B0304FF480219078094B00F00700042829
:10C4D000C3F8141103D10749CB681B03FCD4064BE6
:10C4E0001A6070477219002070190020F01800209F
:10C4F000002000AA000002A87419002010B5054C05
:10C50000206828B1C30701D4FFF72AFF0023236066
:10C5100010BD00BF741900204FF48033084AC2F8E0
:10C520001831A2F58052C2F814314FF02A43D3F8E3
:10C53000AC30C3F30C03782B01D8FFF7EDBD704787
:10C54000002000AA2DE9F04705460E46FBF7B0FB98
:10C55000534B81461A88534C534802F07801032DFF
:10C56000078802F07F03214417D1504805688DB930
:10C57000D519073D05F0780525442344EB1A48BF3B
:10C580008033BB4210DB4846FBF716FD00252846EA
:10C59000BDE8F08725F00105EFE7012D02D0022D5F
:10C5A000EBD1083F0D46E8E7002E4AD08D424CD132
:10C5B0004FF02A42976DBFB24FF02A41CA6C02F089
:10C5C000070A0AF106024FF0010A0AFA02FAD1F844
:10C5D000AC201FFA8AF8C2F30C029A4247DDB5F983
:10C5E00000302C88002BCEDBAB78C4F30C0408F1B0
:10C5F000FF3203F00703E41B48EA02021440052B54
:10C600003370A4B22BD824B2E04340F2BB320421F1
:10C61000C00FFEF721F97480EB78337408F1FF3313
:10C620001F40234B1B68DA19B260A2B217FA84F4D8
:10C630005445D3BF0023A8EB0708A6F80480B280B6
:10C64000F3604846FBF7B8FCA1E7A5F10802A24257
:10C6500038BF05F178021788C7F30C07ACE7154B14
:10C660005B6D002B0CBF00230623E41ACBE74B6D58
:10C6700008F1FF34DB1B48EA04041C400E4AA1B257
:10C68000D36824B251B9C3F30363032B0CBF08234F
:10C6900000233370936C71801B0ABEE70823F8E710
:10C6A00070190020F0180020721900207419002061
:10C6B000EC180020004000A8000002A87047704756
:10C6C000742231210120FEF7C7B8000010B50446DE
:10C6D00020220021104803F0B0FC61880F4A237823
:10C6E0005180002113700E4A012BC2F8CC104FF07C
:10C6F000FF010C4A0C4B11704FF007010B4A4FF031
:10C700000000C2F8FC130CBF04220122C3F8FC2372
:10C710000122074B1A7010BDE03F00B03E00002020
:10C72000004001A83C000020001002A8002002A840
:10C7300079190020034B1A6802609B8883800020CF
:10C74000704700BF3E000020064BD3F8F83720B9F1
:10C7500083F40030C0F340407047431E58425841B4
:10C76000704700BF000002A84FF63F7208B50D4B9E
:10C77000D3F8FC3793420CD00B4AC3F3011111706C
:10C78000C3F34232013AC3F3042303EB4213074AD3
:10C79000137000F041FD41F66A03B0FBF3F0044B67
:10C7A000186008BD000002A84700002046000020D5
:10C7B0007C19002020B1012804D1034B1878704760
:10C7C000024BFBE700207047470000204600002096
:10C7D00001284FF0FF3098BF0020C0B27047000022
:10C7E000014B1868704700BF80190020816C2DE94B
:10C7F000F84F022938BF02216C4B06461B6A90F89D
:10C80000E090C3F382139A1E012A01F1FF3127D968
:10C810009A1F53425341664D1C462A6865488A4216
:10C82000DFF8B481644F1DD190F800C09C4519D148
:10C8300098F800C0CC4515D1D6F84CC0BCF1000F1B
:10C8400010D05A4AD2F8CC2094450BD15B4A96F8C6
:10C8500016E092F800C0E64504D1B888BDE8F88F2C
:10C860000123D8E729600470002B00F08E80042398
:10C870004FF07F445248C0F8B830524BC3F8B8402C
:10C880000024B37D1B06C0F8B8304FF080504C4BED
:10C890004FEA044AC3F8B4004FF47A7041434A4B5C
:10C8A00001F2E7301968FA2303FB0AF34FF00A0C90
:10C8B000B3FBF1F30CFB03F3B0FA80FCB3FA83FE95
:10C8C000ACEB0E0CBCF1000FD1BF4FF00F0BCCF155
:10C8D0000F0B0CF01F0C23FA0CF34FF0FA0C9842DC
:10C8E00038BF0BF1FF3B631C0BF01F0E65005B00B4
:10C8F00005FA0EF503FA0EF30CFB05F50CFB03F33A
:10C90000B5FBF1F5B3FBF1F30A2045435843401B57
:10C9100001F0A8F940F6FF722C4B4FEA0B21C3F847
:10C92000B4002B4841EA0B11C0F8C42041EA0B01C6
:10C93000A0F58050C0F8C4104AEA042A1B494AEA0C
:10C940000404C1F8CC40D1F8CC1005F58C50C3F8E4
:10C95000FC10F4641F4C05F57A7A1430C4F800A07A
:10C9600001F02AF9194B154AC3F8AC00C3F8F800D6
:10C970004FF47A70236888F80090B3FBF0F3BB8023
:10C98000B37DBAFBF0F0137068E73C78B57D2046C4
:10C99000FFF710FF854228BF0546002C0CBF20245E
:10C9A000102454FA85F4E4B26FE700BF004001A8F8
:10C9B00038000020781900203E00002044000020AC
:10C9C000001002A8002002A87C190020003F00B03F
:10C9D000006001A8801900204500002010B5124B0E
:10C9E00001461B78114C032B03D1FF222270104605
:10C9F00010BD1846FFF7ECFE02461846FFF7DAFEB8
:10CA000081420B4628BF03469A42B8BF1846237896
:10CA1000B8BFC2B29342EAD0054B22701868FFF744
:10CA2000E5FE2278E3E700BF3E0000203C00002046
:10CA30001415002038B5054600F09CFB01213A2072
:10CA4000FBF7CEF9304C314B1D702378013B012BA5
:10CA50000CD80122217CE37B8A4030214B4342F2F7
:10CA6000100103F1804303F570335A500022284B24
:10CA7000C3F87C24002D3FD063689BB300F0CCFB4F
:10CA8000626800EB5203B3FBF2F3013B1B0243F07D
:10CA9000F8032278022A27D0032A29D0012A2ED18E
:10CAA000072243F002034FF6FF701A49C1F88400D1
:10CAB000A1F58051C1F88430154BC3F87C2492074E
:10CAC00009D50122207CE17B8240302000FB01332C
:10CAD00041F210015A504FF0804395B10E4A0020A8
:10CAE000D36438BDF823D4E7062243F00103DAE724
:10CAF000042243F00503D6E72A46F823D3E70022B1
:10CB0000D1E7064AEBE700BF88190020841900200E
:10CB100000C00340006000A8001002A8002002A886
:10CB2000034BDB6C002BBCBF024BC3F88800704783
:10CB3000000002A8004000A84FF0006338B1064A88
:10CB4000D364064B4FF40032C3F884207047044A84
:10CB5000D364044BF6E700BF001002A8005000A801
:10CB6000002002A8006000A82DE9F0472D4B2E4CB4
:10CB70004FF47A76A36000F04FFB4FF4FA73B0FBEA
:10CB8000F6F6734307462948190E1B021818284A5F
:10CB90004FF0000341F1000102F08CFCA0F580731E
:10CBA0000546236320B95F222B21FDF755FE0125A1
:10CBB0004FF47A724FF0000A6A435346500831022C
:10CBC00002F078FC1B4BB7F57A7F19601A4B4FEADD
:10CBD00005688946044618604FEA152505D26F227C
:10CBE0002B215046FDF738FE01264FF47A71A8FB41
:10CBF000010801FB05817308C01841F10001002301
:10CC0000324602F057FC0D4B023419600C4B49F1CF
:10CC10000009A408186044EA8974034B013C9C6332
:10CC2000BDE8F0870211010000C001A820A10700A3
:10CC300040420F00B0190020AC190020A8190020B4
:10CC4000A41900201022044BC3F884215A60012249
:10CC5000024BDA60704700BF00E100E000C001A8AD
:10CC6000824210B5A3EB0101A2EB000404D2044BF5
:10CC700001399B6B01331C44204601F0030110BDB8
:10CC800000C001A8054B0201134401221A604FF4B1
:10CC9000807303FA00F0024B5866704700E101A868
:10CCA00000E001A82DE9F047154606468A461F46D2
:10CCB000FAF7FEFF022D00F0A5808046FDF7FEF892
:10CCC000614B624AD3F8209092F8B1405A6EE4B2B8
:10CCD000520744BFD3F820900134FDF7F3F85C4BC2
:10CCE0001A685C4BA2FB09211868A30700FB0933F3
:10CCF00012F1004204F00302DAF8004043EB0103B2
:10CD0000012D04BF0134E418A3EB040308BFCAF8E3
:10CD10000040B3F1804F7AD34FF0004000234E49DA
:10CD2000D1F800C024F04041ECFB01034B48A40FB4
:10CD30000068DFF844C100FB01334349896B8B4233
:10CD400081BF013401315B1A04F00304A41A994530
:10CD500084BF3D4A04F1FF3404F0030488BF926BA2
:10CD6000A3EB09000CF80640A4B1FC0742BF41F652
:10CD70001F713B4A5167B90742BF394A3949516768
:10CD80007A0742BF0021304A91673C0742BF002129
:10CD90002D4A916511242C4A06F1100102EB061E62
:10CDA0000901CEF80C315450136A526EA3EB0909F5
:10CDB000814526D34FF48073B3401A4221D11CF829
:10CDC0000620002A32D1002D34D0274AF8075366B6
:10CDD00007D541F61F7140F20110214B596750678A
:10CDE0005967B90706D51E4B1E4A1F491F485A6787
:10CDF00048675A677A0742BF01221D4B1A613B07F9
:10CE00000BD44046FBF7D8F80120BDE8F087404638
:10CE1000FBF7D2F80020BDE8F0872120FFF780FE65
:10CE20004FF48032084B4046DA60EBE70E4A40464A
:10CE30005366E7E701240F4A09493601324414607A
:10CE400040464B66E4E700BF00C001A8003E00B0CA
:10CE5000A4190020A8190020AC190020B019002046
:10CE600000E001A800001F1F00D001A80000010180
:10CE7000000002A800E101A89C190020034B10301B
:10CE80000001185800F00100704700BF00C001A861
:10CE9000044B01F0F071103041F003010001195012
:10CEA000704700BF00C001A838B5FDF707F8084B70
:10CEB000084A1D6A92F8B1405A6EE4B2520744BF64
:10CEC0001D6A0134FCF7FEFF284604F0030138BD5B
:10CED00000C001A8003E00B008B52220FFF720FEE8
:10CEE0004FF48022014BDA6008BD00BF00C001A8EA
:10CEF000064B1B68434303EB8171054B1B68A3FB87
:10CF0000003013F1004341EB00007047A8190020E6
:10CF1000A419002008B5FFF7C7FFBDE80840FFF7D8
:10CF2000E7BF10B50446FFF7BFFF844288BF01F199
:10CF3000FF312046BDE8104001F00301FFF7D8BFE4
:10CF40000C4A20F04043014610B5002014684FF011
:10CF50000042E4FB0320084A890F126802FB030029
:10CF6000064B9B6B984204D901330131C01A01F082
:10CF7000030110BDAC190020B019002000C001A8A9
:10CF800038B50446FFF7C6FF0546FFF7C3FF431B4E
:10CF9000A342FAD338BD000008B50B4B0B49186803
:10CFA0000B4B1A68121A00F1304003F039F8094BA4
:10CFB00000211868084B1A68BDE80840121A00F1F1
:10CFC000304003F03AB800BF8438010088380100CF
:10CFD000803801007C3801007838010008B5074B23
:10CFE00007491A684FF03040920003F019F8FFF734
:10CFF000D3FFBDE8084000F063BF00BF74380100F4
:10D000005C04010070B50C68651C03D1002303604B
:10D01000012313E0C4F302669E42C4F307450FD117
:10D02000A4B294420CD804EB8506B24208D2131B7A
:10D0300023F00303CA18536803600023037170BD13
:10D04000013501EB8501DEE7044BC0F3016233F8E3
:10D05000123080B240EA0340704700BF4C04010028
:10D060007FB50C468AB2090CB1F5284F06460B462F
:10D0700014D04AF60100814212D04AF602018B42D6
:10D0800010D0B3F5304F0CBF03250425D6F89430EB
:10D0900053B9D6F89030BBB9206813E00025F5E706
:10D0A0000125F3E70225F1E719680029F1D02B46A5
:10D0B00002A80192FFF7A6FF9DF80C300298019A92
:10D0C000002BE6D104B070BD19680029E4D02B46CE
:10D0D00002A8FFF797FF9DF80C300298002BDBD1D8
:10D0E000F0E7000007B501A8FCF746FFC822094B8E
:10D0F0005A65094B094AD3F86032DBB2FF2B08BFEF
:10D1000003239B0043F47F53C2F8F83303B05DF868
:10D1100004FB00BF008001A80080E00F000002A80F
:10D12000002310B5104C012123643A206364A364EA
:10D13000FAF756FE01220D4B5A6102229A62E36809
:10D14000C3F303630D2B01D0002BF8D11123A3638C
:10D15000074B1B6898474FF08062044B5A610122CD
:10D1600003F580535A6110BD000002A8001002A808
:10D1700048000020012341F6FF710D4AC2F88032B9
:10D1800091660C4A53600C4A53600C4A5360A2F5F6
:10D1900080425360A2F54042536002F5C0325360B2
:10D1A00002F580425360A2F500425360704700BF11
:10D1B0000090004000D000A8001000AA005001A874
:10D1C00010B50324FFF7D6FFFFF78CFF0E4B0F4A75
:10D1D000C3F8E04003F53043DA64012203F58053DD
:10D1E000DA644FF460725A614FF40072DA64FEF749
:10D1F00007FF8022064B1C64A3F580535C64054B3B
:10D20000C3F884215A6010BD005001A80008F00046
:10D2100000A002A800E100E008B5FAF75FFD044BAA
:10D220001B6FC3F300430133B0FBF3F008BD00BF35
:10D23000008000402DE9F04F044685B000900F4675
:10D2400057F8045B6B1C06D1009B2560E01A801028
:10D2500005B0BDE8F08F5FEA157B284614BF0121B9
:10D26000C5F30741FFF7F0FE4FEAC10900F06F4236
:10D27000B2F1204F2C4B09F104022244064608BFAC
:10D2800020F070469A4218D8C5F301620725BA46C5
:10D290008B00019306EB8103D54002930BF1FF3322
:10D2A00005F0010504F108080393029B9E4209D191
:10D2B000019B4C443B441946C1E71C4B9C42E3D8BC
:10D2C0000020C5E7039B062B0BD8DFE803F02304FF
:10D2D0000C040C23040040F2535232210020FDF7CD
:10D2E000BBFA002207E04FF4AB6232212846FDF77B
:10D2F000B3FA4FF48052324448F8082C5AF8042B01
:10D30000BBF1010F08BFD243043648F8042C08F1E2
:10D310000808CAE740F2615232212846FDF79CFA1C
:10D320004FF40052E7E700BFDF4F00B0E04F00B01E
:10D330002DE9F041054600B30024164A1649264659
:10D3400090460F4652F8043BCBB91448294600EBEF
:10D350008600FFF76FFF034648B940F2CD523621F1
:10D36000BDE8F041FDF778BA31F8026BEAE73344E3
:10D37000013348F8245027F81430BDE8F081AB425F
:10D38000FBD001340C2CEFD140F2DB5236210020CF
:10D39000E6E700BFB4190020E4190020404000B0C7
:10D3A00070B50446A0B1C9B10C2200232D492E4806
:10D3B00051F8045BA5420FD12C4A116CC907FCD46B
:10D3C0009B0003F5804340331360294B01221A640C
:10D3D00070BD30F8023BEBE7013AFAD101252BE0B2
:10D3E0000846FFF731FE0E0C16F0FE0F03460ED076
:10D3F0002146F6B2B20000EB8606B34251F8040FA4
:10D4000002D1131D1C4417E043F8040BF5E7090F84
:10D410006068083407290FD8DFE801F00A0408190A
:10D420000C171C1FC04303F5005301E01A6850405D
:10D43000186001E0FFF7A4FD21684B1CD0D1002249
:10D440000A4B1A6003F58053C0E705FA00F003F5B4
:10D450008053EDE705FA00F0E5E71A6830EA0202CA
:10D46000FBD1E9E7B4190020E419002000C002A8AC
:10D4700000D002A808B50C4B1B68D3F8983023B134
:10D480001A68022A01D9186A08BDFFF7C5FE074BC2
:10D4900002469B6D98B20028F6D0C3F30743D2082A
:10D4A0005343B3FBF0F0EFE714150020004001A850
:10D4B000064BDB68C3F30363984206D10448836FCD
:10D4C00023F0F00242EA011282677047000002A8CE
:10D4D000003F00B010B50446FFF7CCFF0F4AD2F86A
:10D4E00038311B040E4B48BF40089B6C03F4C053FB
:10D4F000B3F5805F0ABF936BC4F30113C3F34163B9
:10D50000012B02D0022B02D010BD4008FCE7C4F36F
:10D51000C4240134B0FBF4F0F6E700BF004001A8DA
:10D52000004000A800F03003202B10B513D110F4F8
:10D53000E02FC0F302431CBFC0F3C422B2FBF3F3DD
:10D5400010F4C01F18BF5B00052B0DD85C08FFF757
:10D55000C1FF604310BDC0F38213012B06D0042B22
:10D5600014BF01240224F2E70424F0E70224EEE7CA
:10D570002DE9F84F0546FFF7CDFC00268046DFF881
:10D580009CB0FAF795FB224B8246D968C1F303633E
:10D590009F1E012BFFB228D0052B28D0A3F10B0131
:10D5A000D1F1000949EB0109012F22D8194B9969E2
:10D5B000C1F389140A0448BF44EA0B0424B26B1C6B
:10D5C00003D0FFF7A7FCA0EB08065046FAF7F4FCDF
:10D5D00014F5007F14D1012F02D9B9F1000F01D049
:10D5E000AE42CED32046BDE8F88F9946DCE74FF037
:10D5F0000109094CE3E7512CA8BF4FF4FE74F1E791
:10D60000C83C24B214F5007FF5DC6FF4FF74E9E741
:10D61000000002A800C000A800FEFFFF00FCFFFF02
:10D620000122024B98611A61704700BF000001A8F7
:10D63000044BD3F8AC3010B1C3F30332027003F0E3
:10D640000F007047000002A810B5FAF731FB084B35
:10D6500004461B683BB1984728B1002200204FF4D4
:10D66000806100F02FFD2046BDE81040FAF7A4BC11
:10D67000FC1900204FF604014FF60502044B01206F
:10D680001B6C9BB28B4208BF1346024A136670475D
:10D690000080E00F00C001A84FF0284359699A6943
:10D6A00003F500530A405A617047000008B5FFF7C0
:10D6B000F3FF0122054B93F8A93002335B00DBB284
:10D6C00002FA03F3024A536108BD00BF003E00B0F6
:10D6D000002000A8F8B50B46002213F8044B944232
:10D6E00025D91D68854224D106245A791D79124B0B
:10D6F00088181E6804FB0503104F33F8063C7B4373
:10D70000B3420ED900238A5A7A43964202D804FBC8
:10D710000300F8BD9D42FAD9013304FB03F2825A9B
:10D72000F2E74FF45A723D210020FDF795F80020F2
:10D73000EFE708330132D2E7041A002040420F001D
:10D7400000202DE9F84FA2FB01ABC94EDFF854C30E
:10D750001AEB06061F466BF10003B44570EB03039A
:10D7600007D24FF4F4720E21FDF776F80220BDE8DF
:10D77000F88FD7F814900C461546B9F1000F04D075
:10D78000D9F80030032B00F2F880BA4BBA4A9B6BF1
:10D79000D2F8FC90C3F31408B84BD3F8EC3059001E
:10D7A000B64B48BF48F400181B6E5A074EBF4FF4E3
:10D7B00040039B0503F0E07348EA0308B04BD3F83D
:10D7C000E4309B0748BF48F0807848EA4568FAF79C
:10D7D000FDFA012D0646C9D10028C7D0A94B1C600F
:10D7E000A94B984200F0DA8000254FEACB4132463F
:10D7F0002B4641EA5A314FEACA4001F05BFEC8F3BA
:10D800001303A3FB062603FB0565D60C46EA453643
:10D8100018F4801F08BF76429C4B9D4D34443860FD
:10D820001E602C60B9F1000F00F0C28000239949FE
:10D83000C8F381528A5C194618F0807F18BF6408CB
:10D84000002EB8BF764292066008C2FB060122464F
:10D8500001F030FE18F4001FC0F31300D9F81810BF
:10D8600078600CBF40F20710C4208B4B4FF4FA7263
:10D87000A3FB04635B0900FB03F3B3FBF1F303FBBE
:10D8800002F2FA32A2FB0121A4FB0006824271EBF4
:10D89000060238BF0133DBB243F40061B960002BEC
:10D8A00000F08480B4FA84F2D9F81C600E2AA3FB3D
:10D8B000060C7FDDE203BCF1000F40F09380B2FB69
:10D8C000F0F2500000FB0330A6FB00EC4FEA0448E6
:10D8D000F0454FEA144474EB0C0C09D35B00184478
:10D8E000A6FB00ECF04574EB0C0C02F10102F6D241
:10D8F000D9F80030C2F30E0241EA023242F000626F
:10D90000062BBA6071D9D9F83030002B6DD00023C6
:10D91000C7E90333FAF75AFAD9F83010FFF7DAFEFD
:10D92000044618B1A378002B40F0BE80FAF7D2F974
:10D93000D9F83010FFF7CEFE0446002838D083789F
:10D94000002B35D0407940F25942003818BF0120F1
:10D950003D21FCF781FF207940F25A4200384FF018
:10D960003D0118BF0120FCF777FF237962791B0284
:10D9700043EA021300203B61F9E6042BD9F8288022
:10D980007FF425AF18F0807F14BF4FF4400308F0F8
:10D99000E07328F0E07848EA030818E73F490025DB
:10D9A000AAFB01A001FB0B00800928E70120DEE6AD
:10D9B0000020DCE6C2F10F0E02F111080CFA08F8A3
:10D9C00020FA0EF040EA0800AEF120082CFA08F820
:10D9D00040EA08002CFA0EFC013004FA02F24CF185
:10D9E000000C68E7184600226EE7FAF7EFF92C689A
:10D9F000B4FA84F3D3F1020300D4DC40284B9C42F8
:10DA000088BF640820B3B4FBF0F3642100FB134229
:10DA100001FB02F2904221D85A1E52085B08013BDA
:10DA2000120242EA0313FB60FAF758F9C0B1B4FBE3
:10DA3000F0F3642100FB134401FB04F4A04215D869
:10DA40005A1E52085B08013B120242EA031391E797
:10DA500040F2AE322B21FCF7FFFE2346013BDBE711
:10DA600040F2D1322B21FCF7F7FE2346013BE7E7DA
:10DA7000006CCA88008001A8004F00B0004001A8D7
:10DA8000000002A8081A002000F04902001A002035
:10DA9000041A002054040100D34D62100A3BB2DF87
:10DAA0003FBE4025807C814A607940F24142003887
:10DAB00018BF01203D21FCF7CFFE207940F2424201
:10DAC000003818BF01203D21FCF7C6FE237962799A
:10DAD0001B0243EA0213FB6028E700BF10B50446AF
:10DAE00086B059B9204B4168D3F8FC30827A1F4880
:10DAF000059300686B46FFF723FE69461C4B0A68D6
:10DB00005A63194BD3F8FC3033B34B6843B1194B0C
:10DB1000194AC3F80C214A68A3F58053C3F80C21B5
:10DB20008B6843B1134B154AC3F8EC208A68A3F500
:10DB30008053C3F8EC20124AC868D2F8743123F439
:10DB4000EE630343C2F87431D2F86C31096923F4EF
:10DB5000EE630B43C2F86C3100202289044B1A6437
:10DB6000586406B010BD00BF004F00B0141500206F
:10DB7000008001A8006001A8FFFF0F00FFF8FF0F61
:10DB8000000002A8032070477047000042F21071A5
:10DB9000084A506EC0F30113000C03FB00038B42D4
:10DBA0009FBF506A00F01F000130C01888BF4FF0BF
:10DBB000FF307047004001A8084BC1171A68A2FB4C
:10DBC000000302FB013310F1807043F10003400EAB
:10DBD00040EAC310803820EAE07070470C1A002039
:10DBE0000722194B70B5DA63FFF716FB174BC40811
:10DBF000010B0546E005C018154A41F1000100235C
:10DC000001F058FC134B144E18601448FFF7D4FF72
:10DC10004042C6F8DC0049F65800FFF7CDFFC6F8D1
:10DC2000B0000F48FFF78CF9024660B1E3015008DD
:10DC300018184FEA15714FF0000341F1000101F08F
:10DC400039FCC6F8B80070BD000002A8B2E60E00AC
:10DC500065CD1D000C1A0020003F00B070110100BE
:10DC600040420F00084BC1171A68A2FB000302FBD9
:10DC7000013310F1807043F10003400E40EAC310FD
:10DC800020EAE070704700BF0C1A002030B14FF45A
:10DC90007A735843A0F57A60FFF78EBF49F640408B
:10DCA000FAE700002DE9F0410C460646002800F096
:10DCB000848011F0040546D0C06900287FD04FF45D
:10DCC0007A735843B368A0F57A60C01AFFF774FFFF
:10DCD000424BC3F8CC00308D002873D04FF47A73D8
:10DCE0005843B368A0F57A60C01AFFF765FF3B4B55
:10DCF000C3F8C400B369002B67D04FF47A72534362
:10DD0000B268A3F5EA530C3B9B1A72689B1A344A1B
:10DD1000D8171168314FA1FB033201FB002213F128
:10DD2000807342F100025B0E43EAC213803BC7F8E6
:10DD3000C830D6F82480FEF753FD01464046FFF771
:10DD4000A5FFC7F8D800A3071CD54FF47A70336934
:10DD5000584323B1336803F51C5310331844FFF7BD
:10DD60002BFF1E4BC3F8D400336A8BB34FF47A7287
:10DD7000B06802FB0300A0F5FA50FFF71DFF174B38
:10DD8000C3F8D000CDB1706928B34FF47A7358430B
:10DD9000A0F5FA50FFF710FF104CC4F8BC004FF488
:10DDA0007A70F368584323B1336803F51C5310337A
:10DDB0001844FFF701FFC4F8C000BDE8F08149F640
:10DDC000404083E749F640408FE749F640439EE7ED
:10DDD00047F23050D1E747F23050DBE7003F00B068
:10DDE0000C1A002058B111441422B0FBF2F2044B7B
:10DDF00003FB01220A23B0FBF3F0B2FBF0F0704703
:10DE0000A086010038B505460C46C1B18B79B3B187
:10DE1000013B062B0CD8DFE803F02004061A1C2275
:10DE2000200003238B71FFF7B1FE431C014607D18D
:10DE30000020A071A37913B123681844206038BD75
:10DE4000A288D2002846FFF7CDFF4042F2E7052323
:10DE50008B71A2880021D200F4E706238B71002089
:10DE6000E8E7000070B5054608461646FFF759F882
:10DE700004462846FEF782F8B0B19EB10C4B5B68B1
:10DE80000C4AD2F8D42012F0060F03D00A4AD26FFF
:10DE900002B902344FF47A7003F5FA73B3FBF0F071
:10DEA000201A70BD054BEAE7D5F8AC30E8E700BFB3
:10DEB00014040100003E00B0003F00B02004010047
:10DEC00070B588B06D46124C0FCC0FC594E80F00AA
:10DED00085E80F00942200210E4802F0AEF82022BF
:10DEE00000210D4802F0A9F8D02200210B4802F0D1
:10DEF000A4F8FFF749FE0A4B1B783BB16D46044E70
:10DF00000FCD0FC695E80F0084E80F0008B070BD74
:10DF1000E03F00B06C3F00B0E04F00B09C3E00B06E
:10DF2000791900200A4B197801F0FF0229B100216C
:10DF3000197008499202C1F80421597801F0FF02D2
:10DF400029B1002159709302024AC2F80831704782
:10DF5000261A0020005000A8064BD3F8080F064BE5
:10DF60005B6C1A0103D4054B9B6E1B0401D500F5B5
:10DF700080707047003000B0000002A8004000A888
:10DF800008B5F9F795FE0E4B1B7893B90D4A126848
:10DF900012F4843F0DD110220B4BDA64094B1B683D
:10DFA000DB050BD4084B2022DA64BDE80840FAF701
:10DFB00003B81021054AD164002BEFD0034BF2E7E0
:10DFC000211A0020181A0020002002A8001002A820
:10DFD0000022044B1A70044B197811B11A70FFF724
:10DFE000CFBF7047221A0020211A002010B5F9F780
:10DFF0005FFE0E2104460320FFF75AFA40F2012289
:10E00000034B2046BDE81040DA62F9F7D5BF00BFE8
:10E01000004000A808B503210920FFF749FA202293
:10E02000014B1A6108BD00BF000002A808B5F9F74E
:10E030003FFE4FF00042224BC3F88020BFF34F8FCA
:10E04000BFF36F8F0122C3F88420BFF34F8FBFF35C
:10E050006F8F0222C3F88420BFF34F8FBFF36F8FFF
:10E060000422C3F88420BFF34F8FBFF36F8F0822C1
:10E07000C3F88420BFF34F8FBFF36F8F1022C3F814
:10E080008420BFF34F8FBFF36F8F2022C3F884200B
:10E09000BFF34F8FBFF36F8F4022C3F88420BFF3CD
:10E0A0004F8FBFF36F8F4FF48062C3F88420BFF3AC
:10E0B0004F8FBFF36F8FBDE80840F9F77DBF00BFFA
:10E0C00000E100E0012370B5074C2370074B1E6888
:10E0D000074B3240D3E9005319402840FCF7DEFCDF
:10E0E0000023237070BD00BF201A0020141A0020E6
:10E0F000181A00202DE9F84FDDF828B003EA0108CE
:10E100000B9B06460D4602EA000903EA0B0ABBF127
:10E11000000F40F06B81031F0B4300F03081052896
:10E1200071F1000380F0038150EA010300F0848163
:10E13000431E0B4300F03F81FFF778FFBF4BD3E94D
:10E14000004727EA050724EA060444EA090447EAE7
:10E150000807C3E90047BA4B1E6826EA0B0646EAE1
:10E160000A061E60FFF70CFF14F02A4F14BF48F296
:10E1700002034FF40043B34AB007D26EB24848BF1F
:10E1800043F4005383EA020122EA0302C266AF4A63
:10E1900081660B406103D36604F4802348BF4FF4CB
:10E1A0008053220348BF43F48073E50648BF43F41D
:10E1B0000053A00648BF43F40073610648BF43F410
:10E1C00080632206A24A48BF43F40063D2F80C22BF
:10E1D000A04883EA020122EA0302C0F80C229E4A08
:10E1E0000B4017F4007FC0F8081207F40075C2F85E
:10E1F0000C324FF00052994B00F017814FF0402144
:10E2000000204FF48025C1F8A400C3F880211A60D3
:10E21000E30448BF45F48035A00348BF45F48015AA
:10E22000A10748BF45F4001514F4001FDFF864820D
:10E2300006D0D8F8000001F03AF908B945F40025F5
:10E24000E20248BF45F40035FB06854B48BF45F464
:10E2500080051A6A834985EA020323F001031A4004
:10E260000A621D40CB61804A804B16F0010F1D628F
:10E270007F4B18BF13467F4A7D07126F48BF43F09C
:10E2800000637D4883EA020122EA030202677B4AB7
:10E290000B4041661367A2F58832926C04F00103CB
:10E2A00083EA0201A0F5803022EA03028264744A04
:10E2B0000B4041649364D8F80020200248BF714BA2
:10E2C00092F8F92058BF704B610748BF43F4806350
:10E2D00022B114F4C06F18BF43F4807332074FF0BB
:10E2E0002A42D2F8181148BF43F0004383EA0102E2
:10E2F00022F4A022654811401340C0F81811C0F85C
:10E300001421634AC2F81831F9F7D2FC4FF00042E9
:10E31000524B1A6001225A6004225A6008225A6045
:10E3200010225A6020225A6040225A603DE0A0F537
:10E3300080630B4306D020F48063A3F500730B4386
:10E340007FF4FAAEF9F7B4FC3C4BD3E9004124EA80
:10E35000060421EA050144EA090441EA0801C3E987
:10E3600000414C4B1B6893F8F93013B314F4C06FA1
:10E370001FD0474B4FF48072C3F8182115E0F9F70E
:10E3800097FC2E4AD2E9003123F0040343EA090343
:10E3900041EA0801C2E9003159EA08034FF48063F9
:10E3A00014BF3B4A394AC2F81831BDE8F84FF9F7B3
:10E3B00003BE364BDEE7F9F77BFC204AD2E9003199
:10E3C00023F0010343EA090341EA0801C2E90031ED
:10E3D00059EA08034FF001032F4A1BBF5364A2F50B
:10E3E00080529364936408BF5364DEE750EA0103EC
:10E3F0007FF4A2AEBBF1010F7FF49EAEF9F758FC9B
:10E400000F4A136823F0010343EA0A0313604FF431
:10E410008063194ABAF1000F04D05366A2F5805206
:10E420001367C2E713675366BFE7C3F88020BFF3E3
:10E430004F8FBFF36F8FEBE6BDE8F88F181A0020FF
:10E44000141A0020004000A8006000A8005000A896
:10E45000004001A8006001A8005001A800E100E010
:10E46000000002A8002002A8041C0003001002A85B
:10E470000418000300C001A800E001A800D001A812
:10E4800000D000A80D0A0A09090A0A09002000AAFA
:10E49000001000AA1415002000E000A8024B5868E4
:10E4A000C0F3C000704700BF181A0020024B186864
:10E4B00000F00100704700BF181A0020034B1B68D2
:10E4C00013F4C06F14BF012000207047181A0020F9
:10E4D00010B50446FEF774FEFFF7A8FD04F15000E6
:10E4E000FDF71CFFFEF71CFEFEF73EFBFEF7AAFB46
:10E4F000FFF776FB072104F1A800FFF7D3FB4FF0ED
:10E5000080710020FEF7C4FC4FF000720B4B4FF4FB
:10E5100000110120C3F80021FEF7BAFCFFF7AAF8AA
:10E5200020B940F2C1221421FCF796F9FFF72AFB2B
:10E53000BDE810400120FEF77DBA00BF00D001A861
:10E540008022074B1A64082203F580531A64054A97
:10E55000D2F8DC3E23F02003C2F8DC3E704700BF57
:10E56000001002A8003000B0614B5B69DB0740F18E
:10E570008280F0B50C4683B00546F9F799FB00227E
:10E5800023790646022B00923BD1237B022B32D00B
:10E590000320FEF773FC00286FD0A37B277B003B92
:10E5A00018BF0123A2685349012F01920B7071D04B
:10E5B0000023514C514922780B70002A75D1042058
:10E5C000FEF760FB04204A4D3A466B6F0DEB0001ED
:10E5D00023F0F85323F4F81343F0506343F48033EB
:10E5E0006B670223FEF75EFB00287AD00121302200
:10E5F000434B2170DA643046F9F7DEFC002003B0AB
:10E60000F0BD0320FEF73AFC00283AD12279D5F874
:10E61000BC30012A22683AD0D01A0027009001208D
:10E62000334B384A38495A679F67637B374ABB4246
:10E630000CBF03463B461370354B354AD3F8DC3EDE
:10E6400008700CBF43F0200323F02003C2F8DC3E27
:10E650000320FEF717FB264B2E4A03205A67694614
:10E6600001232279FEF71EFB00288ED13046F9F7F0
:10E67000A3FC0120C3E703207047274BDB685A0443
:10E680008BD43046F9F798FC032003B0F0BD9A42D2
:10E69000C3D3C1E72379022B8AD0009BD5F8BC10E5
:10E6A00000270B441A44019282E72370F9F700FB1C
:10E6B00023785BB9194B10211B6813F4843F0ED1EA
:10E6C000174ADB05D16404D4154B03E010220C4B30
:10E6D000DA640B4B2022DA64F9F76EFC6FE7084A24
:10E6E000EFE70320FEF7CEFA064B30466B67C9E72B
:10E6F00000C001A8241A0020211A0020221A00209C
:10E70000001002A800000101231A0020251A002091
:10E71000003000B0010C0100000002A8181A00200F
:10E72000002002A82DE9F341224D80466B690F4677
:10E73000DA070DD5F9F7BCFA06460320FEF79EFB73
:10E7400018B96C6914F0060404D03046F9F734FCAB
:10E75000032027E0184B1C70FFF7F2FE174B6B6786
:10E76000AC677879431E58425841FDF751F840F69E
:10E770000143AB673A793D68012AD8F8C43001D12A
:10E780009D4200D3EC1A042303200DEB03010194F6
:10E79000FEF788FA48B98822094B30461A64F9F71F
:10E7A0000BFC012002B0BDE8F0813046F9F704FC13
:10E7B0000020F7E700C001A8231A00200000010193
:10E7C000002002A838B5164C0546207840F2D63213
:10E7D000B0FA80F03E214009FCF73EF855B14FF405
:10E7E0004062104BD3F80431C3F3812323700E4BE6
:10E7F000C3F80421607840F2D632B0FA80F03E21AE
:10E800004009FCF729F855B14FF44062054BD3F8A5
:10E810000831C3F381236370034BC3F8082138BD6B
:10E82000261A0020004000A8006000A8F8B5084C97
:10E83000084D236C0423084F2B64236C5B0300D426
:10E84000F8BD042602203E64FEF79AFB2E64F4E72E
:10E85000000002A8001002A8002002A8A82238B5D3
:10E860001B4B1D6C03F500531A6410229A604FF085
:10E870000052A3F580431A675A66FFF753FB154B06
:10E880001B7813B90320FEF7FDF90024124B9C6797
:10E89000FFF7CCFF114A124BD2F8081F0B40C2F809
:10E8A000083F04220F4B1A640F4BAA06C3F8E4403A
:10E8B00009D503F58073D3F88830B3F5817F22BF83
:10E8C0008022034B1A61BDE83840FDF7D7B800BF7E
:10E8D000000002A8231A002000C001A8003000B0E8
:10E8E000DF0000FF002002A8003E00B04FF4C0622D
:10E8F000154B10B5DA6208B959B910BD49B9134BB7
:10E90000DB681B0E13F00E0FF7D1114B1B6CD907F0
:10E91000F3D40E4C0020FEF78BFE032801D009280B
:10E9200005D1A36ADA07F5D4636CDB03F2D4FFF7F1
:10E930007DFF0122074B5A6102229A62042203F5ED
:10E9400080531A64D9E700BF006001A8000002A844
:10E9500000C002A8001002A84FF040230022C3F814
:10E96000A420064ADA674FF0404203F50053C3F88B
:10E97000A0204FF48022024BDA6170470000FF01B3
:10E98000001002A838B50546F9F792F90446FDF7DC
:10E9900075FC35B1FFF71CFB2046BDE83840F9F7A0
:10E9A0000BBB084B1B78002BF6D0074B1D78002DB6
:10E9B000F2D1FFF70DFB2A464FF480400021FFF70C
:10E9C00081FBE9E7221A0020201A00202DE9F843F4
:10E9D000154604460E46FDF751F8A0223F4B032092
:10E9E0001A64FEF74BFA28B10320FEF74BF9042016
:10E9F000FEF748F94FF00009394B3A4A4FF0040846
:10EA00005A67C3F87890FFF711FF374B3348D3F8B4
:10EA1000DC2E364F42F02002C3F8DC2EFF2282604B
:10EA20004FF480723A61D3F8081F314A0A40C3F8A4
:10EA3000082FC0F84080C3F8E49E54B1FFF7D6FA1F
:10EA4000FEF74AFAFFF7E6FA4046FEF71BF9FFF732
:10EA500069FA7B69DB073ED5244AD36813F0706FEF
:10EA6000FBD1244B1D4C244A2364936F23F0F00305
:10EA7000936716B12846FFF785FF0123636155B3FD
:10EA80001E4BDA6E03F500539A6603F5D0331B6A0A
:10EA9000E3611B4BD3F80C2203F50053C3F80822A3
:10EAA00003F50053D3F8842003F500539A674FF021
:10EAB0002A43D3F8182103F50053C3F81421114B4E
:10EAC0009A6C03F500535A640F4A03F580335A6673
:10EAD0004FF608432364BDE8F88300BF002002A876
:10EAE00000C001A800000101003000B0000002A831
:10EAF000DF0000FF10003000003F00B0004000A821
:10EB0000004001A800C000A85000002FA24B2DE932
:10EB1000F04F9F6EDB6E85B01F40A04B9F664FF09D
:10EB20002A43D3F81451D3F818311D409C4BC3F835
:10EB300014519C4BD3F80822D3F80C3202EA030993
:10EB4000994BC3F8089203F52043DA691B6A02EA7D
:10EB50000308964B964A08EA0303D361954BD3F812
:10EB60000422D20606D4D3F80431C3F30016DB0620
:10EB700040F1EA80F9F79CF88F4B5A695E6E1B6F83
:10EB800012F0060F06EA03068C4A26F0007314BF43
:10EB90004FF0010A4FF0000A23F400637407536634
:10EBA00006D5874A92F8B1300133DBB282F8B13032
:10EBB000F9F702FA002F00F0EB8017F4004300F0A1
:10EBC000D880F9F775F80146FFF7C6F90446DFF873
:10EBD000E8B1DBF82020DBF820309A42FBD0DBF8EC
:10EBE00020209342FBD0FFF7B7F9A042034640F044
:10EBF000AD800846F9F7E0F9724B1C60724BD3F810
:10EC000040B01BF4E05040F0A38024F07F4424F097
:10EC1000DF04002C40F0B080FFF720FE4FF0807B37
:10EC2000B80715D5684A6248126C02F46041016465
:10EC3000002900F0A780110400F1A78012F4005F02
:10EC400014BF4FF000624FF0005200244BEA020B59
:10EC500017F4005718BF02275C4A2A40002A4BD0FD
:10EC600015F4206F0AD00020FFF78CFE40F23672B8
:10EC70000621002025F48025FBF7EEFDEB0506D5E7
:10EC8000FF214B4A4BF4C06B9160FFF7AFF915F0D1
:10EC9000090F0BD0FFF7BEF94FF02A4201210020E7
:10ECA000516340F249720821FBF7D6FD15F0106F51
:10ECB0000CD0FFF7AFF9002211461046FDF7C2FA5B
:10ECC00040F2527209210020FBF7C6FD15F4202FF7
:10ECD0000AD00020FFF756FE40F25D7207210020A7
:10ECE00025F48025FBF7B8FDE80301D5FDF714FCFA
:10ECF000002DB8BF47F0080769070ED54FF02A422C
:10ED0000126B12F4005F4FF4005217BF24493049D0
:10ED10000A634BF4000B08BF0A636A0548BF4BF057
:10ED2000040B15F48023019300F0B780FDF7B8FBC6
:10ED3000013806284ED8DFE810F028012B01280101
:10ED40002E01310134013401B24633E71C4640E75D
:10ED50000190FFF783FD164B01981BF48054186453
:10ED60000DD11BF4806F14BF4FF0806B4FF0805BB0
:10ED700056E79B46002453E74FF0807BFAE74FF0BD
:10ED8000804BF7E74FF000725FE74FF000425CE71F
:10ED9000BB463C4660E700BF004000A8006000A8FA
:10EDA000002000AA004001A8006001A80000F7FFB1
:10EDB000002002A800E100E000C001A800E001A8D6
:10EDC000003E00B0101A0020000002A8090B0B89B9
:10EDD000001000AA40F2897203210020FBF73CFDDD
:10EDE0004FF02A400121D0F88C20D0F8AC3002F04E
:10EDF0000702063201FA02F2C3F30C0CA2EB0C027A
:10EE000092B2072A12D9744A126C53020ED4734B71
:10EE1000C26CC06E5B6D5BB102F0070206329140BE
:10EE2000C0F30C00091A89B2052901D84BF4007B04
:10EE30006B4A1278002A30D04FF02A42D2F81421BF
:10EE400012F4A02F29D1674A674912787AB916F4CB
:10EE500080520CD1087850B11BF0080F08BF022275
:10EE60006248D0F8080F20FA02F2910715D1042069
:10EE7000FDF708FF5E4A5F485067FFF7A9F85A4957
:10EE80000A7832B95C4A5D4912680BEA02020A420A
:10EE900001D14BF4804B26F48056B9F1000F1DD000
:10EEA00019F4805F18BF4BF4802B19F4807F18BFD2
:10EEB0004BF4002B19F4005F18BF4BF0100B19F442
:10EEC000007F18BF4BF0200B19F4806F18BF4BF078
:10EED000400B19F4006F18BF4BF0800BB8F1000F16
:10EEE00036D018F4802F18BF44F4007418F4803F13
:10EEF00018BF4BF4805B18F4801F18BF4BF4003B25
:10EF000018F4001F18BF4BF0020B18F4003F18BF95
:10EF10004BF4801B18F4800F18BF44F0100418F451
:10EF2000002F15D0314AD2F8DC2E12F0C00F0FD0CE
:10EF30002949CA68C2F30362032A01D0072A33D1E0
:10EF40004A6CD20630D48A6C13072DD44BF4001BC4
:10EF5000002E00F00B81300540F18B802848DFF84F
:10EF60009090C2782749002A54D04FF40063013AA8
:10EF7000D2B24B66C2703ABB23490878D8B140F68A
:10EF8000014022494867002170E04BF4803B27E7AD
:10EF90004BF4006B24E74BF4806B21E74BF4807B50
:10EFA0001EE74BF0080B1BE74FF40021184A28F42A
:10EFB0000028D161CCE7D9F8782012F4A05205D00E
:10EFC0004FF48072C9F858200022DCE740F6014176
:10EFD000C9F87810D7E700BF000002A8004000A8D9
:10EFE000211A0020221A0020251A0020003000B02B
:10EFF00000C001A800000101181A0020088D0100BE
:10F000009C19002000E001A8231A002000D001A8CC
:10F01000002002A80320FDF735FED9F814204FF494
:10F02000006012F0060F02BF41F61F7292494A6754
:10F03000914A924950664A69914812F0060208BF07
:10F040008A67B0F8B22012F400615DD022F4006249
:10F05000A0F8B2208B4A92F80090B9F1000F56D177
:10F06000FDF73AFFFFF7FAFB4A4620214BEA020B75
:10F070000C43B10009D52B20FDF752FD4FF0005194
:10F080007D4A44F008041167516616F0306F05D1CF
:10F09000F2045BD5BAF1000F00F09880330139D546
:10F0A0002920FDF73DFD44F00409FFF7F7F988B189
:10F0B0004FF00052744870494A66026700F54050AC
:10F0C000C068400406D50A672D204A6644F00C0942
:10F0D000FDF726FD16F0007A1ED00420FDF7D2FDC4
:10F0E0002720FDF71DFDFFF7B9FB4FF00071624AC5
:10F0F0005166664A49F00209D2F8082F54065EBFED
:10F100000221634A91601DE04FF40052AEE74FF4D4
:10F11000004238E7A146DDE716F0807F574C42D029
:10F120000420FDF7AFFD2820FDF7FAFCA26F002AAE
:10F1300036D1FFF793FB4FF000514F4A49F00109D8
:10F140001167516600214C464C4A9165320402D544
:10F15000504A12689047730508D54F498A78002AAB
:10F1600000F08580013A8A70002217433A465846DB
:10F170002146FEF7A7FF019B0BB1FDF7BFF918F47D
:10F18000002F18BF4FF40022444B05F00435C3F89C
:10F1900014511CBFA3F1FF73DA6105B0BDE8F08F15
:10F1A000C4F878A0C7E7F304CCD50420FDF76AFDC6
:10F1B0003B4A6267FDF790FE626E12F0407FC1D15C
:10F1C0002A20FDF7ADFCFFF749FB92E732490A79A7
:10F1D0004AB1013AD2B20A7112B92B4A3149516788
:10F1E0004BEA0A0BB2E70420FDF74CFD0320FDF7C4
:10F1F00049FD224A2A495167F8F75AFD81460DF127
:10F200000F00FEF715FA284A824612780AB1FEF777
:10F21000EDFEBAF1030F0ED1DFF894A00020FEF747
:10F2200007FA032807D1DAF82820D007F6D4DAF84D
:10F230004420D103F2D49DF80F20032A08D10121E4
:10F240001A4A484611704FF0000AF8F7B5FEC7E7B2
:10F250004FF02A42D2F8142112F4A02FEFD1FEF77A
:10F26000B7FE4846F8F7A8FE4FF4804AB8E70220F8
:10F27000FDF708FD012278E700E001A800C001A821
:10F28000003E00B0231A002000D001A8003000B0DA
:10F29000002002A8540000209C190020002000AA91
:10F2A000000001010000010D241A0020221A002094
:10F2B000000002A8FFF72ABCFFF728BCFFF726BC16
:10F2C000FFF724BC074A08B5D369116A0B40064909
:10F2D00098B2DB07C86104D5D068C0F30360F8F7C3
:10F2E0007CFD08BD000002A8002002A8FFF70EBCAC
:10F2F0000C4A08B5536C926C13400B4A5364DB07FD
:10F300000FD50A4B40F684121878122100F0010044
:10F31000FBF7A2FABDE80840002201200021FEF719
:10F32000D1BE08BD00C000A800E000A8181A002047
:10F33000054AD2F88430DB07FBD4936FD2F88420DF
:10F340001340024A93677047008001A800A001A8FB
:10F35000174B70B51C6C5A6C1440164A24F002010D
:10F360001164E10705D54FF41B6200201968FBF713
:10F3700073FAA2071AD502210D4B0E4A5B6811647D
:10F38000DBB29BB9FDF790FD04460D460A4EF36DC6
:10F39000DB060BD5FDF788FD0B46024629462046C5
:10F3A000FDF75EFC652871F10003F0D370BD00BF6E
:10F3B000008002A800A002A8000002A870B51446B0
:10F3C0000D46F8F775FC064BD3F8DC6E74402C4004
:10F3D0007440C3F8DC4EF8F7EFFD06EA050070BD97
:10F3E000003000B0044BD3F8DC3E31EA03030CBF1D
:10F3F00001200020704700BF003000B01E4BD3F842
:10F40000DC0E03F5706310F001001DD093F864006A
:10F410001A4A40F08073C2F8CC304FF48013184978
:10F42000C1F8B430A1F58051C1F8B830D2F80C3130
:10F43000DBB2FF2B1ED0984294BF0020012040F683
:10F440006D223C21FBF708BA93F8632012B193F8C0
:10F450006000DDE70B4BD3F8D4100029D8D14FF46E
:10F460008012074B0548C3F8B820C0F8CC10C3F889
:10F47000B42070470120E2E7003000B0004000A84F
:10F48000006000A8003E00B000228A4202D14FF086
:10F49000FF30704750F8223093FAA3F3B3FA83F3A6
:10F4A000202B02D003EB421070470132EDE7002021
:10F4B0007047704753B94AB9002908BF00281CBFDC
:10F4C0004FF0FF314FF0FF3000F082B9ADF1080C82
:10F4D0006DE904CE00F006F8DDF804E0DDE9022372
:10F4E00004B070472DE9F04F099D04460F46002BEC
:10F4F00048D18A42944661D9B2FA82F343B1C3F14A
:10F5000020019F4002FA03FC9C4020FA01F10F43C6
:10F510004FEA1C411FFA8CFE220CB7FBF1F601FBEF
:10F52000167706FB0EF042EA0742904208D91CEB20
:10F53000020206F1FF3702D2904200F237813E46C6
:10F54000121AA4B2B2FBF1F001FB102200FB0EFE76
:10F5500044EA0244A64508D91CEB040400F1FF323A
:10F5600002D2A64500F21C81104640EA0640A4EBF8
:10F570000E0400261DB1DC400023C5E900433146DE
:10F58000BDE8F08F8B4209D9002D00F0FD800026E8
:10F59000C5E9000130463146BDE8F08FB3FA83F685
:10F5A000002E4BD18B42C0F0F280824240F2EF80BD
:10F5B0003046002DE3D0C5E90047E0E702B9FFDEA1
:10F5C000B2FA82F3002B40F09D80891A4FEA124E66
:10F5D00097B20126200CB1FBFEF20EFB121140EA9D
:10F5E000014107FB02F088420FD91CEB010102F137
:10F5F000FF382CBF4FF001094FF00009884203D9B2
:10F60000B9F1000F00F0CF804246091AA4B2B1FB55
:10F61000FEF00EFB101100FB07F744EA0144A7427D
:10F6200008D91CEB040400F1FF3102D2A74200F21A
:10F63000B4800846E41B40EA02409BE7C6F120077D
:10F64000B34001FA06F422FA07FCF940B2404CEA52
:10F65000030C20FA07F34FEA1C491C431FFA8CFEE7
:10F6600000FA06F3200CB1FBF9F809FB181140EA87
:10F67000014108FB0EF088420FD91CEB010108F193
:10F68000FF3A2CBF4FF0010B4FF0000B884203D91B
:10F69000BBF1000F00F08D80D046091AA4B2B1FB77
:10F6A000F9F009FB101100FB0EFE44EA01418E4502
:10F6B00007D91CEB010100F1FF3401D28E457FD840
:10F6C000204640EA0840A1EB0E01A0FB029841450C
:10F6D0004C46C64602D306D14B4504D20138B9EB9D
:10F6E000020468EB0C0E002D70D01A1B61EB0E01AA
:10F6F00022FA06F301FA07F7F14000261F43C5E995
:10F7000000713CE702FA03FCC3F1200001FA03F2A6
:10F7100021FA00F64FEA1C4E24FA00F11FFA8CF78A
:10F720009C401143B6FBFEF00A0C0EFB106642EA49
:10F73000064200FB07F696420ED91CEB020200F1CE
:10F74000FF382CBF4FF001094FF00009964202D953
:10F75000B9F1000F31D04046921B89B2B2FBFEF6E0
:10F760000EFB162241EA024106FB07F28A4207D944
:10F770001CEB010106F1FF3801D28A4223D846462C
:10F78000891A46EA004625E72E462846F7E6841AF7
:10F7900061EB030301201F460BE76444023849E78D
:10F7A00064440238E1E6023A61442EE7023E6244D4
:10F7B000C6E6A8F1020861446FE702386244CBE76D
:10F7C000023861447DE7023E6144D9E72E46D6E621
:10F7D000704700BF81F0004102E000BF83F00043AA
:10F7E00030B54FEA41044FEA430594EA050F08BFDC
:10F7F00090EA020F1FBF54EA000C55EA020C7FEAA0
:10F80000645C7FEA655C00F0E2804FEA5454D4EB1C
:10F810005555B8BF6D420CDD2C4480EA020281EAE6
:10F82000030382EA000083EA010180EA020281EA1E
:10F830000303362D88BF30BD11F0004F4FEA013170
:10F840004FF4801C4CEA113102D0404261EB41017F
:10F8500013F0004F4FEA03334CEA133302D0524205
:10F8600063EB430394EA050F00F0A780A4F10104C1
:10F87000D5F1200E0DDB02FA0EFC22FA05F28018FB
:10F8800041F1000103FA0EF2801843FA05F35941E1
:10F890000EE0A5F120050EF1200E012A03FA0EFC60
:10F8A00028BF4CF0020C43FA05F3C01851EBE3718A
:10F8B00001F0004507D54FF0000EDCF1000C7EEBA7
:10F8C00000006EEB0101B1F5801F1BD3B1F5001FE5
:10F8D0000CD349085FEA30004FEA3C0C04F1010404
:10F8E0004FEA445212F5800F80F09A80BCF1004F2D
:10F8F00008BF5FEA500C50F1000041EB045141EAAF
:10F90000050130BD5FEA4C0C404141EB0101013C77
:10F9100028BFB1F5801FE9D291F0000F04BF014666
:10F920000020B1FA81F308BF2033A3F10B03B3F138
:10F9300020020CDA0C3208DD02F1140CC2F10C02C8
:10F9400001FA0CF021FA02F10CE002F11402D8BF26
:10F95000C2F1200C01FA02F120FA0CFCDCBF41EAF2
:10F960000C019040E41AA2BF01EB0451294330BDC1
:10F970006FEA04041F3C1CDA0C340EDC04F114049E
:10F98000C4F1200220FA04F001FA02F340EA030075
:10F9900021FA04F345EA030130BDC4F10C04C4F1BB
:10F9A000200220FA02F001FA04F340EA030029469B
:10F9B00030BD21FA04F0294630BD94F0000F83F4E5
:10F9C000801306BF81F480110134013D4EE77FEAC8
:10F9D000645C18BF7FEA655C29D094EA050F08BF14
:10F9E00090EA020F05D054EA000C04BF19461046F5
:10F9F00030BD91EA030F1EBF0021002030BD5FEA39
:10FA0000545C05D14000494128BF41F0004130BD60
:10FA100014F580043CBF01F5801130BD01F00045B4
:10FA200045F0FE4141F470014FF0000030BD7FEA27
:10FA3000645C1ABF194610467FEA655C1CBF0B4622
:10FA4000024650EA013406BF52EA033591EA030F39
:10FA500041F4002130BD00BF90F0000F04BF002131
:10FA6000704730B54FF4806404F132044FF0000564
:10FA70004FF0000150E700BF90F0000F04BF0021DD
:10FA8000704730B54FF4806404F1320410F0004543
:10FA900048BF40424FF000013EE700BF42004FEA3E
:10FAA000E2014FEA31014FEA02701FBF12F07F43BB
:10FAB00093F07F4F81F06051704732F07F4208BF72
:10FAC000704793F07F4F04BF41F40021704730B579
:10FAD0004FF4607401F0004521F000411CE700BFC5
:10FAE00050EA010208BF704730B54FF000050AE048
:10FAF00050EA010208BF704730B511F0004502D549
:10FB0000404261EB41014FF4806404F132045FEA4A
:10FB1000915C3FF4D8AE4FF003025FEADC0C18BFF3
:10FB200003325FEADC0C18BF033202EBDC02C2F1E5
:10FB3000200300FA03FC20FA02F001FA03FE40EA77
:10FB40000E0021FA02F11444BDE600BF70B54FF07B
:10FB5000FF0C4CF4E06C1CEA11541DBF1CEA135559
:10FB600094EA0C0F95EA0C0F00F0DEF82C4481EAC1
:10FB7000030621EA4C5123EA4C5350EA013518BFE1
:10FB800052EA033541F4801143F4801338D0A0FBCE
:10FB900002CE4FF00005E1FB02E506F00042E0FB7B
:10FBA00003E54FF00006E1FB03569CF0000F18BF81
:10FBB0004EF0010EA4F1FF04B6F5007F64F5407429
:10FBC00004D25FEA4E0E6D4146EB060642EAC621BC
:10FBD00041EA55514FEAC52040EA5E504FEACE2E29
:10FBE000B4F1FD0C88BFBCF5E06F1ED8BEF1004F2C
:10FBF00008BF5FEA500E50F1000041EB045170BDA8
:10FC000006F0004646EA010140EA020081EA0301EB
:10FC1000B4EB5C04C2BFD4EB0C0541EA045170BDE7
:10FC200041F480114FF0000E013C00F3AB8014F161
:10FC3000360FDEBF002001F0004170BDC4F10004AA
:10FC4000203C35DA0C341BDC04F11404C4F120052B
:10FC500000FA05F320FA04F001FA05F240EA020086
:10FC600001F0004221F0004110EBD37021FA04F6BC
:10FC700042EB06015EEA430E08BF20EAD37070BD76
:10FC8000C4F10C04C4F1200500FA04F320FA05F0D5
:10FC900001FA04F240EA020001F0004110EBD370D7
:10FCA00041F100015EEA430E08BF20EAD37070BD47
:10FCB000C4F1200500FA05F24EEA020E20FA04F320
:10FCC00001FA05F243EA020321FA04F001F00041CF
:10FCD00021FA04F220EA020000EBD3705EEA430E40
:10FCE00008BF20EAD37070BD94F0000F0FD101F06F
:10FCF0000046400041EB010111F4801F08BF013CA8
:10FD0000F7D041EA060195F0000F18BF704703F0E5
:10FD10000046520043EB030313F4801F08BF013D6C
:10FD2000F7D043EA0603704794EA0C0F0CEA135528
:10FD300018BF95EA0C0F0CD050EA410618BF52EAE2
:10FD40004306D1D181EA030101F000414FF00000E8
:10FD500070BD50EA410606BF1046194652EA4306F6
:10FD600019D094EA0C0F02D150EA013613D195EA6A
:10FD70000C0F05D152EA03361CBF104619460AD1B2
:10FD800081EA030101F0004141F0FE4141F47001BC
:10FD90004FF0000070BD41F0FE4141F4780170BDAC
:10FDA00070B54FF0FF0C4CF4E06C1CEA11541DBF11
:10FDB0001CEA135594EA0C0F95EA0C0F00F0A7F813
:10FDC000A4EB050481EA030E52EA03354FEA013140
:10FDD00000F088804FEA03334FF0805545EA131353
:10FDE00043EA12634FEA022245EA111545EA10651B
:10FDF0004FEA00260EF000419D4208BF964244F1B2
:10FE0000FD0404F5407402D25B084FEA3202B61AD0
:10FE100065EB03055B084FEA32024FF480104FF4A4
:10FE2000002CB6EB020E75EB030E22BFB61A754618
:10FE300040EA0C005B084FEA3202B6EB020E75EBAB
:10FE4000030E22BFB61A754640EA5C005B084FEA13
:10FE50003202B6EB020E75EB030E22BFB61A7546E0
:10FE600040EA9C005B084FEA3202B6EB020E75EBEB
:10FE7000030E22BFB61A754640EADC0055EA060EAC
:10FE800018D04FEA051545EA16754FEA06164FEAEF
:10FE9000C30343EA52734FEAC2025FEA1C1CC0D19B
:10FEA00011F4801F0BD141EA00014FF000004FF028
:10FEB000004CB6E711F4801F04BF01430020B4F1E9
:10FEC000FD0C88BFBCF5E06F3FF6AFAEB5EB030CA1
:10FED00004BFB6EB020C5FEA500C50F1000041EB9E
:10FEE000045170BD0EF0004E4EEA113114EB5C046B
:10FEF000C2BFD4EB0C0541EA045170BD41F480113E
:10FF00004FF0000E013C90E645EA060E8DE60CEA45
:10FF1000135594EA0C0F08BF95EA0C0F3FF43BAF62
:10FF200094EA0C0F0AD150EA01347FF434AF95EA19
:10FF30000C0F7FF425AF104619462CE795EA0C0FFD
:10FF400006D152EA03353FF4FDAE1046194622E7CA
:10FF500050EA410618BF52EA43067FF4C5AE50EAA4
:10FF600041047FF40DAF52EA43057FF4EBAE12E794
:10FF70004A0011D212F5001211D20DD56FF4787328
:10FF8000B3EB62520ED44FEAC12343F0004343EA7D
:10FF9000505323FA02F070474FF00000704750EAC8
:10FFA000013002D14FF0FF3070474FF00000704732
:10FFB00008B5074B044613B1002100E000BF054B14
:10FFC0001868836A03B198472046F7F707FF00BF18
:10FFD00000000000F842010070B50D4D00260D4CE8
:10FFE000641BA410A64209D10B4D00260B4C00F057
:10FFF000E7F8641BA410A64205D170BD55F8043B78
:020000021000EC
:1000000001369847EEE755F8043B01369847F2E78A
:100010001001002010010020100100201401002018
:100020000A44431E914200D1704710B511F8014BAC
:10003000914203F8014FF9D110BD024403469342A7
:1000400000D1704703F8011BF9E70000024B01469D
:10005000186800F02DB800BF580000200139024494
:1000600010B5904201D1002005E0037811F8014F4E
:10007000A34201D0181B10BD0130F2E7884210B531
:1000800001EB020402D98442234607D8431EA14251
:1000900008D011F8012B03F8012FF8E702440146BC
:1000A0008A4200D110BD13F8014D02F8014DF7E767
:1000B000F8B5CD1C064625F0030508350C2D38BFD4
:1000C0000C25002D01DBA94203D90C23336000204D
:1000D000F8BD00F057F821490A6814469CB9204F32
:1000E0003B6823B92146304600F03CF83860294689
:1000F000304600F037F8431C23D10C2330463360E0
:1001000000F046F8E3E723685B1B17D40B2B03D9F9
:1001100023601C44256004E06368A2420CBF0B60AE
:100120005360304600F034F804F10B00231D20F03A
:100130000700C21ACCD01B1AA350C9E72246646834
:10014000CCE7C41C24F00304A042E3D0211A3046BB
:1001500000F008F80130DDD1CFE700BF281A0020F9
:100160002C1A002038B50023054D044608462B60A4
:1001700000F016F8431C02D12B6803B1236038BD90
:10018000301A0020014800F009B800BF341A0020DE
:10019000014800F004B800BF341A002070477047CF
:1001A000054A0346106810B10344136070470348C2
:1001B00003441360704700BF381A0020401A002023
:1001C000F8B500BFF8BC08BC9E467047F8B500BF44
:1001D000F8BC08BC9E46704701B40248844601BC86
:1001E000604700BFBD000020B814B6F1E0CFF3AD0A
:1001F000B7DD25C9FA79B713000201060409004FDB
:10020000544100081B00011800052A00022900F0D3
:100210001921B4478FA4BFA14F63FDEED6141D0072
:10022000636032E0375EA488534E6DFB6435BFF7E0
:100230000053A1811F582CD0A54540FC34F3274220
:1002400098009F3EE22E0ECFFFBF1E45CA8C68234A
:100250004A4F0016531EC44CBAAD9D324B6808CFAE
:100260007BC04C00FE5A24E12BAAA5B2E94617E94F
:100270000A5CF02500F8927AAC96CDA9BFF249C18C
:100280004A11CC770D000328000000000018000080
:100290008C02010002000000002A00009802010008
:1002A000020000000101020A000000000000280016
:1002B00001020203000000030003000100580100D6
:1002C00013B779FAC925DDB7ADF3CFE0F1B614B8AD
:1002D0000101000000000000000000000800000014
:1002E0000001030300000000000000000000000007
:1002F00000000000000000000000000000000000FE
:100300002D660000516600009D9F0000756600008C
:10031000896D000069720000F97700000301020393
:100320000405060708090A0B0D0E0F10111213140D
:1003300015161718191A1B1C1D1E1F2021222324F5
:100340002526000C270000008602010002000000A4
:10035000AD020100020000000009007F90030100CF
:100360000100000F70030100000000000000000009
:10037000E1FE59FF8FFFADFFC1FFD0FFDCFFE4FFBF
:10038000EBFFF2FFF6FFFAFFFDFF000003000500A0
:100390005500EDFEFF0064001E0000007F001B0DF5
:1003A000D063FDFF3600B7034DDAFFFF1C00590193
:1003B000EC3600001100BD00C83B00000B007100CE
:1003C0001435000007004900352C000005003700F7
:1003D0000526000003001400FF14000000000000C8
:1003E00098010000281500200000003800000018C7
:1003F00000000020000000000001010100000101D8
:1004000000000001020203020202020405040404C7
:1004100001010203F5DA02001626000000000000C8
:10042000E5BF0000162600000000000050C30000D9
:10043000342100000000000050C3000094110000AF
:10044000000000001F150F15150F151F00A801A8AB
:1004500002A800B00304040808000000983E000051
:10046000B5330000FD330000FD330000FD33000014
:10047000FD330000FD33000000000000000000001C
:100480000000000000000000FD330000FD3300000C
:10049000FD330000FD330000FD330000C12D0000DE
:1004A000D12D0000472E0000872E00000D2F0000E8
:1004B000653000002D2F0000D9300000792F00009A
:1004C000AF2F00004D30000029320000ED32000057
:1004D000992D0000B7240000851E0000D5240000DF
:1004E000D9250000FD330000992600006D2600008C
:1004F000FD330000FD3300000D270000FD33000038
:10050000FD330000FD330000C10D0000AD0D000003
:10051000CB0D0000D50D0000DF0D0000F8B57E48C2
:1005200002687E4C80239B0323607D4E306800056B
:100530004FD5180BA021114001D02060F1BD012141
:10054000784D13403BD18027774B1F60774B1F605E
:10055000024034D0287A400704D57548016008026B
:100560008B4908602878002833D0062831DA00F05B
:100570008BFA716889684E682978052907D1B90511
:10058000A1606E60B668CC218901814A116000F0DB
:1005900084FA012E00DA0226BC2080057D4908601D
:1005A000942080057C4908605F480021C9430164AC
:1005B0007142416479490F6040210160F1BD784A80
:1005C00050626970A868000201D548041060BE48F6
:1005D0000170F1BD50480168890504D5C06E000462
:1005E000000F022801D0002070470120704710B58D
:1005F00080244D4804606B48006800F051F9684859
:1006000048498A68120201D5A2020260097A0907E4
:1006100005D5A0004149086000F0F5FA10BD61035E
:100620004162AA48046010BDFEB505008D4FCC2084
:1006300080017860012699480660FFF7CBFF00280B
:1006400068D038480078002864D034020095052826
:1006500002D0294621405DD1CC21890139609C49D5
:1006600009684A07520F2701022804D1022A4FD3F2
:1006700047480760F7BD6501032804D1022A47D91E
:1006800043480560F7BD042802D10C4040D0F7BDB7
:1006900005283DD1009800283AD000F0F5F90190E6
:1006A0002048406800990C4003D0066880211F4A0A
:1006B00011602C0400990F4016D09D49C2680B6848
:1006C000D21A9C4B1B68234001D0066800E04668A4
:1006D000964200DD160008684242B01E824202DAED
:1006E0007042886000E00026019800F0D6F900987A
:1006F000800501D5904804600098054001D08F48DE
:100700000460002E04D0CC20800121490860F7BD90
:10071000FFF76DFFF7BD0000400002A8402002A8CF
:10072000DC3E00009C3A00000CC001A890E001A84B
:1007300094D000A838B5802481480460012057492E
:100740000860804D2878052802D060007E49086046
:10075000FFF740FF002812D012480068000A8021ED
:100760004140A868000EC9B2814208D258480068CA
:100770004007400F022802D2FFF739FF31BD73480E
:100780000068C021014001D00448046031BD000070
:10079000505201A808E001A808D001A894D001A8EF
:1007A0001C1002A818C000A8F1B582B00F00802468
:1007B000A400A020384002D06548046050E000F05A
:1007C00063F9009063480568F80202D5A8680069DB
:1007D000029000F05FFA686800F0C6F82A782800F6
:1007E0000021521C4378934200D200221823534325
:1007F000C6180C363378082BF3DA150002708660C1
:100800003078504A10703C400CD000F03DF951490E
:1008100009688968CC6800F040F9F80201D4032027
:10082000844321004748816001240846204003D1C9
:1008300000F0E3FA00F0F8FD706900F095F83C2054
:1008400000F044FEE8B200F041FE009800F025F907
:1008500020053F49086040480460200201490860C3
:100860000298FEBD4C6201A810B53C4800688005A6
:1008700001D4FE2010BDC02080033949086000F07B
:1008800003F9344909688A78D20702D589688C78D7
:1008900000E00C7800F001F9200010BD94E000A801
:1008A00010B5040000F0F0F82A4909688A688B78CE
:1008B000DB0704D5927818235A438A180C329460C7
:1008C00000F0EBF810BD0000D63A0000100002A8BE
:1008D000084001A8F1B523480468200F000701D1A2
:1008E000E001F2BD00F0A0FD00F0CEF80700606866
:1008F00000F03AF825786D1C6078A84200D20025F7
:10090000E80026180C3630680090706800F02CF86B
:100910003D2000F0DBFDE8B200F0D8FD2570A660B8
:10092000380000F0BAF8684600F058FE0098F2BDB2
:1009300048C001A8480002A8481002A8482002A800
:1009400094E001A89C3A0000506201A814C001A8DC
:10095000402002A8E03E000090E000A8400002A86D
:10096000401002A8E43E000080B580210903534AEC
:10097000116000F001F802BD0021C94302688A42FB
:1009800018D0426803681A60083002688A4211D0A1
:1009900043681360083002688A420BD043681360D2
:1009A000083002688A4205D0436813600830026844
:1009B0008A42E6D17047F8B500F066F80022404957
:1009C0000A6002213F4B19603F4B404CD9688908AF
:1009D0002140D1256D00D52901D2D52102E0A942BF
:1009E00000D929000E004636370426043E400F0089
:1009F000463F3C4034431C60C0231B06344C2360FC
:100A0000344BD52902D98024E4051C60A94202D2C6
:100A1000802424061C60304B1A60304A5388002B17
:100A200000D1118000F039F8F1BD80B52C482D4976
:100A300008602D48C1680902090A19225143416022
:100A400005210160FFF7B7FF01BD27480068C0031B
:100A500000D4704780B5FFF7AEFF01BD8020C00213
:100A600016490860214800684007FBD47047802081
:100A7000C0021F490860704701E01E4908601E4916
:100A800009680140F9D170471C48006820211C4AC0
:100A9000116010211B4A116070473021014002D1C2
:100AA0001020174908607047144800683021014041
:100AB000102901D10120704700207047401002A882
:100AC000048002A8409002A87C400040FF01000082
:100AD000A0600040A450004018E000E0843F000007
:100AE0007F1A0601500002A810E000E0400002A8B2
:100AF000402002A8282002A8280002A85C0002A822
:100B00005C2002A85C1002A8F8B541488021490287
:100B10008161404C0221616000213F4A11603F4ADF
:100B20001180032121600221016020203C490860DE
:100B300080203C490860CC2080013B4908600120AE
:100B40003A4908603448806F00900F26050B354005
:100B500037480068C705FF0D103FC0203843C0B2BA
:100B600000F0B4FC33480068C00505D5092D03D05A
:100B700001F06AFA01F028F80098064000962E4825
:100B800006680098032803D0022806D1032D1DD043
:100B900000F0C4F90098032803D0062D16D1062FC3
:100BA00014D0264800680104C90F01D001F098FB59
:100BB0003100280000F0B4F90600802080032049AD
:100BC000086080091F49086001F0F2F980204002A6
:100BD000E061002D08D10220606000200E4908610C
:100BE000C020C000184908603000F2BD80B5FFF792
:100BF00035FF16480078800602D4022014490860A8
:100C0000FFF735FF01BD0220124908607047000060
:100C10002C1002A8282002A8340002A8D03A000014
:100C200094E001A80CC001A8506201A894E000A8BB
:100C300004ED00E0B40002A8B44000A800E200E027
:100C4000B86000A880E200E02C6001A8DC3E000053
:100C5000081002A8082002A87A480068800700D47B
:100C6000704730B5784804218D4A0123E024E40020
:100C70008568254002D01360D160D36000680440CD
:100C800002D013605160536030BD864801218160FD
:100C90000160704710B501206C498A680240FCD1A0
:100CA000814A0423D3600C680440FCD15360106077
:100CB00010BD7E4908680122104200D1704710B56E
:100CC000E023DB000340FF24A41CA34204D3784BA1
:100CD0001B689B0600D54868024001D000F0A1F8CF
:100CE00010BDF8B50600C820724908600620724998
:100CF00008608020400371490860714C400A6062BE
:100D0000C020C00020600225A56168036D4908600D
:100D10006D486E49C8664C206D49C86630686D499B
:100D20008968814201D2009100E000900099401A48
:100D300030600121300000F0BFFA070030680099F0
:100D400040183060FFF788FF61480068614908601B
:100D50005E481C310167390009D10321E1615E4918
:100D600009680068054002D08020800220613800B8
:100D7000F2BD70B50400594859490860594D8020AA
:100D8000C001286058480122826258490A601F2227
:100D9000026056224266564A136806261E431660B3
:100DA000544A1268002A02D4082202664266524A55
:100DB0000265C022D200514B1B68F826F6011E4086
:100DC00001D1826700E04A61FFF748FEE86BC00787
:100DD00005D54B480078800701D401F01BFBFFF7D5
:100DE00046FEFFF739FF200001F035FC286B80013B
:100DF000FCD4286ABD49086070BD424801214161A8
:100E0000C160414A414B53663B4B1365032303606A
:100E10000020374B186011609162C80331490860A7
:100E20007047F02109013A4A1160014039480160D8
:100E3000202039490860AE4909680840AD4908607A
:100E4000704700004C0002A86C0102A8700102A8C3
:100E500010B5A9480468A9480821A94A13680B409D
:100E600001D0016141611178C90602D586210901CD
:100E70000160FFF71EFF1420FE2189010860072092
:100E8000A0490A68024001D0FF224A619E490C40F5
:100E90008C4204D19D49086001209D49086010BD25
:100EA000681102A86C2102A8682102A8883F0000EE
:100EB000400002A8548001A80C9001A8942002A828
:100EC000441102A8A01002A8294E0600E40002A8BE
:100ED000300002A8A83F0000FC0302A8FFFF7F7FAC
:100EE000B46000A8100002A8E01002A8442102A8E3
:100EF000400102A828C000A80C1E0000A88001A87C
:100F0000A43A0000602102A8E02002A85E060000CA
:100F10002C6001A82C5001A8442002A870470000B2
:100F2000F0B587B005000C007A48806A800503D5CB
:100F300079480068FFF7B4FC0194784EB0680290DD
:100F40000020B060B8204000754908607148006B0F
:100F5000000A069001984008B82404400198400611
:100F600002D50820AB498860FFF78EFD0590A548A3
:100F7000006880214900A84A1160014002D0200089
:100F8000012404433078F0210140402902D120009F
:100F90004024044304270D2D02D1029838430290C7
:100FA0000298384206D020001424044301981021EE
:100FB00088430190012057498A6A5206D30F6A4636
:100FC0001370A04D002B15D123004A6BD60602D416
:100FD0001E00EF233340920602D41A00DF23134091
:100FE000B1261E4006D10C221A40082A02D0082041
:100FF000286262E0AA6DD204D20C792A06D380243A
:10100000062008606002904A106000208122224081
:1010100017D06A461278002A01D108222A62029A61
:10102000082313430293019A10239A4301929A04CE
:10103000784B1A605208854B1A600122844B1A6063
:1010400004E000BF94A26306DB0ED75C002834D016
:101050002868CA6A2649282313409C46D60A80235A
:101060001E4063461E43130E1340102213403343A9
:101070000A689200402632401A433A430B681B0E1E
:101080000093744B1E68096A090603D0310080265C
:1010900076010E436946888103A88270069803A9E9
:1010A000C870FFF7E1FB03A908710098487103A815
:1010B000C6800398E8660498E8660598FFF7EDFC9B
:1010C0000820654908600298C1B2200000F005FAC6
:1010D0006048406AA021C90188428041C043C00FD6
:1010E0005E490870019807B0F0BD0000A43F000001
:1010F000084001A8441002A8DC3E0000301102A8FC
:10110000F84F00000C4000A8800000403C6000A8A0
:101110003C5000A8180002A81CC000A8783F00009E
:10112000B46000A8F8B54E4F4E4C0F2501264E492D
:10113000606BC00620D50E704C4800684C490A68A8
:10114000824204D289695118491C081A00E0101A19
:10115000484909684018012852DB01F0CFFD464993
:101160000968090B0D40022D48D17105434A1160F1
:101170001021F963266041E0E06BC00026D54048AD
:101180000068E021890501403AD03B4C3D480068A9
:10119000C00504D42068000B28400228F5D03A4846
:1011A0000668FFF771FC3949F2B20A603204120E88
:1011B0000A603202120E0A60320E0A60FFF76DFCFE
:1011C0002068000B284002281AD1DEE7304C206846
:1011D000002815D00E7001F03EFA002810D101F061
:1011E0008DFD25490968090B0D40022D06D13104FA
:1011F000224A1160022139600021216001F082FD44
:10120000F1BD00001C0100AA802080042149086073
:1012100070470000401002A81C2100AA8020400452
:101220001C49086070478020C0041A490860704754
:101230008020000517490860704780204005154947
:1012400008607047540000AA141100AA205001A899
:10125000006101A81C4000A8845000A8D83A0000F2
:10126000082002A8100002A8D63A00001CC101A85C
:1012700020C001A8F83E0000AC0002A81C1002A883
:10128000204001A8084000A8904000A8640000AADF
:10129000B83A0000382002A8030107060301070638
:1012A00005010606050106060302070603020706F6
:1012B0000502060605020606FEB504006C4E6D48E2
:1012C0000068B061FFF7E1FCFFF7BFFB01F0B9F97F
:1012D000694D28602168AA6C8918C001081A002885
:1012E0000DDDFFF7D7FC00F09FF82068A96C4018CF
:1012F00001F0B1F9010002D000212160FEBD5F4D77
:1013000080208000286030685D4C07282DD00521A2
:101310000840052805D031600C2001F085F9010056
:10132000ECD1584E58483062FFF7B4FC02203060D0
:10133000E020C002554908600002606080208004FF
:10134000686002202860012001F06EF980204000D2
:101350003062022001F068F99020400130620220E2
:1013600001F062F98020C0003062E020400048496E
:101370000860042001F058F9050053D102202060D4
:10138000434A80029062C00190624248102101608D
:101390000121D16500236C462370CB030824D4655A
:1013A0000A250124AC4001941C4300BF41A6765D90
:1013B00026430664384CF026E665022640A77F5D8A
:1013C0003743D7650427D765344F3F680F4010D1A6
:1013D000334E36683603FBD4314F3E687F68760360
:1013E000760BB74202D21E00019B33436D1E02D41E
:1013F000D7E76A4616700822E26503646A461578E4
:101400002A000FD101600021C167022001F00CF910
:1014100040202060C0302060022001F005F98120CA
:10142000C002A0622800FEBD70B5FFF72EFCFFF7DA
:1014300031FC0224174804601A4EE0023062C508ED
:101440003562012001F0F0F8E001306234601648A6
:101450003062E02040001049086009480460002123
:10146000034A11600560114800681149086070BDA9
:101470003C0102A8F80302A8943F0000941002A8BF
:10148000942002A83C1102A8BD080000142102A863
:101490002C9001A80C8001A82CA001A8140002A87F
:1014A0008C8001A83C2102A8FD680000300002A841
:1014B0009C3F0000000000010102040810202000F1
:1014C0005050504040404030202020003A490968A8
:1014D000002901D5394908607047F8B5384A926843
:1014E00053004BD50124120100D521240200354BB5
:1014F00018685D6880277F00334B1B683B4300936F
:10150000324E130024D0920601D5012006E0F022CD
:10151000024005D10C220A4002D0022000F041F81E
:101520002B49096809040BD525490A68120701D51A
:10153000022505E00968490301D5002500E00325DF
:101540004834009932689300C0221A400A430AE0E6
:101550003168009B890080221140F26912094026FF
:1015600032400A431A43002D03D03D4319494D60D0
:10157000083418494A6007434F604C6015480068BA
:101580004007400F810708D0052806D0FFF77CFAF6
:101590000221114A1160FFF780FA002000F001F8E3
:1015A000F1BD08490A68F0239A430001104308601E
:1015B000C0B27047000000004C0002A8884000A89C
:1015C000440002A8783F0000408001A8084001A81C
:1015D000384101A8844000A87CD40340F8B5040039
:1015E000FFF758FB2448C021C900244A1268F82399
:1015F000DB01134002D1224A116000E00160009437
:101600002049AC2252008A640A220A601E498022C4
:1016100052030A601D4C920A6262802222600222FA
:1016200042605003C8601A48E0601A4E4C20F066D1
:10163000194D68699621C9014718009800688742CA
:1016400000D30700C01B0099086000210098FFF735
:1016500033FE00990968C919009A11603168296040
:101660000E492161F2BD802000010D490860000192
:101670000C49086070470000582102A8AC8001A8FE
:10168000581102A80C8001A8941002A8440102A8D5
:10169000286E0600300002A8983F0000C43F0000FA
:1016A000401002A8685000A8F1B582B0A848806A2E
:1016B0009621C90140180299884205D2081A00F003
:1016C000CAFF002800D0D9E10420A2498862800323
:1016D000A1494862A14800680090A14C606B850751
:1016E000AD0F032D03D010209A49886224E00846EC
:1016F000802189024162A26B920601D5012064E03B
:10170000009A120610D5A36B022213400CD1BF4BD6
:1017100005261E60A66B10273E4032431A60002249
:101720001A60626B120A1A6004228262A06B00289F
:1017300002D5884841620025606B400705D5606B83
:10174000C00080214900084003E081488068C1074B
:1017500001D5FFF766FBAE4A009805210140052937
:1017600007D1C748A9014018006AC004C00C401E38
:10177000106000200021C34BDB6E1B0417D5C24B49
:101780001B68002B13D401215269002A0FD0BF4BD4
:101790001970BF4A10601022BE4B9A62CA06BE4B37
:1017A0009A670723BC4E3360BA4B1860DA67BB4AAE
:1017B000C0239B0013602D02002901D0190000E016
:1017C0002900B74E316053607560E16B8900CD0F21
:1017D000284339D061482C21405CC0210140402978
:1017E0000DD1FFF703FA5A48C06C00906846FFF726
:1017F00078FA002827D10098FFF7BBFA01E0FFF73D
:1018000002FA20202060002D1DD0A24D606B400701
:1018100009D58020C001504948620220E86200F0EA
:1018200021FA002807D004204A49886240024A4928
:1018300048620001E86249480078000603D580202C
:10184000000344490860F7BD96480068C005410F91
:101850000020022903D0032901D0062903D1012148
:101860006A46117004E06A4610709D499D4A5160B5
:1018700080218902384A9162490921609A4DC0212C
:101880000906696080214902964A11603021974A11
:10189000126852072DD54022954B1A62914E520183
:1018A000326603229A6418602960012070658020E6
:1018B0006860062000F0B8FE0028C4D180204000F7
:1018C000F066022000F0B0FE802040008949886662
:1018D00018206860082000F0A7FE0028B3D124205B
:1018E0006860E020C0028349C865A020C00230665D
:1018F0006BE0E06BC0023ED5154A906F0002030E0C
:101900005809022801DB7C4801E0B3208000302B1D
:101910002BD31688E72E28D395277F00BE4207D801
:101920003E461788F61B36097043860A704204E06B
:10193000724FF61936097043800A40B21B18966A36
:10194000176B7843301890629F2B0BD39F230CE0CA
:10195000843F00001C2002A81C1002A8DC3E0000EE
:10196000100002A8202B00D82123180218431A04C3
:101970000243444802605E488022D20002628F4ADD
:101980008264142202602960564F01207865E020AD
:10199000C0025849C8658020C001B866400268602E
:1019A000062000F041FE002868D180267604FE66FD
:1019B000022000F039FE4F488666700968600820F2
:1019C00000F032FE002859D16E60032000F02CFE9A
:1019D0007B483149886700F034FE7A4EB16A401D79
:1019E000C00140180190029A904206D2501A00F0AD
:1019F00032FE002842D102980190206A70620427CA
:101A00003A480068384005D0402006E0E40000AACB
:101A1000204000A8F8056860C0086860012000F058
:101A200003FEB8012F490860019800F014FE8B48AE
:101A30008B4908602F487902416669460978002978
:101A400000D10760206AF061606B994D074009D0B2
:101A5000012000F0E9FD287800060AD58020000367
:101A6000984905E09848006828628020C00397499B
:101A70000860E06BC00201D5706FB062F7BD00BFB7
:101A80000C0000AACC4001A8784201A8D53A000079
:101A9000CC3A00003C5000A83C6000A8046100A8BB
:101AA000045100A8204001A810B5FEF7EDFF8849B9
:101AB00000240C600A22CA61FEF7EFFF8548C021AE
:101AC0008902016084494160844810210160C90590
:101AD00041654020824908608248047010BD0000C2
:101AE000040000FFB41002A8441102A8FC0302A8DD
:101AF000400102A8B82002A833070000D6FEFFFF6D
:101B00007948406B800300D47047F8B57748006887
:101B1000002400210025764A0127384205D0C02143
:101B20008902BD05E80A106003E0800701D40321A3
:101B300040252943D162012000F076FD38026D492D
:101B4000086708206C4908606C490968090203D4D9
:101B50006B4909680140FBD0012000F065FD694E2A
:101B600062480068384001D078063064356404204B
:101B700000F05AFD5D480068400702D5E020C00231
:101B8000F06061483064012000F04EFD5F48306431
:101B9000C320000630645748390401671021B1633F
:101BA000890271615A490C6037603022F2638C629D
:101BB00079034D4A116009010160F1BDF30700008E
:101BC000FFFF7F7F843F0000F8B5524800680D2179
:101BD000014000910424002900D10094FC25AD01AE
:101BE0001027660308204C494C4A126822400968B5
:101BF00014D069600099084004D00220FFF7D1FC9E
:101C0000474806600098044005D0A86F0743AF67B7
:101C1000B008434908600220424916E02960009953
:101C2000084005D00220FFF7BCFCA0023C49086038
:101C30000098044005D0A86F0743AF677009384982
:101C400008603848066030032A490860FFF758FFEB
:101C500000210020FFF741FCF1BD0000030003005C
:101C6000482102A810B580202F490A6802400AD0F6
:101C70002E4B1A680624144005D15C6E2C4A224073
:101C80001B6D9C0101D5002010BD096808400DD0D6
:101C90002848824203D1180501D5012010BD2648ED
:101CA0000068C107C90F481E8041C00F10BD000069
:101CB000DC3E000021480321C163A821816310217B
:101CC000016070471C2002A820C001A81C1002A8B7
:101CD000D80000AA402002A804000080646000A888
:101CE0002C4000A8D53A0000100002A8FC0302A86E
:101CF0001C1102A8442002A84C6201A8C44001A8FB
:101D00004C4201A8082102A8240000019800880084
:101D1000600102A8B44000A81CC101A8440002A8A8
:101D2000401002A8685000A8400002A814C001A8F2
:101D30001F1F0000010C000030C101A8082002A8EC
:101D400080097047A8494843800B70479448006851
:101D5000C103C80F704738B591480168914C924D46
:101D6000C90306D50121914A11702968A1606968EB
:101D7000416100F070F800280BD0A868001F2060B7
:101D8000AD480068002801D1AC2000E09620400357
:101D9000606031BD82480168C90300D4704770B5E6
:101DA000002380498C680025A44A641C5668B4420C
:101DB00000D314682678B606B60EAE401E43330034
:101DC000AD1D1E2DF1D38C60436170BD8748016845
:101DD0000229FCD340680005000DC01C8449014362
:101DE000A64801607047F8B505000E001700E8002E
:101DF000C0B20090103891282CD2FFF7A7FF00281E
:101E000028D000242800FFF79BFF002802D00228DA
:101E100005D005E08A480078C407E40F00E00124FB
:101E200085480068012800D10F3F3500854E280005
:101E30000C30FFF787FFC019306000982818FFF7B3
:101E400081FFC0197060C02080018D4908602003A7
:101E50008C490860F1BD7A4800780621014001D123
:101E6000002070477448006802288041C00F704706
:101E700010B585480268D3B284491140DC0702D509
:101E8000EC24E4020919824C2260824C1440214364
:101E90005A080A43026010BDF8B57F4F0024FFF7CF
:101EA000DAFF002801D13C61F1BD7C4D04200226FF
:101EB000F968014214D0FFF789FFE868002808D1CB
:101EC00077480068F02109050140C0208004814264
:101ED000F3D0287C80062CD472486849086041E021
:101EE00031403FD0E968042908D26D490968F022E1
:101EF00012050A40C02189048A42F3D0297C0907CF
:101F0000090F07292ED1697C02292BDDA97C8906BE
:101F1000890E022926DBE97C014223D0CA0700D5BD
:101F20000A20314200D0801D060000061AD0FFF7BB
:101F30004DFF701CE968C2B2914208D25849096845
:101F4000F02212050A40C02189048A42F2D0564884
:101F5000F6B2845DE000000602D08021C904296049
:101F6000C00D68603C612102F820400108403968DA
:101F7000814200D208000B490A6810180860F1BDC0
:101F800010B54A4CE0680106890F03D12822C0B27F
:101F9000FFF729FF207A000701D40120206010BD3F
:101FA000584201A8A83A0000BC3E0000D73A000001
:101FB00080B5FFF750FF002815D035490A6800208A
:101FC000002A02D0304B1A6008602C49354A0A605A
:101FD000324A106080229202354B1A60354A8A607C
:101FE000CA603549087001BD999909001C4000A8D4
:101FF00000F0FF3F80B5FFF72EFF00281BD02F48D1
:102000000068010602D006212D4A11600106890FE1
:1020100011D02C490A68012AFBD949680905090D24
:10202000091DC900044A1268012A00D14908282262
:10203000C0B2FFF7D8FE01BD7C3F0000B43E0000F7
:10204000D43E00005C4201A880B5FFF704FF0028E1
:1020500013D006201C49086000201C490860F021AC
:1020600009011B4A1160802149001A4A11601A496E
:10207000104A0A604A601049087001BD544201A824
:10208000586201A8585201A8EC4001A800F0FF07CF
:10209000B43A0000000F00F8C83E0000C44000A899
:1020A0000C0002A8FFF3FF3FD44000A8CC3E000084
:1020B0004C6201A8FFFF0300D73A0000D03E0000A9
:1020C000845201A81C4000A8846201A8504000A8C6
:1020D0000C6000A80C5000A85C4201A880B5EB2061
:1020E00000F001F801BD30B5FE2189010B681840F0
:1020F0001022134210D0784B784C2468224008D02C
:10210000A74A14682402FF252D022540DD62002421
:102110001460802252031A60086030BDF3B50100DC
:1021200016001C00002500959E48019A33000027E8
:102130000BE0BC464F5D4743AE009E597E40575D65
:1021400047433740664637436D1CA542F1D33909F2
:1021500039438A080A43510811430840C109014321
:102160000F208A0B0A4302405040F6BDF1B584B0FF
:102170000E008B4F002038608B4DE87A0090A87AD3
:1021800002900F20009901400191009901420ED068
:10219000019B864A86490498FFF7C0FF02990140D7
:1021A00039603968834841438348084001D101249C
:1021B00000E044010098001116D032000098030698
:1021C0001B0F29000498019E6D7A75194019FFF7BD
:1021D000A5FF02990911014038680A0102433A60DB
:1021E000002901D04800444374480068204001D1D0
:1021F000042000E0002005B0F0BD80B50A000021F9
:1022000011806F4952888018FFF7B0FF02BD70B58A
:102210000F226C4B5C7905780F202040C5402009C7
:1022200028409C79C440E40701D4032070BD2B4CA6
:102230002468A50705D59D684600AD5B6D1E624EFE
:102240003560DD78DE79C640F00711D5E0060FD5A0
:10225000002D0DD05D4848600888488008881C78AB
:1022600000192A4080185A7880182A09801800E03E
:1022700000200880002070BD80B555490820554ACF
:102280001368034001D0486108611278D20602D574
:10229000862212010A605049096809040ED54F4987
:1022A0004F4A13685B0401D5C00306E01268C023DF
:1022B0009B0113404202934200D008600748007817
:1022C000D021014003D047480068C00101D4FFF786
:1022D00005FF01BD000000001C1002A8DC3E00004C
:1022E000F8B5414F38687E68064040483040404964
:1022F00008608024A4033F4DF00227D53E480168C2
:10230000080605D53D48A86001202870022015E088
:102310000120014202D03A49A9600FE00020C9061D
:102320000CD52A49A960374A91780B071B0F127800
:102330009A1809095118A980E880A888A880A88857
:10234000002801D0264301E0FFF7C8FE264026D032
:10235000274E74603460A88800280ED0F969814245
:102360000BD3291D2848AA6890470100F3D0FFF736
:1023700018F9012025490860F1BD01000CD0FC21AD
:102380008902B161224902038A6134604C60FA69B2
:10239000824204D30C60F1BDEB20FFF7A4FEF1BD37
:1023A000BC3A000001010101583F0000103F00004D
:1023B000503F000011110000218400000C3F00007C
:1023C000303F0000603F0000204000A89F1D00003B
:1023D000302102A8F84F0000384101A8441002A89B
:1023E000204201A8CC4000A8B44000A8FFFFDFFFB6
:1023F000B46000A8C03A0000DC3E0000B128000034
:10240000B31D0000613F0000D44000A82C4000A88C
:10241000B45000A8FEB5C020C00436490860364854
:102420003649C865102436480460102000F0FCF8D6
:1024300001005ED1FF20000532490860324833496F
:10244000086033482D49086025042E48056031484E
:102450000768082000F0E8F801004AD108262E4855
:102460000660012000F0E0F82A48806802902B48BE
:1024700006602B482149086022480560082000F0CA
:10248000D3F8010035D124480660012000F0CCF8D3
:10249000204DA868019021480660184E2148306000
:1024A0000299019800F046F80104FC2080030840DE
:1024B00000900298C10B0198C00B00F03BF8000699
:1024C000FC21890501400098014317480A0C42404D
:1024D000FF239B1CD2181040084330602F60E0039C
:1024E0000849086028682860104804601049816421
:1024F0000020FEBD20E000A8F71700002C0102A874
:10250000401102A8B02002A80000380EB01002A8A6
:1025100010103030E04001A8E05001A8E06001A8B0
:1025200030301010202020203F3F0000402102A822
:10253000F7FFF00010B54904CA104004C310991AFF
:1025400000209A18D30F9A18521052188B115B0E54
:102550005B18DB11D2182023541A01D4220018432F
:10256000CC0F611849105B08F6D110BD63480068B4
:102570000121084209D1624A1268624B000C1840DE
:10258000103A91400B40984201D002207047002041
:102590007047F8B507000F386A461080574CA0689E
:1025A0000A0004D16B461B8882B29A4239D20022BB
:1025B0006B461A80012502263A0012D0226832406A
:1025C00007D000292DD050480088401C4E49088073
:1025D0000020E7604D490E6080B2B84201D36946E1
:1025E0000D804B48456000E030BF2068304003D18B
:1025F000FFF7BCFF0028F7D044484560390010D0F1
:102600002168314005D040490A886B461B88D218A2
:102610000A8006600020E060A068B84201D23C4811
:102620000660FFF7A3FFF2BD3A490A688300181855
:102630004008001F0B689B1A9BB28342FADB002004
:102640007047314803883349096802889342F9D1B9
:10265000100408187047FEB5C009070C69460880C9
:1026600000F04CFB0190254C274D2888B84217DA22
:1026700001202A490860254E30BF02202168014010
:1026800003D030602888401C2880FFF76FFF0100CE
:1026900002D12988B942EFDB0121716000280DD1F8
:1026A0002888B8420AD1A06869460988884205D2BC
:1026B000002168460088FFF76CFF01E0FFF756FF36
:1026C00004008020C00114490860019800F01AFB42
:1026D0002000FEBD10B512490A680E4B1B680C683D
:1026E0009442FAD0DB014033141A02D28869401CAC
:1026F00024180C4800684443181B10BD280002A889
:1027000004ED00E0FF3F0000D03A0000282002A8BE
:10271000281002A8300002A880E200E02C1002A8D5
:1027200020C001A8B83F0000010005D40121C00667
:10273000C00E8140B3480160704710B5C200182335
:102740001340FF249C40E2438907090E994003008F
:1027500004D48B489B089B00C01806E0AA4B0007D6
:10276000000F083880088000181803681A401143C9
:10277000016010BD82B000F0C1FA04000025012103
:1027800068B2FFF7DAFF6D1C0E2DF8D301210F2080
:10279000FFF7D3FF01211120FFF7CFFF0121172001
:1027A000FFF7CBFF01211B20FFF7C7FF01211C20F2
:1027B000FFF7C3FF01211D20FFF7BFFF01211E20EE
:1027C000FFF7BBFF01211F20FFF7B7FF6D486E49E0
:1027D000086001208D4908606C4908606C490860F8
:1027E00080206C4908608A48C16AC1620168016042
:1027F000FEF71BF9200000F085FA864F864C012574
:1028000011E000282FD0FEF73FF92CE00098806DF2
:102810003040FBD0A80381494860800179490860B5
:10282000019800F06FFA7E48006878490091002610
:102830000004000F02280AD17A480078002804D04A
:1028400078490E7080200099C860FEF76BFC00F09C
:1028500055FA0190FEF728F90028E078D1D0002839
:1028600001D1FEF71AF970480068284026D06F4859
:10287000006840041FD5A80368490860FEF704F902
:102880006B490A1D79790C235943515839606649BF
:10289000CB68BB604968F980A906A04B19608949DB
:1028A00009683B7BCB18944679790C2251436246E8
:1028B0005350FEF7F2F8A8038C49086060780028AE
:1028C0000BD12078002807D12079002804D1944822
:1028D000056010208649086030BF667020780028A7
:1028E00098D16E04A07800280DD08E4800688D49DC
:1028F000496801408C48084005D08C49086000F0C8
:102900004BF8404806600220854908608348C5614D
:102910007CE78748016842680A408648104086493B
:102920000860800703D585480188491C01807047ED
:1029300070B58348016840680840000E0006814970
:1029400080221205104218D07F4B1C68641C1C604A
:102950007E4C7F4D2D682D0407D5A568002D04D031
:1029600007250D600125C14E3560402525601B6897
:10297000012B02D910238B62CA67886770BD0000E3
:1029800000E400E0FFFF9BF800E100E004C001A8C4
:10299000044001A8505201A830B581B00400802540
:1029A000AD022C4217D06B480068002801D1FFF718
:1029B0005FFA6949886800280DD164480968816117
:1029C00066490968416166490968664A1160690992
:1029D0000160FFF7D5FAFFF7DDF968005349086099
:1029E000254009D05B480068002802D10820FFF785
:1029F0001BFE0820A7490860A00701D5FFF7FAFAD7
:102A000001B030BD80E200E01CED00E0040002A84F
:102A1000E04001A8A43E0000D53A000090E001A8E3
:102A2000AC0002A89D3A000060C101A890C001A8B6
:102A3000300000A870B582B0974C206B616B0140EC
:102A4000009100983949086000983749014001D049
:102A5000FFF7A2FF8020009901401ED0F821C90194
:102A600023680B4019D0C0221201934215D880234D
:102A70001B062E4DEB6225680D40884E36683604E5
:102A8000360F022E01D0032E03D1002D01D0954226
:102A9000F1D383490B6025490860824800780628F5
:102AA0000DDA0098CC218901014008D000F026F908
:102AB00004000098FDF7B8FD200000F023F902B0F3
:102AC00070BD0000200000A87748016842680A40F5
:102AD0007648026080210A4000D1704780B541608D
:102AE000734801600020FDF79FFD01BD94D001A84F
:102AF000F42302A86F480168406808406E490860E6
:102B0000C00700D4704710B500F0F8F80400FDF7D6
:102B100011FE200000F0F6F810BD0000401002A8E1
:102B20005C2002A84C4201A8020006004C6201A8E9
:102B3000280002A8FFFF00C0282002A8D03A000009
:102B4000B44000A83C6000A8CC3A00002C4000A88B
:102B5000384101A87C3F0000C43E0000A83A0000B4
:102B6000AC3A0000544201A8FEB5544E306C776C6C
:102B700007400124524D274215D0200651490860D4
:102B8000306851490C60002801D0FDF7F5FE4F4830
:102B90000068A021C90188428041C043C00FE8708D
:102BA00020064B490860FDF76FFF0190B80758D524
:102BB0007068C1B20091020A0826A1030227002012
:102BC000009B012B25D0022B25D1012A32D1414A6D
:102BD000D279404B404C1D780C2045430020605179
:102BE0001878400590256D044519032028433B4D76
:102BF00028602E480160211D18780C256843384D47
:102C00002D68AA180A5018780C21484327503548D7
:102C100022E00222DDE7032B21D1012A1ED129481F
:102C2000C461314800688003FBD52C7110202F4906
:102C3000086014E0002A12D12D4A1460264A121DA1
:102C4000244B1B780C246343D0501848416001602A
:102C50001420FFF769FD2548066000E028711A4836
:102C600007600198FDF719FFF7BD00003C5000A870
:102C7000002800D0704710B50C00FDF705FF1D4976
:102C80000C6001221C4B1A600B6C1340FCD1FDF749
:102C900004FF10BD846000A81C4201A8AC0002A87B
:102CA000785201A89C3A000090C001A890E001A8C9
:102CB0000CC001A890C000A890E000A800C002A825
:102CC000D53A0000401002A840E002A8404000A809
:102CD000402002A8A93E0000300000A860C101A861
:102CE000200000A8F42302A85C0002A8F41302A8A4
:102CF00060E101A8008002A8409002A8EFF31080D4
:102D000072B67047002800D162B6704770B50822CD
:102D1000804B1A60804B1C68E40302D500200880B9
:102D200070BD0C880019401E00787C4DA870641C92
:102D30000C8045076D0F052D05D8794E3668F606CF
:102D400003D5022D0ED0032070BD1B689604AE4043
:102D50001E4001D1082070BD052D03D1104201D1C4
:102D6000601E0880B1484860002070BDF3B582B095
:102D70000988A2480078401CC0B2884204D2029858
:102D80004018401E027800E00022644B5A70987888
:102D90004007400F019030240125052833D12242FD
:102DA0003CD19878C6081E203040D60700D528436D
:102DB0009F4EC6402E4070D09E4E019F0097370018
:102DC000C740BC462027381AC006C00E864067465A
:102DD0003E4340200640009F3E43500602D530004F
:102DE000202606439878920801271740BC4687089A
:102DF0000C223A4067463A43C02707401743202039
:102E000038439E7058705878232202400BD0424AB3
:102E10001268520302D50440202C01D0052076E030
:102E200002223C4C226008229C78A40601D4202374
:102E300003E09B78134202D04023364C2360374B8B
:102E40009B786C462370C0239C4C2668B60701D43F
:102E5000184216D06E46377827263E402E4F232E36
:102E600005D13E68F60209D42A4E356009E0252EC8
:102E700004D0212E05D13E68360302D50426254F05
:102E80003E60266802243440019F002F1ED1B60602
:102E900029D5224E76783340402B15D00C23334071
:102EA000042B11D0104229D11B4A002C03D01368E7
:102EB000DB00DC0F65406B461B78DC07E40F254226
:102EC0001CD01268120116D4072020E0022FE0D196
:102ED000B60608D5002CDCD1CC26064003D16E46C0
:102EE0003678760601D5032011E0029E3678052E4D
:102EF000CFD006200BE08022064B1A60C00702D418
:102F0000491C03980180A84803994860002004B038
:102F1000F0BD0000481002A8DC3E0000D23A0000DC
:102F2000440002A8F2B50200A04840780021C3077F
:102F300005D4009B1B88D218521E167800E000268C
:102F4000022210239A4C25681D4015D0994D2F69F7
:102F50007E40F6B2002E05D16668B446FE0967468B
:102F60007E401640002E04D02D682D0204D40A2085
:102F7000F2BDD506904F3D608C4D3602C02707400C
:102F800037438D4E3760AE7877077F0F022F06D11B
:102F90006468224003D1009801800020F2BDA02186
:102FA0000140B208102414400C432109020701D447
:102FB0000B431900CC2202401A2008400A2804D1F1
:102FC000CC2A02D00800FD2101407C48C840C0073F
:102FD00001D40720F2BD7A48C840112101401143B5
:102FE0002020084328700D210140009802D000F0F5
:102FF000A1F8F2BD00F020F8F2BD0000C03A0000D8
:1030000038B50C006F490B781A09533995004919E6
:1030100025881B071B0FEB1A9A1A8018FFF7A6F8D2
:10302000010002D1200000F007F832BD1129000094
:10303000F300A3E398144068F8B504001F4805683E
:103040005A4F3878000938700D26290601D53042CC
:1030500005D108205C490860EF20FFF744F8200004
:103060003978314202D000F065F8F2BD0021052226
:103070002A4020D003884F4AD360544CEE0706D52F
:103080005B1C0380690600D4514C446014E0432665
:103090002E40422E03D15B1C038044600CE01023C1
:1030A000494C23601268920000D40023494AD3623D
:1030B00080231B03136001800020F2BD480002A89A
:1030C0000A888018401E0078830601D4121D0A80E9
:1030D0001822024004D008885208D21E80180880A6
:1030E0003D480068C00702D50888401C0880384861
:1030F00048600020704710B50022374B1C68E40779
:1031000008D51B689B0705D40B88C018401E0078A3
:1031100004280CD110202C4B1860264B1B689B00F8
:1031200000D400202B4BD8628020000318600A8056
:10313000002010BD31B581B0284A00200090082140
:103140001A4B1D7802230C24254202D10021244A67
:1031500003E02C40082C00D10221EC0703D5140019
:103160001E22624000931D420AD080231A4A126830
:103170001A4003D01B4A144C236001E00022D243C2
:10318000019B194C2260194AFF249470009C0D0188
:103190002543D57010701888009A5118401818806F
:1031A00013485860002036BDC92A0000D23A0000FA
:1031B000440002A8DC3E0000441002A80D0F0C0DD4
:1031C00005170850633F0000482002A8652C000046
:1031D0009B2C00001C1002A8480002A8DE1B250141
:1031E0002084100000FCFF010C3F0000603F000045
:1031F000A52B000080B5FDF787FCA34800680003FD
:1032000007D4FEF77DFCFDF7F8FDFEF74DFCFEF759
:103210000BF980208005FDF72FFC01BD80B5FDF77F
:1032200073FC80204002FDF727FC01BD7CB5FDF753
:103230002CFDFDF769FC954801680091944A4068AF
:1032400010609448016800200124214211D0924B63
:103250001C600090914B5D6815601D68904A16686F
:10326000731BB54202D39669761C9B198D4EB342EF
:10327000F5D3A54D2860880503D50098FDF794FA8D
:1032800000902868044004D16846FDF72AFD002814
:1032900002D10098FDF76DFD80208002FDF7ECFB68
:1032A00073BD80B59948C16BC90506D58021090653
:1032B000016000BF00BF49080160FDF7C9FDFDF7CF
:1032C00023FCFDF72BF98020800391490860FEF76D
:1032D00042FD8020C002FDF7CFFB01208D49087020
:1032E00001BDF8B5FDF710FC1020C0438A49086005
:1032F00000208649886389490860FDF7C5FB060000
:103300000224874804600125FEF7A5FD002802D0AD
:1033100084490D7002E03000FDF7BFFB824F834E01
:103320003078C021014001D1E00638602C20305CAB
:103330000521014002D0FDF759FC01E0FDF763FCD7
:10334000F06A044001D071480560FEF795FF202027
:10335000714908607649096808403860FEF79CFDAD
:10336000E804FDF789FBF1BD80B5FDF7CDFB4648CC
:103370000068000303D4FDF740FDFEF755F88020F8
:103380004003FDF779FB01BD38B5FDF7BDFB5F4C90
:103390002025FEF767FC002806D0206B000704D527
:1033A000FEF788FCFEF75FF92560FDF726FDFEF7C6
:1033B0003BF8AF4800780C210140042902D1FDF709
:1033C00015FC01E0FDF71FFC6804FDF755FB4020EC
:1033D000206031BD1CB50520A6490860FDF794FBAF
:1033E000FEF768FCA448006800906846FEF7F6F80F
:1033F0000400FEF7B0FC002C02D10098FEF754F94F
:1034000080204004FDF738FB13BDF8B5FDF77CFBC9
:10341000FDF73AFB0221424A1160FDF73EFB974C53
:10342000656A5020284002D0FDF7E0FB01E0FDF77F
:10343000EAFB364FFEF716FC00281BD1786B4007DD
:103440001DD4386BE0214901014018D1A80611D4E0
:10345000FDF704FB656A8A4E354207D0FF20C04362
:103460002D186562802000052F490860FDF7FFFADE
:103470002E4002D00120386001E000202060802032
:103480008004FDF7F9FAF1BD0C0002A8BC3F000072
:10349000B83A0000400002A8402002A8E83E000020
:1034A00020C001A801FF000080B5FDF72DFBFEF74D
:1034B000FBFAFDF7B9FF8020C004FDF7DDFA01BD7E
:1034C00010B5FDF721FB8024A4039D490968090379
:1034D00016D4674909680322C00601D50A4001E0F5
:1034E00088080240012A02D1FDF780FB01E0FDF7C8
:1034F0008AFBFF208001006892490860FEF72BFCE0
:103500002000FDF7B9FA10BDA43A0000100002A88F
:10351000B46000A8D63A0000442002A8BC3A0000DB
:103520007CE40340D83A0000441002A8DC3E0000CE
:10353000084001A8FEB501266846067000240294E2
:10354000FDF7E2FA07007E4D2868000300D58AE007
:1035500003209F49C8639F4800680F210F22024043
:10356000032A03D0000B0140062948D19A4800687D
:10357000FFF7B0F89949C96C4618FEF76CFC0028B3
:103580000ED097480078C0060AD0000D95494843F0
:10359000800B361891480068002801D1480A361877
:1035A000002E01D5019400E00196686B0107C80F59
:1035B0008B4A0321136B0B40022B1AD1FB0618D543
:1035C0005268D30513D5AB6B874E3340B34203D15A
:1035D00010217F4AD1630CE092050AD4EA6B2823BC
:1035E000134006D16B461C70804A116001E06A46A8
:1035F0001470029068460678002E03D10FE07748D9
:10360000806C0190FEF72EFB002808D0FEF752FBDD
:103610000298002802D0FEF726F800E000260220DB
:103620006B490860002E11D06D483021405C0C21A0
:103630000140042902D0A86BC00602D5FDF7D6FAD6
:1036400001E0FDF7E0FA202068600CE0FDF7D5FB13
:1036500001A8FDF7C3FF0400FEF77DFB002C02D19B
:103660000198FEF721F880200004FDF705FAF7BD68
:10367000083F00003C1102A8CC3F0000E43E0000DF
:1036800000FFFF00FEB500240194FDF73DFAFEF7B0
:1036900062FB574EF06EFF25AD010007000F0728B3
:1036A00006D17068002803D4FEF7FEF9286840E0D0
:1036B000012103204F4A73685B070BD44E4B1B68F4
:1036C0000B4007D01368DF050BD55B0502D43368C8
:1036D000DB0503D40191D16A890904E01021434B31
:1036E0001960D16A090908400090FEF7DDF90098D9
:1036F000002805D17068C00602D4FDF784FA01E005
:10370000FDF774FA00200199002903D13B480068B5
:10371000FEF7E0FF2969401801D5009400E0009011
:103720006846FDF7DEFA002805D10098FDF721FB79
:1037300068690449086080200005FDF79DF9F7BD20
:103740000C0002A8B83A0000F8B5FDF7DDF9002436
:1037500000252B48066B80277F05300606D53007ED
:1037600009D5FEF7A7FAFDF77EFF2CE001252248D8
:103770000068284018D0FEF797F90220064002D0D2
:1037800020490C60C86120480468002D03D0200047
:10379000FDF7A0F80400FEF78DFA2000FDF784FF86
:1037A0003800FDF769F9F1BDFDF758F917480078C1
:1037B000C0210140402902D1FDF718FA01E0FDF7D0
:1037C00022FAFDF754F920200D490860E8E70000CF
:1037D000082002A8AC0002A80CC101A87C3F000090
:1037E000D83E00009999090010000010441002A86A
:1037F000400002A8DC3E0000B44000A81CC101A8A3
:10380000100002A8180000AAD83F0000083F0000DE
:103810000120094908600949094A1160094A1160F3
:103820000321094B1960094B1960D0600848094908
:103830004860FEF79FFF00BF040002A80000FF3FA2
:10384000282002A82C1002A840E002A844C002A828
:10385000192300000000000080B5EFF305800B285D
:1038600001D23A2100E029219C2252000020FFF7DA
:10387000FFF9FEE7060D0000DA3A00009C3A00006E
:103880009C3A00009C3A000000000000483D010006
:1038900000000000A038010001000000000000004E
:1038A000BC380100809C2B8F80841E00000000002B
:1038B0002700FF7F5000002000000000FC4F0103A4
:1038C0007042010010400100004100003C40040033
:1038D000100000000000000000400000200704006D
:1038E00050400100000400005C4001000D0F00008A
:1038F0000441010003C001002040030130000046E4
:103900001FC8010000200010384001010000000025
:10391000584004011800050040080000090000009C
:1039200091000A0080400F018C002C020000000072
:10393000120012005B808C1B000000000002050ECC
:103940001C2F4353626968615543320416100E0EF2
:103950000D0C0A0807060504030302020201010117
:1039600001010100EC40010180B0B18CFC40030179
:103970009C200A0001612080B75635120C410301DA
:10398000B8551200A01B04290888404028410101B5
:1039900000000000384107014CD4E83B04196F30A7
:1039A000080E141A20262C32383E10325476980A0B
:1039B0001D5F000070410101000000003442010160
:1039C0000008000E48420101F4811F007842010105
:1039D0000000000038800101114910009C800301A3
:1039E000EB40020070380300D0000000A8800111F5
:1039F000F0010000A8800131055AFD01AC800111E1
:103A0000F0010000AC800131053EFD00E400010240
:103A10006C2C511154010102C43F0000FFFFFFFF55
:103A2000483D010000000000343A010001000000A0
:103A300000000000503A0100809C2B8F80841E0003
:103A4000000000002700FF7F500000200000000061
:103A5000FC4F0103B442010010400100004100008E
:103A60003C40040010000000000000000040000086
:103A70002017040050400100010400005C400100D8
:103A80000D0F00000441010003C0010020400301AC
:103A9000300000461FC8010000200010384001011E
:103AA0000000000058400401180005004008000014
:103AB0000900000091000A0080400F018C002C02D8
:103AC00000000000120012005B808C1B0000000050
:103AD0000002050E1C2F435362696861554332048E
:103AE00016100E0E0D0C0A08070605040303020249
:103AF0000201010101010100EC40010180B0B18C23
:103B0000FC4003019C200A0001612080B756351259
:103B10000C410301B8551200A01B0429088840403D
:103B20002841010100000000384107014CD4E83B66
:103B300004196F300A10161C22282E343A40103215
:103B40005476980A1D5F80A47041010100000000B6
:103B5000344201010008000E48420101F4811F00B7
:103B60007842010100000000388001011149100075
:103B70009C800301EB40020070380300D00000007D
:103B8000A8800111F0010000A8800131055AFD0153
:103B9000AC800111F0010000AC800131053EFD0058
:103BA000E40001026C2C511154010102C43F0000D9
:103BB000FFFFFFFF483D010000000000C83B01007F
:103BC0000100000000000000E43B0100809C2B8FFE
:103BD00080841E00000000002700FF7F50000020AE
:103BE00000000000FC4F0103E8410100104001000B
:103BF000014100003C400400000000000000000003
:103C000000400000A0070400504001000000000038
:103C10005C4001000000000004410100FF4C000076
:103C200020400301000000861FC00100006000006A
:103C3000384001010000004058400401C804FF0062
:103C400040080000010000009200040080400F01C5
:103C50008C000C0200000000B603220000000000EF
:103C6000000000000002050E1C2F435362696861CA
:103C70005543320416100E0E0D0C0A0807060504F3
:103C8000030302020201010101010100EC400101F4
:103C900090E82B8CFC40030190200A00055B5880C3
:103CA0004737414A0C410301F56252002A1949295C
:103CB000893B404028410101FFDD000038410701F8
:103CC000E853FA00000000000000000000000000BF
:103CD0000000000000000000000000007041010131
:103CE000C1030000344201010000000E48420101FE
:103CF00058AA1EC07842010100000000388001016E
:103D0000552510009C80030100000000707803001E
:103D1000D0000000A8800111F0010000A88001314E
:103D20000542CB01AC800111F0010000AC800131F3
:103D3000053EFD00E40001026E2C51135401010206
:103D4000C43F0200FFFFFFFF0C40010001810100A2
:103D5000204002000000000001000000304003008D
:103D600000000000000000000000000060400100B2
:103D700001010000A840010007000000BC40040051
:103D80000000000000000000000000000000000033
:103D900008410300FF4C0000FF4D0000FF4D0000F4
:103DA00020C0011000F8070020C00130F502080013
:103DB00024C0080000130000EC80B3834375405119
:103DC000A00F00483040000000000000000000008C
:103DD0002E02000050C00400511130040E2D09E6DF
:103DE00054060708D1B6020064C00A000430001C63
:103DF000403018090D647920EBFCFB017FF6E803E5
:103E0000BD4B721511A3180510325476980A0000A4
:103E1000000000000800010108070000180001016F
:103E2000AAAAAA00200001010060DA001C400101DA
:103E3000100000002C40030100800000000000037F
:103E40000000000068400201294176710000000076
:103E5000BC4002010000000000000000E040020140
:103E60003300000000000000F440020164048307F6
:103E70008813C83A244101010000000030410201CA
:103E80006406660C0C0100005441010101010000B0
:103E900068410201640483078813820030420101F3
:103EA0000000000038420201000000000000000095
:103EB00044420101000000005442090100000000DA
:103EC00000003C0000000000000000005555555562
:103ED000170000000000000000000000AAAA060071
:103EE0007C4202010000000000000000108001017F
:103EF000030000003C80010101000000B0800201CD
:103F0000000300023700000198000202000C0004C8
:103F10004C000000A400010200040000D0000202D6
:103F2000050040AA88010000F40002020000000021
:103F30003D210811FC0001123F000000FC0001328D
:103F400000540400300101026000510268010102C6
:103F500000040000FFFFFFFFFC4F01032C420100A3
:103F600010400100014100003C400400000000003E
:103F70000000000000400000A007040050400100C5
:103F8000000000005C40010000000000044101004E
:103F9000FF4C000020400301000000861FC001000C
:103FA000006000003840010100000040584004015A
:103FB0006402FF00400800000100000092000800B9
:103FC00080400F018C000C0200000000D70322008B
:103FD00000000000000000000002050D1A2D3F50F7
:103FE0006068696357463525150D090807060505FC
:103FF000040404030303030202020202010101019B
:10400000EC40010190382C8CFC4003019C200A00FC
:10401000055B58804737414A0C410301B8555200AF
:104020002A194929893B404028410101FFDD000050
:1040300038410701E853FA000000000000000000CA
:104040000000000000000000000000000000000070
:1040500070410101C1030000344201010000000E63
:104060004842010158AA1EC0784201010000000028
:1040700038800101114910009C80030100000000FC
:1040800070780300FFC00200A8800111F001000059
:10409000A88001310542CB01AC800111F001000084
:1040A000AC800131050A0D00E40001026C2C5111B5
:1040B00054010102C43F0000FFFFFFFF483D010023
:1040C00000000000D04001000600000000000000D9
:1040D000583F0100809C2B8F80841E000000000050
:1040E00022002C015000002000000000583F010079
:1040F000809C2B8F80841E00000023002300B600CC
:104100005000002000000000583F0100809C2B8FD1
:1041100080841E000000240024009D005000002028
:1041200000000000583F0100809C2B8F80841E00FF
:104130000000250025007D00500000200000000048
:10414000583F0100809C2B8F80841E0000002600B9
:1041500026003A005000002000000000583F0100F7
:10416000809C2B8F80841E000000270027002C01DC
:1041700050000020000000000200000000F0490292
:104180000614000000E0930405380000A0080000B9
:104190000000580901040706100A01040707C80AAD
:1041A00000040807800B00040808380C0004090804
:1041B000610800000000680800000000C709010451
:1041C00004032C0B01040404920C01040504193FA0
:1041D0000106041001000001010600102700000C78
:1041E00000000000000000000B0000000000800044
:1041F00000000000CE4101002C040100000000007E
:10420000841743000024F40040420F000101F50030
:104210005525500300000000784101000000000017
:10422000000000000000000038420F000B000000FA
:104230000000800000000000CE41010038040100B1
:1042400000000000004786000048E80180841E004E
:104250000101F50011495002000000007841010001
:1042600000000000000000000000000054841E0058
:104270000B0000000000800000000000CE410100A3
:104280001404010000000000802596000048E801A9
:1042900040420F000108F5001149500200000000E3
:1042A0007841010000000000000000000000000054
:1042B0003D420F000B0000000000800000000000E5
:1042C000CE4101002004010000000000802596007E
:1042D0000048E80140420F000102F5001149500278
:1042E0000000000078410100000000000000000014
:1042F000000000003D420F005C00002000000000B4
:10430000801EFF7F010000000505010008070A006C
:10431000DC030100EDA10000FFFFFFFF21A9000069
:104320001DA9000041A90000FFFFFFFFFFFF0000E3
:10433000FFFFFFFFFF00030000000000FF037F0FEF
:10434000DDCF0000FFFFFFFFFFFFFFFFB3F4000022
:104350005C000020000000000000000000000000E1
:10436000000000000000000000000000000000004D
:10437000000000000000000000000000000000003D
:10438000000000000000000000000000000000002D
:10439000000000000000000000000000000000001D
:1043A000000000000000000000000000000000000D
:1043B00000000000F0B5114A114C124E00F001054A
:1043C000E3695F0713D40DB9334213D103EA000741
:1043D0008F4207D10B4A1A40002A14BF6FF0010028
:1043E0000020F0BD013AEBD16FF00200F9E74FF089
:1043F000FF30F6E76FF00100F3E700BF809698000A
:1044000000000340020001006561000041610000FE
:10441000FFFFFFFFFFFFFFFFFFFFFFFFFFFFFFFFAC
:10442000FFFFFFFFFFFFFFFFFFFFFFFFFFFFFFFF9C
:10443000FFFFFFFFFFFFFFFFFFFFFFFFFFFFFFFF8C
:10444000FFFFFFFFFFFFFFFFFFFFFFFFFFFFFFFF7C
:10600000C00A0020F1660100ED660100ED660100A6
:106010001D860100ED660100ED660100ED660100E0
:10602000ED660100ED660100ED660100ED66010020
:10603000ED6601006CE403003D630100ED660100C4
:10604000ED660100ED660100ED660100ED66010000
:10605000ED660100ED660100ED660100ED660100F0
:10606000ED660100ED660100ED660100ED660100E0
:10607000F5940100ED660100ED660100ED6601009A
:10608000ED660100ED660100ED660100ED660100C0
:10609000ED660100ED660100ED660100ED660100B0
:1060A000ED660100ED660100ED660100ED660100A0
:1060B000ED66010009D00300ED660100C5D90300BB
:1060C0007DD9030079D90300D1D10300C1D90300E0
:1060D00081D9030099D9030085D9030025DA03008B
:1060E0005DB4030025B6030005DA0300ED66010088
:1060F000A1840100ED660100ED660100ED6601007E
:10610000ED660100ED660100ED660100ED6601003F
:10611000ED660100ED660100ED660100ED6601002F
:10612000ED660100ED660100ED660100ED6601001F
:10613000ED660100ED660100ED660100ED6601000F
:1061400010B5054C237833B9044B13B1044800E073
:1061500000BF0123237010BDA80E00200000000026
:10616000742D040008B5034B1BB10349034800E03C
:1061700000BF08BD00000000AC0E0020742D04001C
:10618000A3F5803A704700BF174B002B08BF134B95
:106190009D46FFF7F5FF00218B460F461348144A32
:1061A000121A27F008FF0E4B002B00D098470D4B1A
:1061B000002B00D098470020002104000D000D485E
:1061C000002802D00C4800E000BF27F089FE200024
:1061D000290000F091F827F06FFE00BF00000800D2
:1061E0000000000000000000C00A0020A80E0020EF
:1061F000F8260020000000000000000070477047F3
:1062000010B50368384A23F47F4323F00703934211
:10621000044688B049D002F1827293424DD0334A8D
:1062200093425ED10DF10F0104A81BF051F8014615
:1062300000B1FEE79DF8153008228DF818309DF862
:10624000143012208DF819309DF813308DF81A3063
:10625000FF238DF81B30FE238DF81C309DF8123083
:106260008DF81D309DF811308DF81E309DF81030DE
:106270008DF81F3006AB1AF0EBFF00B1FEE71C4CA7
:1062800020461AF083FF034600B1FEE7A0220090EB
:10629000114620781AF092FF00B1FEE70222207822
:1062A00011461AF0ADFFE0B1FEE70222104B114695
:1062B00018781AF0A5FFA0B1FEE7B0F80530152B4D
:1062C0000FD1C37A0B484BB100F0AFFA0022152171
:1062D000207908B0BDE810401AF0D0BF00F0A8FA4D
:1062E000F4E708B010BD00BFA0000601A000010047
:1062F000C00A002038E4030008B503F018F9FFF7DE
:106300007DFF03F021F9FFF77AFF02F009FBF8E7C0
:1063100008B507F055FA08F032FF0EF08DFB0BF0D0
:10632000CAF8BDE808400FF003B908B512F034FE12
:106330001AF087F8BDE8084013F038BA07F0C8B87B
:1063400008B50548FFF7F1FF034806F06FFEBDE80A
:106350000840024806F09ABE08E40300E8E30300A0
:1063600010B5044600F0D2F82046FFF749FF10BDF3
:106370000120704700B5C3B006F0C2FF06F0EBFF86
:1063800048B1FFF7F5FF30B101A81AF0F8FE10B9D7
:1063900001A8FFF7E5FF43B05DF804FB08B5012055
:1063A00000F0E4F8202000F0E1F8BDE808404020CB
:1063B00000F0DCB808B50321802001F029F80321A2
:1063C0004FF4806001F024F803214FF4906001F055
:1063D0001FF808214FF4C06001F01AF808214FF4AB
:1063E000F06001F015F808213E2001F011F80821B5
:1063F0002D2001F00DF8002008BD000008B5174B56
:106400001B68C3F30743012B0ED1154B04205A6EB2
:106410004FF480231349520358BF134A4B6601F5CA
:106420001041086258BF536601F044FE00F0C7F8FF
:1064300001F0C0FD01F05CFE01F0DEFD01F01AFE8E
:1064400001F01EFEFFF7B6FF01F0C4FD00F0ACF84E
:1064500000F04AFABDE8084002F072B90080E00F8F
:10646000008000400090004000A0004000F048B8CC
:1064700008B500F079F802F0AFFD01F03BFE05F041
:10648000F2FBBDE8084002F01FB808B501F06EFD50
:1064900001F078FDBDE80840FFF752BF7047704734
:1064A0007047FFF767BF70470120704701207047B2
:1064B00010B506F091FF0446FFF7F6FF002814BF61
:1064C0002046002010BD38B502F02CFB044606F033
:1064D00091FF042810D002284FF0000508BF0124C6
:1064E000FFF7E4FF042809D0022808BF0124002D8B
:1064F00018BF0024204638BD0125F1E70024F9E744
:10650000014800F08FB900BF38E403000368144A63
:1065100023F47F4323F00703934210B5044615D0BC
:1065200002F18272934219D1B0F80510192915D1E0
:1065300001220C4B00791A7000221AF09FFE00B164
:10654000FEE720791AF072FE40B1FEE7054B1B789A
:1065500023B1BDE8104002201AF0A8BE10BD00BF54
:10656000A0000601C40E00200F207047082808B5BF
:106570000DD004DC0138012809D90E2013E02028B1
:106580000AD04028F9D100230422194602E004224F
:1065900000231146184603E004220023114601207F
:1065A00001F078FA002008BD08B501213A2000F07A
:1065B000C9FBFFF7F3FEBDE8084000F005B8012174
:1065C0003A2000F0BFBB00002DE9F047434D88B0F2
:1065D00001AC0FCD0FC495E80700012584E8070042
:1065E00001213A2000F0AEFBDFF8FC8001212820D9
:1065F00000F0A8FB3A4B404601A903938DF81250D6
:1066000001F06CFB2B4604220021022001F042FA2B
:106610002A4629460023022001F03CFA02212B469B
:106620000846042201F036FA042203212B460220F8
:1066300001F030FA4FF002132A4C0226C4F830362B
:10664000A3F58033C4F82C361C230827C4F834661D
:1066500004F5005AC4F81C364FF4487002F080FF6D
:1066600004F580591420CAF8707002F079FF2320D5
:10667000C9F8707002F074FFB9214046CAF8707012
:1066800001F08CFB002330461A461946C9F8707099
:1066900001F000FA002329461A46304601F0FAF9C3
:1066A0002B4631463046002201F0F4F92B460022F9
:1066B0000321304601F0EEF9404601F0E1FA0021F5
:1066C0002820C4F83016C4F82C16C4F83416C4F8C0
:1066D0001C1600F037FB08B0BDE8F08750E403005B
:1066E00000127A0000C0034000C00540FEE7000031
:1066F00008B500F013F8064B064A07498B4201D350
:10670000FFF742FD52F8040B43F8040BF6E700BF15
:10671000C00A00207C2D0400A80E0020044B054A6E
:106720009A60D3F8882042F47002C3F8882070473A
:1067300000ED00E000600100014B1868704700BFE9
:10674000080B0020084B1B6F03F00703022B04D03B
:10675000032B05D0012B05D0FEE7044B18687047CA
:10676000034BFBE70348704700800040080B002004
:106770000C0B0020002D310108B5FFF7E3FF054B9E
:106780001B6FC3F303330133B0FBF3F0024B18600C
:1067900008BD00BF00800040040B00200048704787
:1067A00000B4C404014B1868704700BF0C0B0020F4
:1067B000054B1860054B1B6F03F00703032B01D13A
:1067C000FFF7DABF704700BF0C0B002000800040CD
:1067D0000020704700487047002D31014FF4004001
:1067E00070474FF47A707047014B1868704700BFCC
:1067F000100B002000230360704703680B600160EA
:106800007047000005490A681318054883428CBF89
:106810004FF0FF320B601046704700BF140B002092
:1068200000800020D0E900031847836800681847FB
:10683000C3680068184710B5044601213A2000F0EB
:1068400081FAA3782078B3FA83F3042261785B0994
:1068500001F020F9002010BD10B501224378017825
:10686000847830209A40054B00FB01331CB942F27A
:1068700010015A5010BD41F21001FAE700C0034068
:1068800010B5012243780178847830209A40054B76
:1068900000FB01331CB941F210015A5010BD42F205
:1068A0001001FAE700C003400122417803788A40D2
:1068B00030214B4343F2100103F1804303F5703361
:1068C0005A50704730230246017840785943054BAF
:1068D0005B58C34003F0010093780BB980F00100CE
:1068E000704700BF10C00340024B1968024B186884
:1068F0001FF08CBC1C0B0020180B00207047000000
:1069000037B5920004460D46019227F045FC431C22
:106910000BD060B929462046019A27F015FB0028C4
:10692000044808BF002003B030BD0348FBE703481C
:10693000F9E700BF10E000F021E000F024E000F0F3
:1069400013B5044601A801F079F99DF8063001223B
:1069500023804FF4807300206380054B9B680A33CB
:1069600003F01F0302FA03F3636002B010BD00BF1F
:106970000080E00F01F0DEB808B501F0CBF8002090
:1069800008BD10B5044644EA010313F003030846AA
:1069900009D1934201D1002010BD54F8231040F8D2
:1069A00023100133F5E72146920027F0DDFAF2E7E4
:1069B00010B5044627F0E8FB431C15D0B0B90C4BCA
:1069C00020469B680A3303F01F020123934023F003
:1069D00003032344984201D1002010BD50F8042B3A
:1069E0000132F7D00348F8E70348F6E70348F4E735
:1069F0000080E00F0EE000F021E000F024E000F065
:106A000008B500F09BFE014B186008BD581500202A
:106A1000014B186800F096BE581500200A4601394F
:106A2000014401F0ABBD4FF04023D3F88420D206DF
:106A3000FBD4D3F88400C0F38110704738B5104BF5
:106A40000546D3F820310C4603F00303022B0BD08C
:106A5000032B0DD0012B0FD1FFF76EFE052305B1DF
:106A6000286004B1237038BDFFF79CFE0323F6E7CE
:106A7000FFF7B0FE0223F2E700231846EFE700BF5E
:106A80000080004073B50D4600210E4B0191D3F8F4
:106A90008041064604F00304012C09D0022C0CD0DE
:106AA0000C460EB1019B336005B12C7002B070BD75
:106AB00001A8FFF7C3FF0F24F3E7FFF78BFE019058
:106AC000EFE700BF0080004038B5174B0546D3F80C
:106AD00024310C4603F00703013B052B20D8DFE8E7
:106AE00003F0030F171B0B13FFF726FE052305B159
:106AF000286004B1237038BDFFF71EFE0623F6E7B9
:106B0000FFF750FE0323F2E7FFF74CFE0423EEE706
:106B1000FFF760FE0223EAE7FFF75AFE0723E6E7E6
:106B200000231846E3E700BF0080004038B5104B53
:106B30000546D3F840310C4603F00303022B0BD07B
:106B4000032B0DD0012B0FD1FFF748FE092305B110
:106B5000286004B1237038BDFFF746FE0823F6E72E
:106B6000FFF73FFE0B23F2E700231846EFE700BFD5
:106B70000080004038B5134B0546D3F800320C4670
:106B800003F00703013B032B18D8DFE803F0020AE8
:106B90000E12FFF723FE092305B1286004B123700C
:106BA00038BDFFF721FE0823F6E7FFF71AFE0B2397
:106BB000F2E7FFF7E1FD0E23800AEDE70023184618
:106BC000EAE700BF0080004038B5104B0546D3F817
:106BD00040320C4603F00303022B0BD0032B0DD0E5
:106BE000012B0FD1FFF7FAFD092305B1286004B18D
:106BF000237038BDFFF7F8FD0823F6E7FFF7F1FD36
:106C00000B23F2E700231846EFE700BF00800040A7
:106C100038B5104B0546D3F860310C4603F003033A
:106C2000022B0BD0032B0DD0012B0FD1FFF7D6FD7C
:106C3000092305B1286004B1237038BDFFF7D4FDE6
:106C40000823F6E7FFF7CDFD0B23F2E700231846F4
:106C5000EFE700BF0080004010B40D4C0B46D4F8A5
:106C6000204204F00304012C0AD0022C0CD008B1FD
:106C7000002101600BB100221A705DF8044B7047CF
:106C80005DF8044BFFF7DABE5DF8044BFFF74EBF2B
:106C900000800040B0F5207F1FD009D8B0F5007FFC
:106CA00015D003D868B1B0F5C07F0AD000200CE041
:106CB000B0F5607FFAD10B4BD3F88000C0F3011020
:106CC00003E0084B186FC0F3033001307047054BE9
:106CD000D3F89000C0F30460F7E7024B186FC0F3DD
:106CE0008020F2E7008000404FF4003238B50E4BB0
:106CF00005469A660020FFF7CDFF41F671320B4B37
:106D00006843DC690A4DDA639A68A84204F4803467
:106D100022F4401203D9012918BF42F480129A606C
:106D20000CB10022DA6338BD00900040000003403F
:106D3000005A620208B5FFF731FDBDE808400021A6
:106D4000FFF7D2BF420910B510D0012A10D00B4B6B
:106D50000B4C022A18BF234600F01F0051B103F567
:106D60008053012202FA00F0186010BD1346F3E7C9
:106D7000044BF1E703F50053F3E700BF68800040E0
:106D800060820040648000401FB5002380280446D4
:106D9000029372D02BD8002873D0A0F12004A3B2A4
:106DA000412B32D8412C30D8DFE804F06B6E6B6E8B
:106DB0007D7D7D7D6E6E873C9E623C6E6E6E2F2F5C
:106DC0002F2F2F2F82546E6E6EA8A36E2F2F2F2F72
:106DD0002F2F2F2F2F2F2F2F2F6B2F6B6B6B7D2F85
:106DE0002F2F2F2F2F2F2F2F2F2F2F2F6B6BB0F5F4
:106DF000806F58D021D8B0F5007F4FD008D8B0F5BB
:106E0000807F5FD0B0F5C07F3BD0029804B010BD4A
:106E1000B0F5607F42D0F8D8B0F5207F34D0B0F51F
:106E2000407FF2D1FFF7A8FC02464FF42070FFF735
:106E300031FFB2FBF0F0400821E0B0F5C06F53D055
:106E40000DD8B0F5A06F33D0B0F5B06F35D0B0F538
:106E5000906FDAD1002102A8FFF736FED5E7B0F532
:106E6000E06F46D0B0F5F06F48D0B0F5D06FCCD120
:106E7000002102A8FFF77EFEC7E7FFF763FC029040
:106E8000C3E7FFF779FCFAE7FFF776FC02464FF419
:106E90002070FFF7FFFEB2FBF0F0F0E7FFF752FCC7
:106EA00002462046F5E7002102A8FFF7C7FDACE740
:106EB000002102A8FFF7D0FEA7E7002102A8FFF7F4
:106EC000E1FDA2E703934FF0E0231B695B0705D5C3
:106ED000FFF752FC0390039B029396E70DF1070125
:106EE00003A8FFF723FEF6E7002102A8FFF71EFE26
:106EF0008BE7002102A8FFF767FE86E7002102A8C2
:106F0000FFF786FE81E7000008B58020FFF73CFF11
:106F1000034B98429EBF4FF48032024B1A6708BD64
:106F2000005A620200A00040002307B5B0F5807F40
:106F30008DF802307FD02AD8382800F0A0800CD8F5
:106F4000243883B2092B10D809280ED8DFE800F0C6
:106F50006D6D6D6D0D0D670D3987522865D009D89F
:106F60003D283ED03E2800F090809DF8020003B0FE
:106F70005DF804FB8028F8D1474B1B6F03F0070333
:106F8000013B032BF1D8DFE803F048444276B0F52B
:106F9000D06F64D01BD8B0F5A06F70D00BD8B0F50F
:106FA000806F42D0B0F5906FDFD100200DF102016B
:106FB000FFF78AFDD9E7B0F5B06F30D0B0F5C06FFC
:106FC000D3D100200DF10201FFF7B0FDCDE7B0F500
:106FD000006FEAD00BD8B0F5E06F56D0B0F5F06F87
:106FE000C3D100200DF10201FFF712FEBDE7B0F59D
:106FF000086FBAD1284BD3F8003103F00303022BFA
:1070000033D0032B35D0012B37D1FFF7CBFB032334
:1070100000E005238DF80230A7E70223FAE70020FD
:107020000DF10201FFF72EFD9FE700200DF1020197
:10703000FFF704FD99E701934FF0E0231B695B071D
:1070400007D5FFF799FB0C238DF803309DF803302B
:10705000E0E70DF1030101A8FFF768FDF6E7002066
:107060000DF10201FFF786FD7FE7FFF7BDFB082367
:10707000D0E7FFF7ADFB0723CCE70123CAE70020E9
:107080000DF10201FFF7E8FD6FE700200DF10201AD
:10709000FFF79AFD69E700BF0080004008B5FFF7E1
:1070A00043FF082812D00938C0B2012811D84FF484
:1070B0000012094B4FF6FF705A6603F5D8335B6A2E
:1070C00013F0010F18BF4FF4FA7008BD034B188876
:1070D000FBE74FF6FF70F8E7009000403C0B002004
:1070E00070B504468020FFF71FFF03287CD04FF4C3
:1070F0000022424B42495A6645F60E030222C1F86D
:107100008030404B9A62012203F580539A628A6D67
:1071100012F48032FBD1637820781B0543EA0063C8
:10712000A079257C0343E078667C43EA004320791C
:1071300043EA0033607943EA80130B618B69E07A9C
:1071400003F000430343E07943EA8063207A43EA93
:107150000063607A43EA0043A07A43EA00238B612C
:10716000637B096A002B18BF0822207B21F00D01E8
:1071700043EA010343EA800342EA0302204B1A6216
:10718000A27B4FEA421230D1986AE17B20F03300B3
:1071900042EA0112024342F001029A621A4A996DD0
:1071A00032EA0101FBD1022216498A621A659A6D00
:1071B0005200FCD41869A27820F4700040EA025012
:1071C0004FF0004218610F4B9A611DB9022203F57E
:1071D00080539A6216B901220C4B9A62A37C1BB1B0
:1071E000074B0B4AC3F8802070BD996A21F0330128
:1071F00031430A4342EA4502EFE700BF00900040F6
:1072000000C0004000D000400300014000E000400A
:10721000F1A7FFFF014B93F9000070470C16002007
:10722000F0B54FF480061B4A41788478C37805781E
:1072300056664FF4D156022702F5B8325662164E02
:107240004F2977604FF0010728BF4F2106F5805680
:1072500077601669F603FCD441EA052151611B01F0
:10726000417943EA04230B43017943EA41039360E4
:10727000C37981791B0143EA4113417A0B43017AB7
:1072800043EA41035360837A13B16FF4D1535362DD
:10729000F0BD00BF0090004000100240014B18807C
:1072A000704700BF3C0B00204FF4001208B5184B8C
:1072B0005A660223174A5360936813F48033FBD154
:1072C000012822D1FFF76EFA134B984215D003F52F
:1072D000122303F5F863984213D0104B00EB8002A1
:1072E000400AB3FBF0F0520A0A4BDA62012218633B
:1072F0005A620022074B5A6008BD45F67A10084AC8
:10730000F2E745F61A00074AEEE75362F1E700BFDD
:10731000009000400040024000F04902646666664A
:10732000D8B80500BBCF05000029CCBF0121002142
:10733000FFF7DABCB0F5207F10B50C4642D008D874
:10734000B0F5007F33D003D888B1B0F5C07F0ED040
:1073500010BDB0F5607FFBD11F4B013CD3F880100E
:1073600021F0300141EA0414C3F88040F0E7FFF750
:10737000E1FC00F035F84FF48031184A164B1167E4
:10738000196F013C21F4704141EA04341C67FFF796
:10739000F3F90446FFF747FBC0F102012046FFF76F
:1073A000C3FF00F023F8BDE81040FFF7ADBD0A4B66
:1073B000013CD3F8901021F0F85141EA0464C3F87D
:1073C0009040C5E7044B013C196F21F4806141EA0C
:1073D00084241C67BCE700BF008000400090004090
:1073E00002214FF42070FFF7A5BF000008B54FF44D
:1073F000C070FFF7C9FCBDE80840044988428CBF53
:10740000022101214FF42070FFF794BF80F0FA02AF
:10741000B0F5807F70B50C4600F0FE802AD8382881
:1074200000F0528111D8243883B2092B16D80928CC
:1074300014D8DFE810F0E000E000E000E000130006
:107440001300D100130048003801522800F0D38007
:1074500005D83D2853D03E2800F0478170BD8028D4
:10746000FCD18B1E052B00F2B480DFE803F0AF9D4A
:10747000B26DB2ACB0F5D06F00F0158134D8B0F574
:10748000A06F00F0218117D8B0F5806F00F0B380B5
:10749000B0F5906FE2D1023CE4B2052C8CBF002124
:1074A0009A4B9B4A98BF195DD2F8243123F0070309
:1074B0000B43C2F82431D1E7B0F5B06F00F08C80F7
:1074C000B0F5C06FCAD1083CE4B2032C8CBF0021D8
:1074D000904B8F4A98BF195DD2F8403123F00303D7
:1074E0000B43C2F84031B9E7B0F5006FD3D017D8DD
:1074F000B0F5E06F00F0F980B0F5F06FAED1083C68
:10750000E4B2032C8CBF0021834B814A98BF195DE4
:10751000D2F8603123F003030B43C2F860319DE7DA
:10752000B0F5086F9AD1CC1EE4B2052C8CBF0021B7
:107530007A4B774A98BF195DD2F8003123F00303E4
:107540000B43C2F8003189E7002502260121022001
:1075500000F0B8F9FFF7EEFBFFF742FF4FF4803180
:107560006F4B6B4A1967136F23F00703334313679D
:10757000FFF702F90646FFF756FAC0F1020130465E
:10758000FFF7D2FE0121002000F0DCF9FFF72EFF0B
:10759000FFF7BAFC002D7FF461AF032C7FF45EAFE0
:1075A0000122604B9A6259E74FF400225C4B03269C
:1075B0005A66012203F540539D6A03F58053C5F3D3
:1075C00040059A62C2E700250426BFE70025012690
:1075D000BCE700252E46B9E7022C03D0A4F10F002A
:1075E000444244414A4AD2F8803123F003031C4309
:1075F000C2F8804132E7023CE4B2032C8CBF002188
:10760000494B434A98BF195DD2F8203123F0030358
:107610000B43C2F8203121E7A1F10804082C3FF602
:107620001DAF01A353F824F04D7601004D76010003
:107630005D7401004D7601007B7601005D740100F0
:107640005D7401005D7401004D7601004FF48032DD
:107650002F4B3649586E03F580535A660B6A43F038
:1076600001030B62C1035CBF314B5A664FF0E0224D
:10767000136923F004031361F0E64FF48032244BC6
:107680002A49586E03F580535A660B6A23F00103AA
:107690000B62C3035CBF264B5A664FF0E0221369AE
:1076A00043F00403E7E7083CE4B2062C8CBF00215A
:1076B000204B174A98BF195DD2F8003223F0070318
:1076C0000B43C2F80032C9E60F2C0CD0102C14BFAB
:1076D000002102210E4AD2F8203223F003030B438B
:1076E000C2F82032BAE60121F4E7083CE4B2032CE8
:1076F0008CBF0021104B064A98BF195DD2F840326A
:1077000023F003030B43C2F84032A7E6D8E403009A
:1077100000800040D4E40300D4E40300E5E4030067
:107720000090004000E00040D0E4030000C00740AB
:1077300000A00040DEE40300D4E40300EFF3108077
:1077400072B6704700B962B67047EFF3118030230C
:1077500083F31188704780F311887047194B10B577
:107760001B6873B3184A5268012A2AD0174A80202E
:10777000C2F80031FFF7D8FB05281FD14FF4C070C5
:10778000FFF788FA0128044604D102214FF4C070A3
:10779000FFF7D0FD07220E4B1A610122A3F580539B
:1077A0005A60094A1369DB07FCD5012C09D121462F
:1077B000BDE810404FF4C070FFF7BCBD0122054B7F
:1077C0005A6010BD1016002000C00140008000402B
:1077D00000E0014000D0014000224FF40031074B8F
:1077E0001A60074A516602F598325268012A02BFB0
:1077F000044AD2F800211A60704700BF101600201A
:1078000000900040008000404FF04022536F4178CC
:1078100023F4407343EA012353677047704770476E
:1078200010B5044608B1FFF7D7FF0E4A136943F0BD
:107830000403136101F04CFAFFF7F0FFFFF77EFF3E
:1078400026F0B2FCFFF77EFFFFF7E9FF01F054FAE4
:107850001CB1BDE81040FFF781BFBDE81040FEF746
:107860008BBF00BF00ED00E010B5044608B1FFF784
:10787000B3FF0C4A136943F00403136101F028FAC3
:10788000FFF75CFF26F090FCFFF75CFF01F034FA95
:107890001CB1BDE81040FFF761BFBDE81040FEF726
:1078A0006BBF00BF00ED00E0FFF796BFFFF756BFCC
:1078B0004FF04022D36E017923F030030B43D3669F
:1078C00070477047F8B504464FF04023D3F8842042
:1078D000D106FBD4D3F88430C3F381139C422DD05E
:1078E000FEF730FF012C064602D12146FFF71CFDB2
:1078F000FFF724FF4FF00072114B07465A662046EF
:10790000FFF7DFFF4FF480634FF04025621E934086
:107910002B676B6E9A0103D4D5F884309B060AD589
:107920003846FFF70FFF022C08D13046BDE8F8407B
:107930000021FFF7F9BCD5F88430EAE7F8BD00BFB5
:107940000060004007B518B90191FEF7FBFE0199F0
:10795000064B1B7843B1064B984205D8012003B073
:107960005DF804EBFFF7AEBF0220F8E71416002025
:10797000005A62020278034B012100201A70FFF7BF
:10798000E1BF00BF141600204FF0004210B50124E3
:107990004AF6CD31144B5A66144A03F50B23546052
:1079A0005A6C1964224078B9996811F0010F104996
:1079B00003D08C60D86AC007FCD501234B6012B19C
:1079C0000C4B0D4A1A6410BDD96A0907FCD420215A
:1079D000074B59620121A3F58053996005494B6A11
:1079E0009B06FCD5EBE700BF00900040005009402B
:1079F00000600940004009403254FFFF4FF0004250
:107A000038B5184B184C5A66012203F50C235A60FE
:107A10004AF6CD33656C2364437815409340134395
:107A20004FF04022D363A368827823F0740343EAC3
:107A30000213C278002A14BF042200221343A36059
:107A40000279837943EA022323614279C37943EAC5
:107A5000022363610078FFF797FF0DB1034B2364A6
:107A6000012038BD00900040004009403254FFFF23
:107A700070B5054614460E46FFF760FE296881EA98
:107A8000040202EA06044C402C60BDE87040FFF797
:107A900059BE0000F8B504460D461F4616464AB1C9
:107AA00001238B403021184A01FB0022F7B141F23B
:107AB000100153503023072D4FF00F0104FB03F347
:107AC00017D8A80006FA00F2814010481844FFF7C2
:107AD000CFFF56B9012130230B4801FA05F503FB0E
:107AE000040077B141F21003C550F8BD42F2100115
:107AF000DFE7A5F10800800006FA00F281400448A3
:107B0000E4E742F21003EFE700C0034004C0034083
:107B10000CC003404FF40032054B9A6641F67132B7
:107B200003F51C33DA63012203F50053DA60704772
:107B30000090004041F671320121064BDA6303F5F3
:107B40000052D1600022DA634FF40032A3F51833FB
:107B50009A667047000003404FF090435A6812B194
:107B60009A6A002AFAD17047CB784A7810B55B013F
:107B70000C7843EA82030A79234343EA02130C2276
:107B8000424302F190421363012C02BF8A78024BF8
:107B900043F8202010BD00BFE880034008B54FF037
:107BA00090435A6802B960B15B680BB1FFF7D4FF2C
:107BB0004FF0904130B10120074B5860FFF7CCFFE8
:107BC000C86008BDFFF7C8FF0223CB60FFF7C4FF02
:107BD0000122024B5A60F4E70010004800200048E0
:107BE0004FF090435B6870B50BB1FFF7B5FF012113
:107BF000104B4578596083780679002BC37814BF01
:107C000002240024002B14BF042200224379DB004D
:107C100043EA06132B43234313434FF090429360F0
:107C2000054B59600378002B14BF0B460223D36029
:107C300070BD00BF00200048001000484FF48032A3
:107C4000064B5A6603F5E6235B69C3F3851282701F
:107C500003F03F021B0B427003707047009000401E
:107C600038B50546144621B94FF42070FFF78CF85B
:107C7000014601396400B1FBF4F10902E96138BD44
:107C8000012200F5805310B55A6040F6AA6341F214
:107C90000502436100230E498360C365C26000F59D
:107CA00000520361C361C36491640A4983658842D9
:107CB00002D0094CA04207D18842036502D0064B8E
:107CC000984201D1002343650123536010BD00BFDA
:107CD000FFFF010000C005400000064038B50D461A
:107CE000FFF7CEFF0122A97B00F580535A602A8A54
:107CF0008368002914BF4FF48061002142F0010223
:107D000013432A7D0B43002A14BF4FF00052002278
:107D100083608368044613438360AB7C5BB11D4A78
:107D2000EB7C90422DD1A2F51032C2F88C31E36D7C
:107D300043F08003E3652B7B2046D5E9011243F431
:107D40008053E360FFF78CFF6B7B0BB11023636103
:107D50006B7D1BB1A36843F48033A360AB7D1BB183
:107D6000A36843F40043A360EB7D2A7E1B07120542
:107D700003F0E04302F4E0021343A3652B78636150
:107D800038BD054A904204BFA2F52032C2F89C31AA
:107D9000CDE700BF00C005400000064083695A06D9
:107DA000FCD5C16383699B06FCD5406AC0B27047AD
:107DB00038B50446054D1FF06DFB0FCC0FC594E898
:107DC000030085E80300002038BD00BF181600201E
:107DD00047F6FF739A42F0B563D0022963D8334B5C
:107DE000CF0003EBC10013F831108478012913D1BF
:107DF0000025C3781B1B9D4202D3E018C0B2F0BD22
:107E0000591B4668A3EB510136F911609642D4BF65
:107E10000D4601F1FF33EEE740680028EFD0B0F9DE
:107E20000010914204DBB0F902109142B8BF114634
:107E300082883B44FF2A19BFC8222826B0F90620B1
:107E4000B0F90860A2EB01020CBF0125002592FBEE
:107E5000F6F25F782A447B1E934228BF13464FF404
:107E60007A7E00EBC305AE68EA88AC4611FB02627D
:107E70001E4622EAE272013302F5FA729F42B2FB19
:107E8000FEF204D9BCF80CC008359445EBD200EBE7
:107E9000C6008088904228BF1046A04238BF2046C6
:107EA000ACE7FF20ABE70020A9E700BF18160020D1
:107EB0000229F0B553D82B4800EBC10410F831105B
:107EC000636801290FD1E078A478904294BFC4EB95
:107ED0000001C4EB0201001BCAB28242C8BF0022EB
:107EE00033F91200F0BD002B39D0A178914202D3B2
:107EF000B3F90200F6E7E178B3F900009142F1D955
:107F000099886478A1F1FF06013C714203F10405F0
:107F1000E4B2714103F10C071FFA82FCCEB2B44205
:107F200016D805EBC1014FF47A756A43B1F90240E6
:107F30004968521A04EBD47102EB610292FBF4F22D
:107F40009042CFDBB3F902009042CBDC10B2C9E71C
:107F500037F831E04E1CE645E3D33146DEE7024810
:107F6000C0E700BF181600200080FFFF08B50448D6
:107F7000FFF71EFFBDE8084001201FF08DBA00BFCB
:107F8000ECE403007FB50222084B0949CDE9012347
:107F90004FF00073CDE90313052301A94FF0FF3023
:107FA00005931FF0DFFA07B05DF804FB006A1800C4
:107FB0000002040007B56B46054A1068516803C308
:107FC0006846FFF71BFD002003B05DF804FB00BF0F
:107FD00070E503004FF0402213B50024536F68464C
:107FE00043F00103536700948DF80440FFF760FCF1
:107FF000204602B010BD000070B586B001AA15463B
:10800000184B03F11006144618685968083303C466
:10801000B3422246F7D119889B782180A370124B76
:10802000D3F84C21120314D4D3F85041E4B28DF8A4
:108030000E40FFF7EFF8204480F308008DF80D00A4
:108040000A48FEF7B5FB2846FFF74AF8002006B0BD
:1080500070BD074B1C884FF6FF739C4208BF782405
:10806000E5E700BF78E503000080E00F00F049027B
:108070000001E00F08B50120FFF716F9002008BD48
:108080001FB50B4A01AB1068516803C31189927A7E
:1080900019809A70252301A88DF80530FFF7C0F8E4
:1080A0006420FFF7FBF8002005B05DF804FB00BF7B
:1080B0008BE503006FF00402502110B50A480B4C09
:1080C00012F0800FD3B21BBF03F00F03043BA318C1
:1080D0001B1802F101020CBF83F800131976402A25
:1080E000EED1002010BD00BF00ED00E000E100E097
:1080F00000F07AB838B500F06FFF0446E0B901F03F
:108100006BF84FF4167343430C4803F5742303F2E2
:108110003F23B3FBF0F30A4A0A4913600A220D68B1
:108120000948013A12F0FF0240F8043BF9D103EB91
:10813000C3022B4413440B60204638BD40420F005D
:108140006C160020381600203C16002070470000F6
:10815000012208B5034B1A7001F032F8024B186087
:1081600008BD00BF3416002068160020F8B5144C76
:10817000237823B301F024F8124B134D1B68134EE0
:10818000C01A012838BF0120114B124F18602B78FC
:1081900056F8232046F82300111A3A680E48521A5E
:1081A0000A213A600932B2FBF1F20133DBB202601C
:1081B000B3FBF1F201FB12332B7000232370F8BDE7
:1081C0003416002068160020641600203C1600209B
:1081D00030160020381600206C160020014B18685D
:1081E000704700BF6C16002020234FF400220A497C
:1081F00081F82C33094B5A66094A03F5A0404267BF
:1082000002674FF4805003F540530344C1F88401E2
:1082100048605A67704700BF00E100E000900040EE
:10822000010000A0054B064A1B78916DC90700D5D7
:1082300013B10028F9D1704701207047841600203F
:1082400000C000402DE9F843874B1E6F9D6A9C6A71
:10825000F00705F0020504F001044CD5012783491D
:10826000834A91F80090DFF828821767B9F1000F70
:1082700000F0ED800020087098F80010B94200F27C
:10828000E18002219762A2F5805291629A6DD1033A
:10829000FCD478495A6B096822F470620A435A6325
:1082A0007548764A99690068126821F47F01024393
:1082B00021F47F410A439A617148724A1969126830
:1082C000006821F47F6121F00F0102430A431A6123
:1082D0006D499A69096822F0FF020A439A610223F4
:1082E000002D40F0AB80624A93620123002C00F025
:1082F000A780664A936216F000527FD04FF0010EBD
:108300005B4F63493A67594A574B82F800E00A7855
:10831000DFF864C172440A705A6B564902F4706007
:1083200008609869554900F47F4008609969DFF852
:10833000588101F47F01CCF80010D3F818C05FFA1F
:108340008CFCC8F800C0D3F810C0DFF838810CF4FA
:108350007C6CC8F800C0D3F810C0DFF824810CF0A2
:108360003F0CC8F800C0C7F828E04FF0020EDFF855
:108370001CC1CCF828E04FF0004ECCF828E0D3F830
:1083800058C01CF4803FFAD14FF0004C22F47062C8
:1083900042F40072B0F5C84FC7F828C05A6302D83B
:1083A000B1F5C80F0CD9304A3A499369096823F4EA
:1083B0007F0323F47F4343EA012343EA01439361AC
:1083C000294A35491369096823F47F6323F00F03B1
:1083D000880843EA910343EA80131361936923F009
:1083E000FF030B4393610223002D37D102F50052A6
:1083F00093620123002C33D0244A9362002E1BDAAF
:108400004FF000421A4B18491A67244A12789AB161
:1084100001229A620222A3F580539A628A6DD203E6
:10842000FCD44FF000429A61022205B9104B9A62C7
:108430000123BCB1154A9362BDE8F883134A53E7A0
:108440000B4A57E7FFF782FE144B1F7053E7FFF705
:108450008DFE00F077FB88F800904CE70B4AC7E7E9
:10846000034ACAE7024AE6E700C00040841600203B
:1084700000E0004088160020801600207C160020B6
:1084800078160020741600207016002000D00040DE
:1084900085160020440B0020400B0020861600208B
:1084A000FFF7D0BEBFF34F8FBFF36F8F054B5A6AF4
:1084B00022F480325A62D3F8942022F00102C3F8E9
:1084C0009420704700ED00E070B52548254CFFF77B
:1084D000E9FF844208BF4FF08043234A18BF20F0D1
:1084E0001F03D2F8C01018BF203B21F0FF0141F05C
:1084F000A001B3F1005FC2F8C0100CD31B4D1C4E9D
:10850000296843F00103C2F898100131C2F89C6059
:10851000C2F8A0302960844210D01448154B02687C
:10852000114923F01F0343F00303C1F89820C1F859
:108530009C30114B0132C1F8A0300260BFF34F8F65
:10854000BFF36F8F0522084BC3F894205A6A42F498
:1085500080325A62BFF34F8FBFF36F8F70BD00BF81
:10856000C80C0020A00E002000ED00E08C160020BA
:1085700003000020BF0E0020E1FFFF3F10B51446AE
:10858000FFF790FF1F2C21D9194A1A4CD2F8C0309E
:1085900021F01F0123F47F4343F48073C2F8C030FD
:1085A000C30618BF20F01F002368114A18BF2030EF
:1085B00020F01F00C2F8983040F0030041F00301A2
:1085C0000133C2F89C00C2F8A0102360BFF34F8FA4
:1085D000BFF36F8F0522064BC3F894205A6A42F40A
:1085E00080325A62BFF34F8FBFF36F8F002010BDF0
:1085F00000ED00E08C160020BFF34F8F0549064BBD
:10860000CA6802F4E0621343CB60BFF34F8F00BF30
:10861000FDE700BF00ED00E00400FA0508B5FFF734
:10862000EBFF08BD034B1B78002B14BF0120022079
:10863000704700BFC01600200329F8B598BF124B41
:1086400005460E468CBF00245C5C032805D8DFE895
:1086500000F002080B0E44F002040C4B1F684FB9E7
:10866000F8BD44F00804F8E744F02004F5E744F0CE
:108670008004F2E77B681A68144203D0314628462A
:108680005B6898473F68EAE796E50300BC16002060
:1086900038B5104D2B78ABB10F4C23781BB100F0DF
:1086A00057FB00232370002000F074FB0B4C50B1EB
:1086B00000F07AFB0023012120782B70FFF7BCFF2C
:1086C0000123237038BD0122054B1A702278054B17
:1086D0001A70F7E7BA160020B5160020AC16002075
:1086E000B9160020CC16002010B5FFF727F8064B6E
:1086F00004461B781BB1BDE81040FFF723B8FFF715
:10870000C7FF2046F7E700BFB4160020002814BFBB
:108710000121FF21074A13780B44137008D0064B40
:108720001B78012B04D9054B1B780BB9FFF7B0BFA1
:10873000704700BFC0160020AC160020B9160020FC
:1087400070B5FEF7FBFF114E054633788BB900F08C
:1087500043FC044620B12846FEF7F4FF204670BDD6
:1087600000F03AFD0A4B18600A48FEF743F80A4B3E
:108770001C6000F02FFA00F04BFB084B002418603F
:10878000012328463370FEF7DDFFE7E7B616002029
:10879000C8160020BC160020D0160020B0160020FD
:1087A00000292DE9F34114BF0121FF21254A00F1E1
:1087B000FF30135C0B4413543AD0234E3278012A15
:1087C00036D9FFF72FFF0128044634D81F4FFEF794
:1087D000B5FF3B781BB31E4D2B781BB901222A70C5
:1087E0001C4A1370DFF8708098F8003033B10190A4
:1087F00000F0AEFA0023019888F80030FEF7A2FFDF
:10880000012000F0C7FAFEF799FF2B782BB10190F9
:1088100000F0CAFA002301982B7000233B70FEF78A
:1088200091FF3078A04203D02146FFF705FF347056
:1088300002B0BDE8F081032AF3D10228F1D100F0A3
:1088400001FBEEE7C0160020AC160020BA1600208F
:10885000B4160020B9160020B516002010B5044645
:10886000FEF76CFF002C14BF0121FF21064A13788C
:108870000B44DBB21370B3FA83F3BDE81040034A34
:108880005B091370FEF75EBFC3160020C2160020FE
:1088900068B5FEF753FF094B06461B78012B04D839
:1088A000FEF750FF0025284668BD054B1D6800F007
:1088B000B3FA05443046FEF745FFF4E7AC16002056
:1088C000D016002007B5FEF739FF0190FFF7E0FE54
:1088D000019803B05DF804EBFEF734BF38B5416092
:1088E0000446FEF72BFF054621460448FDF785FFA9
:1088F0002846BDE83840FEF725BF00BFBC16002063
:10890000054B1B685843054B00F5742000F23F20CF
:10891000B0FBF3F0704700BFC816002040420F00C4
:108920002DE9FF47FEF70AFF044600E000BFFDF710
:10893000BFFD002800F09C806D4E6E4F337823B150
:108940000020FFF7E3FE00233370FFF76BFE0546C0
:10895000002800F09580851EEDB2012D40F2988030
:10896000FFF760FE0128804604D9634B1B780BB9E2
:1089700000F0ACF9614DDFF8A4912878DFF8A0A1F0
:1089800040450AD0002389F800309AF8003013B926
:108990004146FFF751FE85F8008099F800303BB161
:1089A0002B78022B04D1002389F800301FF07CFAC9
:1089B000B8F1010F0FD9DFF8408198F8003053B9B2
:1089C0004F4B1B7823B900F0BDF901224D4B1A70B3
:1089D000012388F80030287800F004FA9AF8003073
:1089E00013B1494B1B782B7000E000BF2046FEF707
:1089F000A9FEFEF7A3FE454B04461A7852B10022A9
:108A00001A70414B28781B78984203D101212970B4
:108A1000FFF712FE384600F019FBFDF754FD8046C3
:108A200000288BD1344F89F800003B789BB1DFF8E8
:108A3000D4908AF8000099F800301BB100F088F952
:108A400089F80080002000F0A5F9002846D000F049
:108A5000ABF900233B70337823B10020FFF756FEBB
:108A60000023337000212878FFF7E6FD00232B70E8
:108A700000E000BF204604B0BDE8F047FEF762BE4C
:108A80003378002B3FF46CAFFFF740FE357067E79B
:108A9000002003A900F05CFB054600287FF460AFCE
:108AA0001B4B039A1B689A4205D80120FFF72EFE44
:108AB0000123337054E7174BD3F8008000F0ACF972
:108AC000039940448842F0D20223091ACDE90053A9
:108AD00038462B46104A00F0E1FA41E7012000F049
:108AE00081F92046FEF72EFEFEF728FE0446A9E790
:108AF000C416002090160020BA160020AC160020E4
:108B0000C3160020B5160020CC160020B816002091
:108B1000B0160020D0160020E9860100C216002001
:108B2000B916002010B5FEF709FE0022044B1C7890
:108B30001A70FEF707FE00F01FFC2043C0B210BD04
:108B4000B716002010B5094B1B786BB1084C237881
:108B500053B100F029F90023064A23701370012352
:108B6000054A1370054A137010BD00BFAC160020F3
:108B7000B9160020BA160020B7160020B81600203B
:108B80007047000073B5114E04463378834212D00B
:108B900000238DF8043080B102238DF8053001A840
:108BA000FEF732FE0A4D402054B1FFF7A9FE2B68B4
:108BB000181A2860347002B070BD8DF80500EEE719
:108BC000FFF79EFE2B681844F3E700BF480B002018
:108BD000DC16002073B5002401A88DF80440FEF7D0
:108BE000C9FE20464FF40024FFF7CCFF3149324B39
:108BF0000A6F02F007021A60D1F82031D1F824017F
:108C000001F580514C664FF400344C6601F5983103
:108C10008969032A00F0070001F0020141D003F046
:108C200003039C1E63426341022808BF43F0010313
:108C30002248234D037061B31E4A3BB9D2F800317C
:108C400003F00303591E4B424B410370D2F800312D
:108C500003F00303022B26D0032B27D0012B18D1BE
:108C6000FDF7A0FDA8B1174B411EDC6800230246AA
:108C700008461946C4F30B04134E013404EB840474
:108C8000E4FB060124F080FFFFF73AFE2B6818444E
:108C900028606420FFF734FE2B681844286002B077
:108CA00070BD0123C0E7FDF79FFDDBE7FDF790FDF9
:108CB000D8E700BF00800040D4160020DA1600205C
:108CC000DC16002000C0014040420F00FEF7ECBD62
:108CD000074B1A7852B100221A70064A136F23F01C
:108CE000070343F001031367FDF746BD704700BF5C
:108CF000D8160020008000400E4B10B51B7883B1C1
:108D0000022000F0E7FB60B100F054FA48B10A4BD2
:108D10009A6DD20306D5DB6D9B0703D50122074B65
:108D20009A6210BD0124064B1C70FFF711FA034B29
:108D30009C62F6E7DA16002000C0004000D0004038
:108D4000D91600200122014B1A707047D816002056
:108D500038B50C4B1B786BB10B4C23787BB90B4BA4
:108D60000B4D9A6D12F4803F05D0DB6D9B0702D549
:108D70000123AB6238BDFFF7EBF90123AB6200239F
:108D80002370F7E7DA160020D916002000C0004053
:108D900000D00040034B1B780BB1FFF743BA012012
:108DA000704700BFDA16002008B5FEF77FFD094ABC
:108DB0000949136F096823F007030B431367074B37
:108DC0001B7813B10122064B9A62BDE80840FDF7FB
:108DD000D3BC00BF00800040D4160020DA1600206B
:108DE00000E0004002280AD003280BD001280CD153
:108DF000064A136923F00403136130BF7047002053
:108E0000FEF70EBD0020FEF72FBD704700ED00E01D
:108E10004FF4C870FFF774BD08B5054B187818B14A
:108E2000FFF7DCF900EBD000024B1B68184408BDCB
:108E3000DA160020DC1600200122014B1A70704760
:108E4000DA1600207047000010B500F0E3FA0A4C73
:108E50000A4B19682368C31A01B10BB9206010BD11
:108E60004A699A423ABF9B1A0022D21A4A6128BF25
:108E700000238968F0E700BFE4160020F816002000
:108E8000C38870B504460D463BB9FFF701FD854226
:108E9000064602D2FFF716FD35460F4965610B689D
:108EA000ABB90C60A36011E0AD1A9A681846656111
:108EB0002AB113465A69AA42F6D950B11A46134646
:108EC0008460A36013B15969491B596170BD0020CA
:108ED000F0E70C60F5E700BFF816002038B5134D39
:108EE0002B685B6993B1124A022014681C4400F09D
:108EF000C5FA204600F096FA00230E492A680B7046
:108F0000D088800709D501230B7038BD022000F0FE
:108F1000B5FA022000F0D6FAEEE79268002AF4D003
:108F200050690344012BEBD9EFE700BFF81600208E
:108F3000E4160020EC16002070B516469DF81420AB
:108F4000C0E903360271049ABDF8183002600022AD
:108F5000C380826004460D4600F05CFA3044A06194
:108F60003DB9E368656113B120462168984796B121
:108F70003546FEF7E3FB0646FFF766FF2946204627
:108F8000FFF77EFF054B1B68A34201D1FFF7A6FF49
:108F90003046FEF7D7FB002070BD00BFF81600205A
:108FA00000220C490B687BB183420AD183687AB1F5
:108FB000936083681BB15A6941690A445A61002071
:108FC00070471A469B68EEE70028EFD002207047F2
:108FD0000B60EEE7F816002070B5FEF7B6FB144EF6
:108FE00005463478FCB9134B1C60134B1C60134BC3
:108FF0001C8000F0CDF9012000F040FA00F094FA56
:109000000F4B0246186020B92846FEF7A4FB232028
:1090100070BD234640F2E7310A4824F0B5FD0A4B03
:109020001860012333702846FEF795FB0020EFE718
:10903000E0160020F8160020E4160020EE160020AE
:10904000F416002018FCFFFFE81600202DE9F0417F
:109050000546F8B1FEF772FB0F4F0646FFF7F4FE28
:109060002846D7F80080FFF79BFF044628B130461A
:10907000FEF768FB2046BDE8F081A8453B6803D1B8
:1090800023B1FFF72BFFF2E7002BF0D1022000F015
:1090900001FAECE72224EDE7F816002070B586B05F
:1090A00015461E460446059180B1FFF7CFFFBDF877
:1090B0002C30002202939DF828302046CDE9006331
:1090C00005992B46FFF738FF06B070BD2220FBE75D
:1090D00038B50C46054698B191B100230B70FEF7E8
:1090E00034FB0121074B1B680BB122781AB1FEF744
:1090F00032FB002038BDAB4214BF9B682170F3E700
:109100002220F7E7F8160020F0B51F46002387B0AD
:109110000D46164604468DF81730A0B10DF1170123
:10912000FFF7D6FF9DF817207AB9BDF834302946ED
:1091300002939DF830302046CDE900733346FFF7A7
:10914000FBFE07B0F0BD2220FBE70320F9E700009B
:109150002DE9F04107468846FEF7F7FA0026054656
:10916000124B1C6824B92846FEF7F5FA1B2016E0BE
:1091700063691E44E388BB4215D100F04BF90C4CE7
:109180002368C01AB0420CD200F044F9226832447D
:10919000121A2846C8F80020FEF7DDFA0020BDE8C4
:1091A000F0810022F5E7A468DCE700BFF816002094
:1091B000E4160020014B1878704700BFEC16002021
:1091C00038B5FEF7C2FA054600F024F904462846F1
:1091D000FEF7C1FA204638BD014B1868704700BF42
:1091E000F41600200C4B70B51B680D46834211D35A
:1091F00040F2E73100248C462146084B4FF47A7246
:109200001E680023E0FB06C1604624F0BDFC286018
:10921000204670BD2120FCE7E8160020F41600204F
:109220000F4B10B51A689AB14FF47A71531E13425E
:10923000A0FB01010ED1B2FA82F2C2F11F04531C4D
:10924000D243E04001FA03F3184321FA02F2024349
:10925000104610BD002324F097FC0246F8E700BF3B
:10926000F4160020C2072DE9F34704460BD53F4A08
:10927000138801339BB21380FFF7E6FD3C4B1B685C
:109280000BB1FFF72BFEA3076DD5FEF75EFA0026A4
:1092900005463746FFF7D8FDB146DFF8D480D8F849
:1092A00000400CB163698BB10022324B012F1A7060
:1092B00002D1022E08BF1F70002C44D0FFF70EFE13
:1092C000284602B0BDE8F047FEF745BA23461A79B2
:1092D0002179914288BF1C469B6813B15A69002AC4
:1092E000F5D02846FEF737FA256985B300F092F8E5
:1092F000A269861AF317B54279EB030328DA2369CA
:109300001344A3610123226982B17BB9A91B019196
:10931000FEF71BFA824601992046FFF7B1FDA369CB
:10932000226950461344A361FEF715FAE368E68804
:10933000013713B1204621689847FEF706FA054623
:10934000FFF782FDABE7022000F0A4F8B8E72E4655
:10935000FEF7FBF982462046FFF722FE5046FEF755
:10936000FAF90023CFE702B0BDE8F087EE1600203F
:10937000F8160020F016002010B5FEF7E6F9034BB2
:109380001C78FEF7E8F9204610BD00BFF01600205B
:109390001FB500241C4B012118689A880290D3F84D
:1093A00006009B7A00903E20ADF80C208DF804302A
:1093B000FDF7C8FC02A88DF808408DF80C40FEF7B8
:1093C0000FFC694601208DF80040FEF7CDFB4FF001
:1093D000904240F2FF31936923F47F7323F003033B
:1093E00093610A4B5961936A13F00803FBD113622E
:1093F0000120FEF7D3FB4FF48052054BC3F88021C8
:109400001A6004B010BD00BF9AE5030000200048B8
:1094100000E100E04FF090439A6A1207FCD4186A0A
:10942000704700004FF09042936A1907FCD4136A0A
:10943000116C5269520604D4CA1A032A01D89942FF
:109440000ED1C21A022A98BFD81CB0F1FF3F38BF14
:1094500001384FF0904318649A6942F040029A61D3
:10946000054A13783BB14FF09041CB6B43F00203B8
:10947000CB63002313707047490B002082074FF025
:10948000904200F00103916948BF43F040030B4351
:1094900093617047820700F001030AD50121084A51
:1094A00043F0400311704FF09041CA6B22F0030269
:1094B000CA634FF090418A6922EA03038B617047C7
:1094C000490B0020830742BF4022014B5A6170477D
:1094D000001000484FF0904301285B6904D0022837
:1094E00005D1C3F38010704703F0010070470020DE
:1094F0007047000010B5FEF728F94FF0904304467E
:109500005B695A06074A03F0010003F0510348BFA4
:1095100040F002005361FFF7A5FE2046BDE8104071
:10952000FEF719B9002000483E20FDF72DBC08B514
:10953000FCF764FFFCF79AFFFCF79AFFFCF7A5FF26
:10954000BDE80840FCF7AABF08B5FCF7A8FFFCF788
:10955000A7FFFCF7A6FFBDE80840FCF7A4BF00008A
:1095600010B50446FDF708F90C4BA0F57A729A4243
:1095700012D84FF47A73B0FBF3F05C43084BB3FBA3
:10958000F0F0B4FBF0F0022806D9BDE81040032348
:10959000B0FBF3F000F00CB810BD00BFFFC99A3B60
:1095A00040420F000000000000000000000000002A
:1095B000013800D0FCE7704738B50446FEF7BEF826
:1095C0000546204624F0B0FC04462846FEF7BAF8CB
:1095D000204638BD37B504460191FEF7AFF8019932
:1095E0000546204624F060FC04462846FEF7AAF80B
:1095F000204603B030BD38B50546FEF79FF8044657
:10960000284624F099FC2046BDE83840FEF79AB879
:109610000A4619B1024B00211B681847704700BF6A
:109620004C0B002000F4E040B0F5805F04D0A0F5C2
:10963000005358425841704701207047B0F5105F01
:109640000DD009D8B0F5885F10D0B0F5905F0DD07F
:1096500041F20103984209D06FF08500704721F074
:109660004003802B02D0B1F5807F06D111F0070FA7
:1096700014BF6FF08600002070476FF086007047BF
:109680000E4B0340B3F1607F06D1B1F5885F14BF84
:109690006FF0860000207047B3F1707F0BD101F4AA
:1096A000E043B3F5005F06D111F4E06F0CBF6FF03B
:1096B0008600002070476FF0860070470000C07F72
:1096C0008A42F8B507460D4600F01781964B974839
:1096D00002EA030181420BD0954922F0FF048C423B
:1096E00006D0944C22F47F7121F00301A1421DD1D8
:1096F0002B4083420BD08E4B25F0FF01994206D0C0
:109700008C4925F47F7323F003038B420ED115F0AF
:10971000FF030BD0884943F000738B4206D16A40A7
:1097200032F0FF030CBF01200020F8BD05F0FE431E
:10973000B3F1A06F17D102F0FE43B3F1A06F40F078
:10974000DE8082EA050333F47E1340F0D88015F4FE
:109750000040EAD0C5F30540C2F3054290428CBFF9
:1097600000200120E1E7B3F1407F40F0B38002F038
:10977000FE43B3F1407F40F0C28082EA050333F438
:109780007E1640F0BC8039462846FFF779FF002856
:1097900040F0B580694C12F47C1C04EA020438D015
:1097A000B4F1607FC2F3054C7AD16549D3B243F07E
:1097B00000738B4278D003F17E410439012975D9B9
